:030000000211CC1E
:0C11CC00787FE4F6D8FD75812102121333
:1012DE0048656C6C6F2041726475696E6F2D535446
:1012EE00432E000D0A006366675B25755D3A202567
:1012FE00752C25752C256C752C25642C25662C25B6
:10130E00730D0A00636667325B25755D3A2025759D
:10131E002C25752C256C752C25642C25662C257397
:10132E000D0A00616161616100000000006262628D
:07133E0062620000000000E4
:1017BC005700BFFFFFFFFFFFFFFFFF0140490FDB9B
:1017CC0048656C6C6F21000000004400BB000000F9
:0117DC00000C
:0B13A600900017EBF0A3EAF0A3E9F0C1
:1013B1009000827401F0A37400F0A3741AF09000FD
:1013C10017E0F9A3E0FAA3E0900085C9F0A3EAF0E1
:1013D100A3E9F0900082E0F9A3E0FAA3E09000888D
:1013E100C9F0A3EAF0A3E9F07B017A007942121671
:1013F10099900082E4F0A3F0A3F07B017A00794296
:051401007F0102172825
:0100220022BB
:0814C000900017ECF0A3EDF021
:1014C80090001BEBF0A3EAF0A3E9F0E4FFFE12188A
:1014D8009EE4900019F0A3F0900017E0FCA3E0FD53
:1014E800A3E0FEA3E0FFC39DEE9C5024A3E0FBA372
:1014F800E0FAA3E0F98F828E831205CFFD12186EF1
:1015080090001AE004F070D0900019E004F080C850
:0115180022B0
:08146400900017ECF0A3EDF07D
:10146C0090001BEBF0A3EAF0A3E9F0E4900019F074
:10147C00A3F0900017E0FCA3E0FDA3E0FEA3E0FFC7
:10148C00C39DEE9C502D12188790001BE0FBA3E02F
:10149C00FAA3E0F9900019E0FCA3E0F5828C83EF4D
:1014AC0012060E90001AE004F070C7900019E004C8
:0314BC00F080BFFE
:0114BF00220A
:0E18C2001218D0121915120FD3120EA080FBAF
:100FD30078007C007D017BFF7A1379317E007F0AE4
:100FE300120590780A7C007D017BFF7A13793B7EA2
:100FF300007F0A12059012178F90001512076F00D9
:1010030001C2007F0112175F7FDC7E051200037BA4
:10101300FF7A1279DE7F011217287BFF7A1279F1AA
:101023007F0112172890001AE4F0A37417F09000C0
:10103300BFE0FF90001CE4F0A3EFF09000C0E0FFDE
:10104300A3E090001ECFF0A3EFF09000C2E0FCA35A
:10105300E0FDA3E0FEA3E0FF9000201207639000F1
:10106300C6E0FFA3E0900024CFF0A3EFF09000C808
:10107300E0FCA3E0FDA3E0FEA3E0FF90002612073F
:101083006390002A7401F0A37400F0A374CCF07B86
:08109300FF7A1279F40213A6A2
:100EA000E47BFFFAF9F89000BBE0FCA3E0FDA3E0CF
:100EB000FEA3E0FF1206D19000BFEBF09000BBA3B1
:100EC000A3E0FEA3E0FFC39000C1E09FF09000C04C
:100ED000E09EF09000C2E0FCA3E0FDA3E0FEA3E0F2
:100EE000FF9000BBE0F8A3E0F9A3E0FAA3E0FBC3A6
:100EF000EF9BFFEE9AFEED99FDEC98FC9000C2127C
:100F00000763E47B1AFAF9F89000BBE0FCA3E0FD6C
:100F1000A3E0FEA3E0FF1206D1EB24419000D2F043
:100F20007B017A0079BF7D177C001214C07B017AA7
:100F30000079007D177C0012146490001AE4F0A37D
:100F40007417F0900000E0FF90001CE4F0A3EFF0B5
:100F5000900001E0FFA3E090001ECFF0A3EFF0901F
:100F60000003E0FCA3E0FDA3E0FEA3E0FF9000206F
:100F7000120763900007E0FFA3E0900024CFF0A3E6
:100F8000EFF0900009E0FCA3E0FDA3E0FEA3E0FF8A
:100F900090002612076390002A7401F0A37400F0F9
:100FA000A3740DF07BFF7A1379121213A69000BB85
:100FB000E0FCA3E0FDA3E0FEA3E02401FFE43EFE8D
:100FC000E43DFDE43CFC9000BB1207637FD07E074C
:030FD00002000319
:0517DD004200D6096086
:10000300EF4E601A9000D6E0FCA3E0FDED1D7001F9
:0E0013001C144C70F7EF1F70011E144E70E6A7
:0100210022BC
:0A18FA00EF1FAC0670011E4C70F6E3
:0119040022C0
:10180A009000D6E0FCA3E0FD1207E6E47B83FAF938
:10181A00F81206469000D81207639000D8E0C31366
:06182A00FEA3E013FF2203
:10183000E50E6599600885990EE4F50D8002050DA9
:10184000AF0DC3EF94E97480948040060075C760C3
:0318500000002273
:0E18D00043BA80E4F50EF50D12178FD2AF2249
:081905000102040810204080DB
:0F18B300EF54F0F50FEF540F90190593F5102235
:10113F00EF540FD394077480948040030211CB12A5
:10114F0018B3E50F24F0602424F0602A24F06030F7
:10115F0024F0603624F0603C24F0604224F06048B4
:10116F0024707058ED90FE1060498042ED90FE1192
:10117F006002803A803DED90FE1260028030803335
:10118F00ED90FE13600280268029ED90FE14600220
:10119F00801C801FED90FE15600280128015ED906F
:1011AF00FE1660028008800BED90FE176005E0458B
:0D11BF0010F022E0FFE510F4FEEF5EF022DC
:100C9600EF540FD39407748094804003020E9F1282
:100CA60018B3ED706EAF0FFEEF7007E510F45293B8
:100CB6005294EF64104E7007E510F452915292E58B
:100CC6000F64207007E510F452955296AF0F7E0020
:100CD600EF64307007E510F452B152B2EF64404E43
:100CE6007007E510F452B352B4E50F64507007E58F
:100CF60010F452C952CAAF0F7E00EF64607007E568
:100D060010F452CB52CCEF64704E7007E510F452DB
:100D1600E152E2ED64016003020D9FAF0FFEEF703A
:100D260009E5104293E510F45294EF64104E7009F1
:100D3600E5104291E510F45292E50F64207009E542
:100D4600104295E510F45296AF0F7E00EF643070B6
:100D560009E51042B1E510F452B2EF64404E700955
:100D6600E51042B3E510F452B4E50F64507009E59E
:100D76001042C9E510F452CAAF0F7E00EF646070EE
:100D860009E51042CBE510F452CCEF64704E7009C1
:100D9600E51042E1E510F452E2EDFF7E00640270D8
:100DA60071E50FFB7A007008E5104293E510429456
:100DB600EB64104A7008E5104291E5104292EB642C
:100DC600204A7008E5104295E5104296EB64304AD9
:100DD6007008E51042B1E51042B2EB64404A700873
:100DE600E51042B3E51042B4EB64504A7008E510D2
:100DF60042C9E51042CAEB64604A7008E51042CB6E
:100E0600E51042CCEB64704A7008E51042E1E5104B
:100E160042E2EF64034E6003020E9FAF0FFEEF70D7
:100E260009E510F45293E5104294EF64104E7009F0
:100E3600E510F45291E5104292E50F64207009E541
:100E460010F45295E5104296AF0F7E00EF643070B5
:100E560009E510F452B1E51042B2EF64404E700954
:100E6600E510F452B3E51042B4E50F64507009E59D
:100E760010F452C9E51042CAAF0F7E00EF646070ED
:100E860009E510F452CBE51042CCEF64704E7009C0
:0A0E9600E510F452E1E51042E222FB
:1016E300EFFB7A0070028D80EB64014A70028D90EB
:1016F300EF640270028DA0EFFB7A00640370028D29
:10170300B0EB64044A70028DC0EF640570028DC8AB
:10171300EFFB7A00640670028DE8EB64074A7004FD
:05172300AF058FF82264
:10151900EFFD7C007003AF8022ED64014C7003AFD6
:101529009022EFFD7C0064027003AFA022ED6403FA
:101539004C7003AFB022EFFD7C0064047003AFC0B0
:1015490022ED64054C7003AFC822EFFD7C006406F0
:101559007003AFE822ED64074C7003AFF8227FFFF8
:01156900225F
:10109B00EF540FD3940774809480400302113E12D7
:1010AB0018B3E50F24F0602A24F0603424F0603E7E
:1010BB0024F0604824F0605224F0605C24F06066F9
:1010CB002470706FED6005E510428022E510F4523C
:1010DB008022ED6005E510429022E510F45290223B
:1010EB00ED6005E51042A022E510F452A022ED6060
:1010FB0005E51042B022E510F452B022ED6005E593
:10110B001042C022E510F452C022ED6005E51042FA
:10111B00C822E510F452C822ED6005E51042E82222
:10112B00E510F452E822ED6005E51042F822E510D7
:04113B00F452F82250
:10140600EF540FD394077480948040037F01221217
:1014160018B3E50FFD7C007002AE80ED64104C70D1
:1014260002AE90ED64204C7002AEA0ED64304C70BC
:1014360002AEB0ED64404C7002AEC0ED64504C702C
:1014460002AEC8ED64604C7002AEE8ED64704C709C
:0D14560002AEF8E5105E60037F01227F000A
:011463002266
:10134500EF540FD394077480948050541218B3AFA0
:101355000F7E00EF7004E5106280EF64104E70049C
:10136500E5106290EF64204E7004E51062A0EF6412
:10137500304E7004E51062B0EF64404E7004E51025
:1013850062C0EF64504E7004E51062C8EF64604EB1
:101395007004E51062E8EF64704E7004E51062F8C1
:0113A5002225
:10160400EFFB7A007003ED6280EB64014A7003ED36
:101614006290EF64027003ED62A0EFFB7A00640352
:101624007003ED62B0EB64044A7003ED62C0EF64D2
:10163400057003ED62C8EFFB7A0064067003ED6287
:0B164400E8EB64074A7003ED62F82237
:10125800EF700CEB6005ED42808004EDF45280EFF6
:101268006401700CEB6005ED42908004EDF452903F
:10127800EF6402700CEB6005ED42A08004EDF452BF
:10128800A0EF6403700CEB6005ED42B08004EDF450
:1012980052B0EF6404700CEB6005ED42C08004EDC1
:1012A800F452C0EF6405700CEB6005ED42C8800491
:1012B800EDF452C8EF6406700CEB6005ED42E8806F
:1012C80004EDF452E8EF6407700BEB6004ED42F8AC
:0612D80022EDF452F822A1
:1015B8007EFFEFFB7A007002AE80EB64014A700296
:1015C800AE90EB64024A7002AEA0EB64034A70026C
:1015D800AEB0EB64044A7002AEC0EB64054A700218
:1015E800AEC8EB64064A7002AEE8EB64074A7002C4
:0B15F800AEF8EE5D60037F01227F0073
:0116030022C4
:08190D00303136371617434450
:10178F00759850538EDEE4FD7F0112156A90001597
:10179F0012076F0001C2007F0112175F438E405383
:0D17AF00890FC2ABC28FD28EC209D2AC220C
:10156A00900014EDF0EF147044900014E0FF54C0A2
:10157A00FEE5A2543F4EF5A2EFC41313540325E02F
:10158A00240DF582E43419F583E493FFE4FD120C8B
:10159A0096900014E0C41313540325E0240EF58238
:0E15AA00E43419F583E493FF7D03120C9622BE
:05175F00900014EFF002
:10176400A3E0F8A3E0F9A3E0FAA3E0FB7F807E8D79
:101774007D5B7C001206D1C3E49FFFE49EFE9000D3
:0A17840014E01470058F8BEEF58D54
:01178E002238
:0E18DE00EF147009AF058F99D2092009FD2281
:10185300EF147016EB6006D29BD29B8004C29BC22E
:0B1863009BAF058F99D2092009FD22E0
:10172800900085EBF0A3EAF0A3E9F0AE07900085FE
:10173800E0FBA3E0FAA3E0F91205B66019AF069042
:101748000085A3E475F001120630A9F0FA1205B677
:07175800FD1218DE80D7220C
:0300230002164F73
:10164F00C0E0C0F0C083C082C0D075D000C000C061
:10165F0001C002C003C004C005C006C0073098080F
:10166F00C298120022121830309904C299C209D0C0
:10167F0007D006D005D004D003D002D001D000D0BF
:0A168F00D0D082D083D0F0D0E0323A
:0E18EC00E4F5C7F5C5F5C675C3FF75C4FF2248
:0619150075F5180218EC44
:10189E0075C78175C5038FC4EEF5C375C65A75C677
:0518AE00A5000218EC8A
:10186E0075C78175C5028FC4EEF5C3AF058FC275FE
:09187E00C65A75C6A5000218EC5B
:1018870075C78175C5018FC4EEF5C375C65A75C690
:07189700A500AFC20218EC2E
:10169900900085E0FFA3E0FEA3E0CF90008EF0A3C9
:1016A900EEF0A3EFF0900088E0CBF0A3E0CAF0A33E
:1016B900E0C9F07F22900091AD82AC831205B68D0E
:1016C900828C83F0A309E970010ADFEC900088E0BD
:0A16D900FBA3E0FAA3E0F902087891
:10081300E508248EF582E43400F583E00508229090
:10082300008B30070390008EE475F0011207A002DD
:1008330005B62000E97F2ED2008018EF540F2490D4
:10084300D43440D4FF30040BEF24BFB41A00500358
:100853002461FFE50960021509050CE50C7002052A
:100863000B30070E90008BE475F0011207A0EF0226
:1008730005FC0217E37403D2078003E4C207F508FB
:1008830090008B1207B7E4F509F50BF50CE5096049
:10089300077F2012085680F5750AFFC201C200C205
:1008A30002C203C205C206C208120822FF700D303D
:1008B30007057F00120867AF0CAE0B22B4255FC299
:1008C300D5C204120822FF24D0B40A00501A75F0CE
:1008D3000A780930D50508B6FF0106C6A426F62016
:1008E300D5047002D20380D924CFB41A00EF500488
:1008F300C2E5D204020B59D20180C6D20080C0D215
:100903000280BCD2D580BAD20580B47F20120856AB
:100913002002077401B5090040F1120813FF120801
:1009230056020890D208D2068095120813FB1208CB
:1009330013FA120813F94A4B700679577A0C7BFFA6
:1009430020022EE509602A7E008E8275830012053F
:10095300CF60060EEE650A70F0C2D5EBC0E0EAC0C8
:10096300E0E9C0E0EE120BBAD0E0F9D0E0FAD0E053
:10097300FB1205B6FF60AAEBC0E0EAC0E0E9C0E005
:10098300120856D0E02401F9D0E03400FAD0E0FB9D
:10099300E50A0460DCD50AD98087D20280A2120B53
:1009A3009C60F7E50A700104120026A90A600DE5B0
:1009B3000A600914F50A120C44EF60F3EA30E70207
:1009C300F404C3995079EAF4250A0430E701E404F6
:1009D300F50A800D120B9C60C1EA050A250A120074
:1009E30026EA9000BAF030E701E4250A04D50A04A8
:1009F30020050114120BBAE4C0E0120C449000BAB3
:100A0300E0601320E70714F012083E802204F0D0C0
:100A1300E014C0E07F0012083EE50A6007120835C3
:100A2300150A800B300503120835D0E0020890D078
:100A3300E00480C4120B9C609EE50A041200269019
:100A430000BAEAF0E50A2005026001042404120B4F
:010A5300BAE8
:100A540074FF04C0E0120C4412083EE50A200502AB
:100A64006003120835D0E0B50AE87F4512084890C3
:100A740000BAE07F2B30E7047F2DF404C0E01208B5
:100A840056D0E075F00A84C0F012083FD0E0120896
:100A94003F020890791080027908C206C2088008D3
:100AA400D2D5790A8004790AC2D5E50A047002F520
:100AB4000AE4FAFDFEFF120813FC7B08200113125E
:100AC4000813FD7B1030000A120813FE120813FFEE
:100AD4007B20EC3382D592D55013C3E43000069FBB
:100AE400FFE49EFEE42001039DFDE49CFCE4CBF8BE
:100AF400C201EC700CCFCECDCCE824F8F870F380B2
:100B040017C3EF33FFEE33FEED33FDEC33FCEB3371
:100B1400FB994002FB0FD8E9EB300105F8D0E0C4A3
:100B240048B201C0E00AEC4D4E4F78207B0070C201
:100B3400EAB50A0040BCC0E0120BBCD0F0D0E02003
:100B44000104C4C0E0C4B201C0F012083FD0F0D523
:100B5400F0EB0208901207C0092D530A985808FEBA
:100B64004C08FA420A9C4F0AA4440AA449091343B4
:100B74000AAA5509D7460A374509A1470C775009EF
:100B8400022D09062E09292B090A230927200C60A6
:100B94002A08C24800000921E50AB4FF03750A06C1
:100BA400120813FC120813FD120813FE120813FF97
:100BB4009000B3020063790AA2D52003143005091A
:100BC400B910020404B9080104A2D5200602500198
:100BD400042002689202B509005034C0E07F20303E
:100BE40003197F30A20272067205500F120C13C251
:100BF40002C206C205C2087F30800F300503E9C077
:100C0400E0120856300503D0E0F9D0E0B509CC3045
:100C140005177F30B9100C1208567F583004077F2F
:100C2400788003B908031208563002057F2D0208A4
:100C3400567F202008F87F2B2006F322920280CFD3
:100C44007F00B40700500B24B3F582E43400F5832D
:100C5400E0FF22286E756C6C2900D2011208133053
:100C640001F8C201780930D50108F60208C22D50F6
:100C74004349581208132403B405004001E4900CBE
:100C84007293120847743A120847D2037509040292
:020C94000A98BC
:10002600F920E73624F950037907E4F42402FBE5C6
:1000360082158270021583DBF6E024FB501BE96013
:1000460014E4F0E582158270021583E004F0B40A28
:0D00560008E4F0D9EE7401F00A22C2D522B0
:10006300ED33EC3392D5FA602AB4FF33EDC2E77B6C
:10007300FF60067A007988E4227A00799120D5041A
:100083007A00798C224E614E002B494E46002D4951
:100093004E4600E47A08F0A3DAFC7B00740722C022
:1000A30083C082ECC0E0EDC0E0EEC0E0EFC0E0EA68
:1000B30075F010A4CAABF075F04DA42BFBE435F03A
:1000C300FCEA2410FAEB34C5FBEC34D9FCEDC2E7AF
:1000D300FF75F056A4F42411C5F0F434C58FF0A4D1
:1000E3002AE5F03BE43CF020E714120436D0E0FFAD
:1000F300D0E0FED0E0FDD0E0FC1203698014F404EC
:10010300120436D0E0FFD0E0FED0E0FDD0E0FC12D8
:100113000260D082D083E0FAEDD2E7CD33EC332412
:1001230082FBE4C3CF33CFCE33CECD33CD33DBF33A
:100133007B0775F00A846004F0A31B0AE5F0F0A3C3
:100143008FF0740AA4FFACF08EF0740AA42CFEACFA
:10015300F050010C8DF0740AA42CFDE435F0F0A3EB
:05016300DBDE74072241
:100168000204ABE86480F8E933E83360110460F016
:10017800ED33EC337009E8FCE9FDEAFEEBFF2204FD
:1001880060DED3EB9FEA9EE99DE8C2E78CF0C2F7F8
:1001980095F0400CE8CCF8E9CDF9EACEFAEBCFFBC4
:1001A80012047685D0F05804700320D5B3E80470A3
:1001B800075002B2D50204B592D5EC0460F7E4CC3E
:1001C800C0E0C398F8603B94186008400DD0E0FB8D
:1001D80002048DE4FBFAC9FC8028E830E406E4C98F
:1001E800FBE4CAFCE830E305E4C9CACBFCE85407E1
:1001F8006010F8C3E913F9EA13FAEB13FBEC13FCEC
:10020800D8F130F52FC3E49CFCEF9BFFEE9AFEED8E
:1002180099FDD0E0FBEF4E4D4C701222DB03020437
:10022800B2EC2CFCEF33FFEE33FEED33FDED30E79F
:10023800EB02048DEF2BFFEE3AFEED39FDD0E0FB2B
:1002480050130BBB00030204B5ED13FDEE13FEEFD4
:0802580013FFEC13FC02048DFE
:10026000EC4D6011E8497017ED33EC3304600DE498
:10027000FCFFFEFD22E933E8330470F80204AB1200
:10028000047658046009E4CC248150062850090201
:1002900004B52840030204B2C0E0EB4A7044B980C0
:1002A00006D0E0FB0204A1EF4E701CBD8008EBFFFE
:1002B000EAFEE9FD80EBE98DF0A4FEE5F0020349DA
:1002C000E9CDF9EAFEEBFFEF89F0A4FCE5F0CE8979
:1002D000F0A42EFFE435F0CD89F0A42DFEE435F036
:1002E0008067EF4E7005BD80D780C3EF8BF0A4AC64
:1002F000F0EE8BF0A42CFCE435F0F8EF8AF0A42C9F
:10030000E5F038FCE433CB8DF0A42CFCE5F03BF8B1
:10031000EE8AF0A42CFCE5F038F8E433CF89F0A4A1
:100320002CFCE5F038CF3400CE89F0A42FFFE5F0A7
:100330003EFEE433C98DF0A42EFEE5F039CD8AF0FF
:10034000A42FFFE5F03EFEE43DFD33D0E0FB500777
:100350000BBB000F0204B5EC2CFCEF33FFEE33FEB9
:06036000ED33FD02048DE7
:100366000204B5EC5D046005E8590470030204ABB1
:10037600120476580460F6EC4860F2EC7004FDFE58
:10038600FF22C860DB2481C85009C398600250066A
:100396000204B29850CAF582E9294B4A7005AB822D
:1003A6000204A175F0007C1A7880C3EF9BEE9AEDEB
:1003B60099400DC3EF9BFFEE9AFEED99FDE842F0E2
:1003C600DC23ACF0D0E0FFD0E0FED0E0FDAB822035
:1003D600E7101BEB60BAEC2CFCEF33FFEE33FEEDBF
:1003E60033FD02048DE803F830E705C0F075F00030
:1003F600EF2FFFEE33FEED33FD40B830E7C280AAA3
:100406003F8000004120000042C80000447A0000FE
:10041600461C400047C35000497424004B18968080
:100426004CBEBC205A0E1BCA6753C21C749DC5AE77
:10043600FB60065407601C2323120464EB543860E7
:100446000912045012045F120260ECF8EDF9EEFA9C
:10045600EFCB22EB12045F80F1543803241C900486
:1004660006FE93FC0EEE93FD0EEE930ECE93FF2248
:10047600E9D2E7C933E833F892D5EDD2E7CD33ECCC
:0704860033FC5002B2D52245
:10048D00EC30E7100FBF000C0EBE00080DBD0004D0
:10049D000BEB6014A2D5EB13FCED92E7FD2274FF7C
:1004AD00FCFDFEFF22E480F8A2D574FF13FC7D80D5
:0304BD00E480EFE9
:1011D8000218C2E493A3F8E493A34003F68001F253
:1011E80008DFF48029E493A3F85407240CC8C33318
:1011F800C4540F4420C8834004F456800146F6DFE7
:10120800E4800B01020408102040809017BCE47EA3
:10121800019360BCA3FF543F30E509541FFEE493DB
:10122800A360010ECF54C025E060A840B8E493A3A2
:10123800FAE493A3F8E493A3C8C582C8CAC583CACD
:10124800F0A3C8C582C8CAC583CADFE9DEE780BE85
:0117E2000006
:1004C000E709F608DFFA8046E709F208DFFA803E1E
:1004D00088828C83E709F0A3DFFA8032E309F6080B
:1004E000DFFA8078E309F208DFFA807088828C8373
:1004F000E309F0A3DFFA806489828A83E0A3F60827
:10050000DFFA805889828A83E0A3F208DFFA804C00
:1005100080D280FA80C680D4806980F280338010D7
:1005200080A680EA809A80A880DA80E280CA803340
:1005300089828A83ECFAE493A3C8C582C8CCC583B8
:10054000CCF0A3C8C582C8CCC583CCDFE9DEE78088
:100550000D89828A83E493A3F608DFF9ECFAA9F007
:10056000EDFB2289828A83ECFAE0A3C8C582C8CC5D
:10057000C583CCF0A3C8C582C8CCC583CCDFEADE76
:10058000E880DB89828A83E493A3F208DFF980CCD8
:1005900088F0EF60010E4E60C388F0ED2402B404D1
:1005A0000050B9F582EB2402B4040050AF23234578
:0605B00082239005107388
:1005B600BB010689828A83E0225002E722BBFE0243
:0905C600E32289828A83E4932276
:1005CF00BB010CE58229F582E5833AF583E02250E1
:1005DF0006E92582F8E622BBFE06E92582F8E2222B
:0D05EF00E58229F582E5833AF583E4932245
:1005FC00BB010689828A83F0225002F722BBFE01DE
:02060C00F322D7
:10060E00F8BB010DE58229F582E5833AF583E8F022
:10061E00225006E92582C8F622BBFE05E92582C8CE
:02062E00F222B6
:10063000A3F8E0C5F025F0F0E5821582700215837D
:06064000E0C838F0E822DA
:10064600E88FF0A4CC8BF0A42CFCE98EF0A42CFC53
:100656008AF0EDA42CFCEA8EF0A4CDA8F08BF0A4D1
:100666002DCC3825F0FDE98FF0A42CCD35F0FCEB30
:100676008EF0A4FEA9F0EB8FF0A4CFC5F02ECD39F5
:0F068600FEE43CFCEAA42DCE35F0FDE43CFC2262
:1006950075F008758200EF2FFFEE33FECD33CDCC1C
:1006A50033CCC58233C5829BED9AEC99E58298409F
:1006B5000CF582EE9BFEED9AFDEC99FC0FD5F0D67C
:1006C500E4CEFBE4CDFAE4CCF9A88222B800C1B9A6
:1006D5000059BA002DEC8BF084CFCECDFCE5F0CBE4
:1006E500F97818EF2FFFEE33FEED33FDEC33FCEB1D
:1006F50033FB10D703994004EB99FB0FD8E5E4F9D8
:10070500FA227818EF2FFFEE33FEED33FDEC33FCC4
:10071500C933C910D7059BE99A4007EC9BFCE99AB8
:10072500F90FD8E0E4C9FAE4CCFB2275F010EF2FFD
:10073500FFEE33FEED33FDCC33CCC833C810D707FD
:100745009BEC9AE899400AED9BFDEC9AFCE899F838
:0E0755000FD5F0DAE4CDFBE4CCFAE4C8F922CB
:0C076300ECF0A3EDF0A3EEF0A3EFF02209
:10076F00A8828583F0D083D0821207861207861263
:10077F000786120786E473E493A3C583C5F0C58388
:10078F00C8C582C8F0A3C583C5F0C583C8C582C8D4
:01079F002237
:1007A000F8E0FBA3A3E0F925F0F0E58215827002E2
:0707B0001583E0FA38F02286
:0907B700EBF0A3EAF0A3E9F02243
:1007C000D083D082F8E4937012740193700DA3A3C8
:1007D00093F8740193F5828883E4737402936860DC
:0607E000EFA3A3A380DFDC
:1007E600EC8EF0A4CCC5F0CCCDF8EFA4CEC5F02DA0
:1007F600FDE43CFCE8A42EC8C5F03DFDE43CFCEF5E
:0D080600A4FFE5F028FEE43DFDE43CFC22EB
:1017E300EFB40A07740D1217EE740A309811A89912
:1017F300B8130CC2983098FDA899C298B811F63066
:0718030099FDC299F599223D
:00000001FF
