:030000000208B73C
:0C08B700787FE4F6D8FD7581200208FE71
:100E720048656C6C6F2041726475696E6F2D5354B6
:060E8200432E000D0A00E2
:0100220022BB
:100DBF00120E97120DE7E4FF1209C97D03E4FF122B
:100DCF0006C77D037F011206C77D037F021206C788
:080DDF00120C22120ECE80FB63
:100C2200120D929000161205A10001C2007F01125E
:100C32000D627FDC7E051200037BFF7A0E79727FE4
:100C420001120CFB7BFF7A0E79857F01120CFB7D72
:100C5200647C00E4FF1202487DF47C017F011202F1
:0A0C6200487DE87C037F020202488F
:010ECE002201
:050D320042000F096002
:10000300EF4E601A90000FE0FCA3E0FDED1D7001C0
:0E0013001C144C70F7EF1F70011E144E70E6A7
:0100210022BC
:0A0EB300EF1FAC0670011E4C70F634
:010EBD002212
:100E0E0090000FE0FCA3E0FD1205D2E47B83FAF91B
:100E1E00F8120478900011120595900011E0C3139A
:060E2E00FEA3E013FF2209
:100E3400E50965996008859909E4F50880020508C3
:100E4400AF08C3EF94E97480948040060075C760CE
:030E540000002279
:0E0E970043BA80E4F509F508120D92D2AF229D
:080EBE0001020408102040802D
:0F0E8800EF54F0F50AEF540F900EBE93F50B22C6
:10082A00EF540FD394077480948040030208B612E1
:10083A000E88E50A24F0602424F0602A24F060304F
:10084A0024F0603624F0603C24F0604224F06048D2
:10085A0024707058ED90FE1060498042ED90FE11B0
:10086A006002803A803DED90FE1260028030803353
:10087A00ED90FE13600280268029ED90FE1460023E
:10088A00801C801FED90FE15600280128015ED908D
:10089A00FE1660028008800BED90FE176005E045A9
:0D08AA000BF022E0FFE50BF4FEEF5EF02204
:10003E00EF540FD39407748094804003020247124A
:10004E000E88ED706EAF0AFEEF7007E50BF452935B
:10005E005294EF64104E7007E50BF452915292E5F4
:10006E000A64207007E50BF452955296AF0A7E0093
:10007E00EF64307007E50BF452B152B2EF64404EAC
:10008E007007E50BF452B352B4E50A64507007E5FD
:10009E000BF452C952CAAF0A7E00EF64607007E5D6
:1000AE000BF452CB52CCEF64704E7007E50BF4524A
:1000BE00E152E2ED64016003020147AF0AFEEF7008
:1000CE0009E50B4293E50BF45294EF64104E700960
:1000DE00E50B4291E50BF45292E50A64207009E5B6
:1000EE000B4295E50BF45296AF0A7E00EF6430702A
:1000FE0009E50B42B1E50BF452B2EF64404E7009C4
:10010E00E50B42B3E50BF452B4E50A64507009E511
:10011E000B42C9E50BF452CAAF0A7E00EF64607061
:10012E0009E50B42CBE50BF452CCEF64704E70092F
:10013E00E50B42E1E50BF452E2EDFF7E0064027046
:10014E0071E50AFB7A007008E50B4293E50B4294C9
:10015E00EB64104A7008E50B4291E50B4292EB649A
:10016E00204A7008E50B4295E50B4296EB64304A47
:10017E007008E50B42B1E50B42B2EB64404A7008E1
:10018E00E50B42B3E50B42B4EB64504A7008E50B45
:10019E0042C9E50B42CAEB64604A7008E50B42CBDC
:1001AE00E50B42CCEB64704A7008E50B42E1E50BBF
:1001BE0042E2EF64034E6003020247AF0AFEEF70A5
:1001CE0009E50BF45293E50B4294EF64104E70095F
:1001DE00E50BF45291E50B4292E50A64207009E5B5
:1001EE000BF45295E50B4296AF0A7E00EF64307029
:1001FE0009E50BF452B1E50B42B2EF64404E7009C3
:10020E00E50BF452B3E50B42B4E50A64507009E510
:10021E000BF452C9E50B42CAAF0A7E00EF64607060
:10022E0009E50BF452CBE50B42CCEF64704E70092E
:0A023E00E50BF452E1E50B42E22269
:100CB600EFFB7A0070028D80EB64014A70028D9022
:100CC600EF640270028DA0EFFB7A00640370028D60
:100CD600B0EB64044A70028DC0EF640570028DC8E3
:100CE600EFFB7A00640670028DE8EB64074A700435
:050CF600AF058FF8229C
:100AEC00EFFD7C007003AF8022ED64014C7003AF0E
:100AFC009022EFFD7C0064027003AFA022ED640332
:100B0C004C7003AFB022EFFD7C0064047003AFC0E7
:100B1C0022ED64054C7003AFC822EFFD7C00640627
:100B2C007003AFE822ED64074C7003AFF8227FFF2F
:010B3C002296
:10078600EF540FD394077480948040030208291213
:100796000E88E50A24F0602A24F0603424F0603ED6
:1007A60024F0604824F0605224F0605C24F0606617
:1007B6002470706FED6005E50B428022E50BF45264
:1007C6008022ED6005E50B429022E50BF452902263
:1007D600ED6005E50B42A022E50BF452A022ED6088
:1007E60005E50B42B022E50BF452B022ED6005E5BB
:1007F6000B42C022E50BF452C022ED6005E50B4228
:10080600C822E50BF452C822ED6005E50B42E8224A
:10081600E50BF452E822ED6005E50B42F822E50B04
:04082600F452F8226E
:100A8E00EF540FD394077480948040037F01221299
:100A9E000E88E50AFD7C007002AE80ED64104C708D
:100AAE0002AE90ED64204C7002AEA0ED64304C703E
:100ABE0002AEB0ED64404C7002AEC0ED64504C70AE
:100ACE0002AEC8ED64604C7002AEE8ED64704C701E
:0D0ADE0002AEF8E50B5E60037F01227F0091
:010AEB0022E8
:100A2D00EF540FD39407748094805054120E88AFF6
:100A3D000A7E00EF7004E50B6280EF64104E7004C7
:100A4D00E50B6290EF64204E7004E50B62A0EF643D
:100A5D00304E7004E50B62B0EF64404E7004E50B50
:100A6D0062C0EF64504E7004E50B62C8EF64604ED7
:100A7D007004E50B62E8EF64704E7004E50B62F8EC
:010A8D002246
:100BD700EFFB7A007003ED6280EB64014A7003ED6E
:100BE7006290EF64027003ED62A0EFFB7A0064038A
:100BF7007003ED62B0EB64044A7003ED62C0EF640A
:100C0700057003ED62C8EFFB7A0064067003ED62BE
:0B0C1700E8EB64074A7003ED62F8226E
:10094300EF700CEB6005ED42808004EDF45280EF14
:100953006401700CEB6005ED42908004EDF452905D
:10096300EF6402700CEB6005ED42A08004EDF452DD
:10097300A0EF6403700CEB6005ED42B08004EDF46E
:1009830052B0EF6404700CEB6005ED42C08004EDDF
:10099300F452C0EF6405700CEB6005ED42C88004AF
:1009A300EDF452C8EF6406700CEB6005ED42E8808D
:1009B30004EDF452E8EF6407700BEB6004ED42F8CA
:0609C30022EDF452F822BF
:100B8B007EFFEFFB7A007002AE80EB64014A7002CD
:100B9B00AE90EB64024A7002AEA0EB64034A7002A3
:100BAB00AEB0EB64044A7002AEC0EB64054A70024F
:100BBB00AEC8EB64064A7002AEE8EB64074A7002FB
:0B0BCB00AEF8EE5D60037F01227F00AA
:010BD60022FC
:080EC6003031363716174344A2
:100D9200759850538EDEE4FD7F01120B3D900016D4
:100DA2001205A10001C2007F01120D62438E405361
:0D0DB200890FC2ABC28FD28EC200D2AC221C
:100B3D00900015EDF0EF147044900015E0FF54C0D7
:100B4D00FEE5A2543F4EF5A2EFC41313540325E066
:100B5D0024C6F582E4340EF583E493FFE4FD120020
:100B6D003E900015E0C41313540325E024C7F5820D
:0E0B7D00E4340EF583E493FF7D0312003E2264
:050D6200900015EFF008
:100D6700A3E0F8A3E0F9A3E0FAA3E0FB7F807E8D80
:100D77007D5B7C00120503C3E49FFFE49EFE9000A9
:0A0D870015E01470058F8BEEF58D5A
:010D9100223F
:0E0EA500EF147009AF058F99D2002000FD22D6
:100E5700EF147016EB6006D29BD29B8004C29BC234
:0B0E67009BAF058F99D2002000FD22F8
:100CFB00900015EBF0A3EAF0A3E9F0AE0790001516
:100D0B00E0FBA3E0FAA3E0F91204496019AF0690E7
:100D1B000015A3E475F001120462A9F0FA1204495C
:070D2B00FD120EA580D72286
:03002300020C6C60
:100C6C00C0E0C0F0C083C082C0D075D000C000C04E
:100C7C0001C002C003C004C005C006C007309808FC
:100C8C00C298120022120E34309904C299C200D0BC
:100C9C0007D006D005D004D003D002D001D000D0AC
:0A0CAC00D0D082D083D0F0D0E03227
:100D3700410000004200090000420003000041009A
:100D4700010042000B0000420005000041000200C4
:0A0D570042000D00004200070000FA
:100DE700E4F5D8F5E9F5F975D9087F101209C97D39
:100DF70001E4FF1206C77D047F011206C77D017F4C
:070E0700021206C7D2DE2231
:1009C900EF5430FEE5A254CF4EF5A2EF24F0601C9F
:1009D90024F060332420704BE4FD7F1312003EE4C1
:1009E900FD7F1112003EE4FD7F108012E4FD7F348B
:1009F90012003EE4FD7F3512003EE4FD7F36120011
:100A09003EE4FD7F378019E4FD7F5412003EE4FD8A
:100A19007F1312003EE4FD7F1412003EE4FD7F15B2
:040A290012003E2257
:0206C700A90781
:1006C900ED14B4070050459006DE75F003A4C58308
:1006D90025F0C583730206F30206F90206FF020735
:1006E9000502070B02070F0207137C807E42801C5C
:1006F9007C407E428016E4FC7E4280107CC07E42B3
:10070900800A7E0180067E4980027E4DE9146029B7
:1007190014604824027065900000EDF0FBD394004A
:1007290074809480400BEB94057480948050028C03
:10073900F28EDAE4F5EAF5FA22900001EDF0FBD346
:10074900940074809480400BEB94057480948050DD
:10075900028CF38EDBE4F5EBF5FB22900002EDF061
:10076900FBD3940074809480400BEB9405748094BF
:0C0779008050028CF48EDCE4F5ECF5FC02
:010785002251
:1005FF00EF14604914700302068824026003020698
:10060F00C6900000E0C39406748094804010900060
:10061F0009ECF0A3EDF0900003ECF0A3EDF09000E7
:10062F0009E0FEA3E0F5EAEEF5FA900003E0FEA381
:10063F00E0FF90000AE02FF0900009807790000112
:10064F00E0C3940674809480401090000BECF0A3EC
:10065F00EDF0900005ECF0A3EDF090000BE0FEA3A1
:10066F00E0F5EBEEF5FB900005E0FEA3E0FF900058
:10067F000CE02FF090000B803B900002E0C394063B
:10068F0074809480401190000DECF0A3EDF0FF907A
:10069F000007ECF0A3EFF090000DE0FEA3E0F5EC07
:1006AF00EEF5FC900007E0FEA3E0FF90000EE02FB8
:0806BF00F090000DE03EF02276
:0D024800900016ECF0A3EDF0900015EFF023
:10025500E4900019F0EF14600C14600E2402701283
:1002650090000080089000018003900002E090005B
:100275001AF090001AE0FFD3940474809480400330
:10028500020448EF9400748094805003020448E00F
:1002950024FE606514700302034F1470030203A269
:1002A50024036003020402C3900017E094E8900061
:1002B50016E094034004E4FB802E900016E0FEA3B4
:1002C500E0FBC374E89BFF74039EFEE49400FDE429
:1002D5009400FCE47B40FAF9F8120478E47BE87AB0
:1002E50003F9F8120503AB07EB543F900018F0EB48
:1002F50020E60302040202039CC3900017E094E881
:10030500900016E094034004E4FB802E900016E074
:10031500FEA3E0FBC374E89BFF74039EFEE4940018
:10032500FDE49400FCE47B80FAF9F8120478E47BA0
:10033500E87A03F9F8120503AB07EB547F90001830
:10034500F0EB20E703020402804DC3900017E09410
:10035500E8900016E094034005E4FAFB8030900035
:1003650016E0FEA3E0FBC374E89BFF74039EFEE466
:100375009400FDE49400FCE4FB7A01F9F81204789A
:10038500E47BE87A03F9F8120503AA06AB079000A7
:1003950018EBF0EA30E066A37402F08060C39000C9
:1003A50017E094E8900016E094034005E4FAFB801A
:1003B50030900016E0FEA3E0FBC374E89BFF7403D6
:1003C5009EFEE49400FDE49400FCE4FB7A04F9F855
:1003D500120478E47BE87A03F9F8120503AA06AB60
:1003E50007900018EBF0EAC4F854F0C8EBC4540FBA
:1003F500485430A3F0EA30E204E04402F0900015DE
:10040500E014601A14602A24027038E5F254C0FF23
:10041500900019E04FF5F2900018E0F5FA22E5F3A7
:1004250054C0FF900019E04FF5F3900018E0F5FB7C
:1004350022E5F454C0FF900019E04FF5F490001840
:03044500E0F5FCE3
:010448002291
:03003B000200269A
:1000260030DF02C2DF30D802C2D830D902C2D9309E
:05003600DA02C2DA321B
:1008C300020DBFE493A3F8E493A34003F68001F27F
:1008D30008DFF48029E493A3F85407240CC8C33336
:1008E300C4540F4420C8834004F456800146F6DF05
:1008F300E4800B0102040810204080900D32E47E56
:10090300019360BCA3FF543F30E509541FFEE493F9
:10091300A360010ECF54C025E060A840B8E493A3C0
:10092300FAE493A3F8E493A3C8C582C8CAC583CAEB
:10093300F0A3C8C582C8CAC583CADFE9DEE780BEA3
:010D61000091
:10044900BB010689828A83E0225002E722BBFE02B1
:09045900E32289828A83E49322E4
:10046200A3F8E0C5F025F0F0E5821582700215834D
:06047200E0C838F0E822AA
:10047800E88FF0A4CC8BF0A42CFCE98EF0A42CFC23
:100488008AF0EDA42CFCEA8EF0A4CDA8F08BF0A4A1
:100498002DCC3825F0FDE98FF0A42CCD35F0FCEB00
:1004A8008EF0A4FEA9F0EB8FF0A4CFC5F02ECD39C5
:0F04B800FEE43CFCEAA42DCE35F0FDE43CFC2232
:1004C70075F008758200EF2FFFEE33FECD33CDCCEC
:1004D70033CCC58233C5829BED9AEC99E58298406F
:1004E7000CF582EE9BFEED9AFDEC99FC0FD5F0D64C
:1004F700E4CEFBE4CDFAE4CCF9A88222B800C1B976
:100507000059BA002DEC8BF084CFCECDFCE5F0CBB3
:10051700F97818EF2FFFEE33FEED33FDEC33FCEBEC
:1005270033FB10D703994004EB99FB0FD8E5E4F9A7
:10053700FA227818EF2FFFEE33FEED33FDEC33FC94
:10054700C933C910D7059BE99A4007EC9BFCE99A88
:10055700F90FD8E0E4C9FAE4CCFB2275F010EF2FCD
:10056700FFEE33FEED33FDCC33CCC833C810D707CD
:100577009BEC9AE899400AED9BFDEC9AFCE899F808
:0E0587000FD5F0DAE4CDFBE4CCFAE4C8F9229B
:0C059500ECF0A3EDF0A3EEF0A3EFF022D9
:1005A100A8828583F0D083D0821205B81205B812D3
:1005B10005B81205B8E473E493A3C583C5F0C583F8
:1005C100C8C582C8F0A3C583C5F0C583C8C582C8A4
:0105D1002207
:1005D200EC8EF0A4CCC5F0CCCDF8EFA4CEC5F02DB6
:1005E200FDE43CFCE8A42EC8C5F03DFDE43CFCEF74
:0D05F200A4FFE5F028FEE43DFDE43CFC2202
:00000001FF
