BL51 BANKED LINKER/LOCATER V6.22.2.0                                                    11/20/2022  19:13:51  PAGE 1


BL51 BANKED LINKER/LOCATER V6.22.2.0, INVOKED BY:
D:\KEIL_V5\C51\BIN\BL51.EXE .\output\STARTUP.obj, .\output\main.obj, .\output\ecbm_core.obj, .\output\gpio.obj, .\output
>> \power.obj, .\output\uart.obj, .\output\exti.obj, .\output\timer.obj, .\output\eeprom.obj, .\output\spi.obj, .\output
>> \soft_spi.obj, .\output\iic.obj, .\output\soft_iic.obj, .\output\adc.obj, .\output\cmp.obj, .\output\mdu16.obj, .\out
>> put\pca.obj, .\output\pwm.obj, .\output\lcm.obj TO .\output\ecbm_lite PRINT (.\output\ecbm_lite.m51) DISABLEWARNING (
>> 16)


MEMORY MODEL: LARGE


INPUT MODULES INCLUDED:
  .\output\STARTUP.obj (?C_STARTUP)
  .\output\main.obj (MAIN)
  .\output\ecbm_core.obj (ECBM_CORE)
  .\output\gpio.obj (GPIO)
  .\output\power.obj (POWER)
  .\output\uart.obj (UART)
  .\output\exti.obj (EXTI)
  .\output\timer.obj (TIMER)
  .\output\eeprom.obj (EEPROM)
  .\output\spi.obj (SPI)
  .\output\soft_spi.obj (SOFT_SPI)
  .\output\iic.obj (IIC)
  .\output\soft_iic.obj (SOFT_IIC)
  .\output\adc.obj (ADC)
  .\output\cmp.obj (CMP)
  .\output\mdu16.obj (MDU16)
  .\output\pca.obj (PCA)
  .\output\pwm.obj (PWM)
  .\output\lcm.obj (LCM)
  D:\KEIL_V5\C51\LIB\C51L.LIB (?C_INIT)
  D:\KEIL_V5\C51\LIB\C51L.LIB (?C?CLDPTR)
  D:\KEIL_V5\C51\LIB\C51L.LIB (?C?ILDIX)
  D:\KEIL_V5\C51\LIB\C51L.LIB (?C?LMUL)
  D:\KEIL_V5\C51\LIB\C51L.LIB (?C?ULDIV)
  D:\KEIL_V5\C51\LIB\C51L.LIB (?C?LSTXDATA)
  D:\KEIL_V5\C51\LIB\C51L.LIB (?C?LSTKXDATA)
  D:\KEIL_V5\C51\LIB\C51L.LIB (?C?LIMUL)


LINK MAP OF MODULE:  .\output\ecbm_lite (?C_STARTUP)


            TYPE    BASE      LENGTH    RELOCATION   SEGMENT NAME
            -----------------------------------------------------

            * * * * * * *   D A T A   M E M O R Y   * * * * * * *
            REG     0000H     0008H     ABSOLUTE     "REG BANK 0"
            DATA    0008H     0002H     UNIT         ?DT?ECBM_CORE
            DATA    000AH     0002H     UNIT         ?DT?GPIO
                    000CH     0014H                  *** GAP ***
            BIT     0020H.0   0000H.1   UNIT         ?BI?UART
                    0020H.1   0000H.7                *** GAP ***
            IDATA   0021H     0001H     UNIT         ?STACK

            * * * * * * *  X D A T A   M E M O R Y  * * * * * * *
            XDATA   0000H     0006H     UNIT         ?XD?ECBM_CORE
BL51 BANKED LINKER/LOCATER V6.22.2.0                                                  11/20/2022  19:13:51  PAGE 2


            XDATA   0006H     0005H     UNIT         _XDATA_GROUP_
            XDATA   000BH     0003H     UNIT         ?XD?_UART_STRING?UART

            * * * * * * *   C O D E   M E M O R Y   * * * * * * *
            CODE    0000H     0003H     ABSOLUTE     
            CODE    0003H     001FH     UNIT         ?PR?_DELAY_MS?ECBM_CORE
                    0022H     0001H                  *** GAP ***
            CODE    0023H     0003H     ABSOLUTE     
            CODE    0026H     020AH     UNIT         ?PR?_GPIO_MODE?GPIO
            CODE    0230H     01B6H     UNIT         ?C?LIB_CODE
            CODE    03E6H     00A4H     UNIT         ?PR?_GPIO_OUT?GPIO
            CODE    048AH     008DH     UNIT         ?PR?_GPIO_UPPULL?GPIO
            CODE    0517H     008CH     UNIT         ?C_C51STARTUP
            CODE    05A3H     0086H     UNIT         ?PR?_GPIO_OUT_FAST?GPIO
            CODE    0629H     0061H     UNIT         ?PR?_GPIO_TOGGLE?GPIO
            CODE    068AH     005EH     UNIT         ?PR?_GPIO_IN?GPIO
            CODE    06E8H     0051H     UNIT         ?PR?_GPIO_READ?GPIO
            CODE    0739H     004EH     UNIT         ?PR?_UART_SET_IO?UART
            CODE    0787H     004CH     UNIT         ?PR?_GPIO_IN_FAST?GPIO
            CODE    07D3H     004BH     UNIT         ?PR?_GPIO_TOGGLE_FAST?GPIO
            CODE    081EH     0047H     UNIT         ?PR?UART1_IT?UART
            CODE    0865H     0045H     UNIT         ?PR?_GPIO_WRITE?GPIO
            CODE    08AAH     0037H     UNIT         ?PR?_UART_STRING?UART
            CODE    08E1H     0030H     UNIT         ?PR?_UART_SET_BAUD?UART
            CODE    0911H     002DH     UNIT         ?PR?UART_INIT?UART
            CODE    093EH     0026H     UNIT         ?PR?_DELAY_SET_US?ECBM_CORE
            CODE    0964H     0023H     UNIT         ?PR?SYSTEM_UART_RESET?ECBM_CORE
            CODE    0987H     001BH     UNIT         ?PR?_UART_CHAR_9?UART
            CODE    09A2H     000FH     UNIT         ?PR?_GPIO_ANALYSIS?GPIO
            CODE    09B1H     000EH     UNIT         ?PR?SYSTEM_INIT?ECBM_CORE
            CODE    09BFH     000EH     UNIT         ?PR?_UART_CHAR?UART
            CODE    09CDH     000BH     UNIT         ?PR?_DELAY_US?ECBM_CORE
            CODE    09D8H     0008H     UNIT         ?CO?GPIO
            CODE    09E0H     0008H     UNIT         ?CO?UART
            CODE    09E8H     0006H     UNIT         ?C_INITSEG
            CODE    09EEH     0005H     UNIT         ?PR?MAIN?MAIN



OVERLAY MAP OF MODULE:   .\output\ecbm_lite (?C_STARTUP)


SEGMENT                                   XDATA_GROUP
  +--> CALLED SEGMENT                   START    LENGTH
-------------------------------------------------------
?C_C51STARTUP                           -----    -----
  +--> ?PR?MAIN?MAIN
  +--> ?C_INITSEG

?PR?MAIN?MAIN                           -----    -----
  +--> ?PR?SYSTEM_INIT?ECBM_CORE

?PR?SYSTEM_INIT?ECBM_CORE               -----    -----
  +--> ?PR?UART_INIT?UART

?PR?UART_INIT?UART                      -----    -----
  +--> ?PR?_UART_SET_IO?UART
BL51 BANKED LINKER/LOCATER V6.22.2.0                                                  11/20/2022  19:13:51  PAGE 3


  +--> ?PR?_UART_SET_BAUD?UART

?PR?_UART_SET_IO?UART                   0006H    0001H
  +--> ?CO?UART
  +--> ?PR?_GPIO_MODE?GPIO

?PR?_GPIO_MODE?GPIO                     -----    -----
  +--> ?PR?_GPIO_ANALYSIS?GPIO

?PR?_GPIO_ANALYSIS?GPIO                 -----    -----
  +--> ?CO?GPIO

?PR?_UART_SET_BAUD?UART                 0006H    0005H

*** NEW ROOT ***************************************************

?PR?UART1_IT?UART                       -----    -----
  +--> ?PR?SYSTEM_UART_RESET?ECBM_CORE



SYMBOL TABLE OF MODULE:  .\output\ecbm_lite (?C_STARTUP)

  VALUE           TYPE          NAME
  ----------------------------------

  -------         MODULE        ?C_STARTUP
  C:0517H         SEGMENT       ?C_C51STARTUP
  I:0021H         SEGMENT       ?STACK
  C:0000H         PUBLIC        ?C_STARTUP
  D:00E0H         SYMBOL        ACC
  D:00F0H         SYMBOL        B
  D:0083H         SYMBOL        DPH
  D:0082H         SYMBOL        DPL
  N:0000H         SYMBOL        IBPSTACK
  N:0100H         SYMBOL        IBPSTACKTOP
  N:0080H         SYMBOL        IDATALEN
  C:051AH         SYMBOL        IDATALOOP
  N:0000H         SYMBOL        PBPSTACK
  N:0100H         SYMBOL        PBPSTACKTOP
  N:0000H         SYMBOL        PDATALEN
  N:0000H         SYMBOL        PDATASTART
  N:0000H         SYMBOL        PPAGE
  N:0000H         SYMBOL        PPAGEENABLE
  D:00A0H         SYMBOL        PPAGE_SFR
  D:0081H         SYMBOL        SP
  C:0517H         SYMBOL        STARTUP1
  N:0000H         SYMBOL        XBPSTACK
  N:0000H         SYMBOL        XBPSTACKTOP
  N:0000H         SYMBOL        XDATALEN
  N:0000H         SYMBOL        XDATASTART
  C:0000H         LINE#         126
  C:0517H         LINE#         133
  C:0519H         LINE#         134
  C:051AH         LINE#         135
  C:051BH         LINE#         136
  C:051DH         LINE#         185
BL51 BANKED LINKER/LOCATER V6.22.2.0                                                  11/20/2022  19:13:51  PAGE 4


  C:0520H         LINE#         196
  -------         ENDMOD        ?C_STARTUP

  -------         MODULE        MAIN
  C:0000H         SYMBOL        _ICE_DUMMY_
  D:0080H         PUBLIC        P0
  D:0090H         PUBLIC        P1
  D:00A0H         PUBLIC        P2
  D:00B0H         PUBLIC        P3
  D:00C0H         PUBLIC        P4
  D:00C8H         PUBLIC        P5
  D:00E8H         PUBLIC        P6
  D:00F8H         PUBLIC        P7
  D:00A8H         PUBLIC        IE
  D:00B8H         PUBLIC        IP
  D:00D8H         PUBLIC        CCON
  C:09EEH         PUBLIC        main
  D:0098H         PUBLIC        SCON
  D:0088H         PUBLIC        TCON
  D:00D0H         PUBLIC        PSW
  -------         PROC          MAIN
  C:09EEH         LINE#         2
  C:09EEH         LINE#         3
  C:09F1H         LINE#         4
  C:09F1H         LINE#         6
  -------         ENDPROC       MAIN
  -------         ENDMOD        MAIN

  -------         MODULE        ECBM_CORE
  C:0000H         SYMBOL        _ICE_DUMMY_
  D:0080H         PUBLIC        P0
  D:0090H         PUBLIC        P1
  D:00A0H         PUBLIC        P2
  D:00B0H         PUBLIC        P3
  D:00C0H         PUBLIC        P4
  D:00C8H         PUBLIC        P5
  B:00A8H.7       PUBLIC        EA
  D:00E8H         PUBLIC        P6
  D:00F8H         PUBLIC        P7
  C:093EH         PUBLIC        _delay_set_us
  X:0000H         PUBLIC        ecbm_delay_base
  D:00BAH         PUBLIC        P_SW2
  D:00A8H         PUBLIC        IE
  D:00B8H         PUBLIC        IP
  D:00D8H         PUBLIC        CCON
  D:0008H         PUBLIC        char_count
  D:0099H         PUBLIC        SBUF
  D:0098H         PUBLIC        SCON
  D:0088H         PUBLIC        TCON
  C:09B1H         PUBLIC        system_init
  D:0009H         PUBLIC        old_char
  D:00C7H         PUBLIC        IAP_CONTR
  X:0002H         PUBLIC        fast_cout
  C:0964H         PUBLIC        system_uart_reset
  C:0003H         PUBLIC        _delay_ms
  C:09CDH         PUBLIC        _delay_us
  D:00D0H         PUBLIC        PSW
BL51 BANKED LINKER/LOCATER V6.22.2.0                                                  11/20/2022  19:13:51  PAGE 5


  -------         PROC          _DELAY_MS
  D:0006H         SYMBOL        ms
  -------         DO            
  D:0004H         SYMBOL        i
  -------         ENDDO         
  C:0003H         LINE#         23
  C:0003H         LINE#         25
  C:0007H         LINE#         26
  C:0007H         LINE#         27
  C:000FH         LINE#         28
  C:0018H         LINE#         29
  C:0021H         LINE#         30
  C:0021H         LINE#         31
  -------         ENDPROC       _DELAY_MS
  -------         PROC          _DELAY_US
  D:0006H         SYMBOL        us
  -------         DO            
  D:0006H         SYMBOL        i
  -------         ENDDO         
  C:09CDH         LINE#         35
  C:09CDH         LINE#         37
  C:09CDH         LINE#         38
  C:09D7H         LINE#         39
  -------         ENDPROC       _DELAY_US
  -------         PROC          _DELAY_SET_US
  D:0006H         SYMBOL        us
  C:093EH         LINE#         43
  C:093EH         LINE#         45
  C:0958H         LINE#         46
  C:0963H         LINE#         47
  -------         ENDPROC       _DELAY_SET_US
  -------         PROC          SYSTEM_UART_RESET
  C:0964H         LINE#         57
  C:0964H         LINE#         58
  C:096AH         LINE#         59
  C:096DH         LINE#         60
  C:0970H         LINE#         61
  C:0972H         LINE#         62
  C:0974H         LINE#         63
  C:0974H         LINE#         64
  C:0980H         LINE#         65
  C:0981H         LINE#         66
  C:0984H         LINE#         67
  C:0985H         LINE#         68
  C:0986H         LINE#         69
  C:0986H         LINE#         70
  -------         ENDPROC       SYSTEM_UART_RESET
  -------         PROC          SYSTEM_INIT
  C:09B1H         LINE#         76
  C:09B1H         LINE#         77
  C:09B4H         LINE#         80
  C:09B7H         LINE#         81
  C:09B9H         LINE#         82
  C:09BCH         LINE#         109
  C:09BEH         LINE#         110
  -------         ENDPROC       SYSTEM_INIT
  -------         ENDMOD        ECBM_CORE
BL51 BANKED LINKER/LOCATER V6.22.2.0                                                  11/20/2022  19:13:51  PAGE 6



  -------         MODULE        GPIO
  C:0000H         SYMBOL        _ICE_DUMMY_
  D:0093H         PUBLIC        P0M1
  D:0092H         PUBLIC        P1M0
  D:0096H         PUBLIC        P2M0
  D:0091H         PUBLIC        P1M1
  D:0080H         PUBLIC        P0
  D:00B2H         PUBLIC        P3M0
  D:0095H         PUBLIC        P2M1
  D:0090H         PUBLIC        P1
  D:00B4H         PUBLIC        P4M0
  D:00B1H         PUBLIC        P3M1
  D:00A0H         PUBLIC        P2
  D:00CAH         PUBLIC        P5M0
  D:00B3H         PUBLIC        P4M1
  D:00B0H         PUBLIC        P3
  D:00CCH         PUBLIC        P6M0
  D:00C9H         PUBLIC        P5M1
  D:00C0H         PUBLIC        P4
  D:00E2H         PUBLIC        P7M0
  D:00CBH         PUBLIC        P6M1
  D:00C8H         PUBLIC        P5
  D:00E8H         PUBLIC        P6
  D:00E1H         PUBLIC        P7M1
  D:00F8H         PUBLIC        P7
  D:00A8H         PUBLIC        IE
  C:0629H         PUBLIC        _gpio_toggle
  D:00B8H         PUBLIC        IP
  D:00D8H         PUBLIC        CCON
  C:07D3H         PUBLIC        _gpio_toggle_fast
  C:06E8H         PUBLIC        _gpio_read
  D:0098H         PUBLIC        SCON
  D:0088H         PUBLIC        TCON
  C:048AH         PUBLIC        _gpio_uppull
  C:0026H         PUBLIC        _gpio_mode
  C:0865H         PUBLIC        _gpio_write
  D:000AH         PUBLIC        ecbm_port
  D:000BH         PUBLIC        ecbm_pin
  C:09D8H         PUBLIC        ecbm_pin_mask
  C:068AH         PUBLIC        _gpio_in
  C:03E6H         PUBLIC        _gpio_out
  C:0787H         PUBLIC        _gpio_in_fast
  D:00D0H         PUBLIC        PSW
  C:09A2H         PUBLIC        _gpio_analysis
  C:05A3H         PUBLIC        _gpio_out_fast
  D:0094H         PUBLIC        P0M0
  -------         PROC          _GPIO_ANALYSIS
  D:0007H         SYMBOL        pin
  C:09A2H         LINE#         6
  C:09A2H         LINE#         7
  C:09A7H         LINE#         8
  C:09B0H         LINE#         9
  -------         ENDPROC       _GPIO_ANALYSIS
  -------         PROC          _GPIO_UPPULL
  D:0007H         SYMBOL        pin
  D:0005H         SYMBOL        en
BL51 BANKED LINKER/LOCATER V6.22.2.0                                                  11/20/2022  19:13:51  PAGE 7


  C:048AH         LINE#         14
  C:048AH         LINE#         16
  C:0499H         LINE#         17
  C:049CH         LINE#         19
  C:04BEH         LINE#         20
  C:04BEH         LINE#         22
  C:04C6H         LINE#         25
  C:04D0H         LINE#         28
  C:04DAH         LINE#         31
  C:04E4H         LINE#         34
  C:04EEH         LINE#         37
  C:04F8H         LINE#         40
  C:0502H         LINE#         43
  C:0516H         LINE#         45
  C:0516H         LINE#         46
  -------         ENDPROC       _GPIO_UPPULL
  -------         PROC          _GPIO_MODE
  D:0007H         SYMBOL        pin
  D:0005H         SYMBOL        mode
  C:0026H         LINE#         52
  C:0026H         LINE#         54
  C:0035H         LINE#         55
  C:0038H         LINE#         57
  C:003BH         LINE#         59
  C:0048H         LINE#         62
  C:0055H         LINE#         65
  C:0062H         LINE#         68
  C:0072H         LINE#         71
  C:007FH         LINE#         74
  C:008CH         LINE#         77
  C:009CH         LINE#         80
  C:00A9H         LINE#         82
  C:00A9H         LINE#         83
  C:00B1H         LINE#         85
  C:00C0H         LINE#         88
  C:00CFH         LINE#         91
  C:00DEH         LINE#         94
  C:00F0H         LINE#         97
  C:00FFH         LINE#         100
  C:010EH         LINE#         103
  C:0120H         LINE#         106
  C:012FH         LINE#         108
  C:012FH         LINE#         109
  C:0137H         LINE#         111
  C:0146H         LINE#         114
  C:0154H         LINE#         117
  C:0162H         LINE#         120
  C:0170H         LINE#         123
  C:017EH         LINE#         126
  C:018CH         LINE#         129
  C:019AH         LINE#         132
  C:01A8H         LINE#         134
  C:01A8H         LINE#         135
  C:01B1H         LINE#         137
  C:01C0H         LINE#         140
  C:01CFH         LINE#         143
  C:01DEH         LINE#         146
BL51 BANKED LINKER/LOCATER V6.22.2.0                                                  11/20/2022  19:13:51  PAGE 8


  C:01F0H         LINE#         149
  C:01FFH         LINE#         152
  C:020EH         LINE#         155
  C:0220H         LINE#         158
  C:022FH         LINE#         160
  C:022FH         LINE#         161
  -------         ENDPROC       _GPIO_MODE
  -------         PROC          _GPIO_WRITE
  D:0007H         SYMBOL        port
  D:0005H         SYMBOL        dat
  C:0865H         LINE#         169
  C:0865H         LINE#         171
  C:086DH         LINE#         174
  C:0875H         LINE#         177
  C:087CH         LINE#         180
  C:0886H         LINE#         183
  C:088EH         LINE#         186
  C:0895H         LINE#         189
  C:089FH         LINE#         192
  C:08A9H         LINE#         194
  -------         ENDPROC       _GPIO_WRITE
  -------         PROC          _GPIO_READ
  D:0007H         SYMBOL        port
  C:06E8H         LINE#         200
  C:06E8H         LINE#         202
  C:06F1H         LINE#         205
  C:06FAH         LINE#         208
  C:0705H         LINE#         211
  C:070EH         LINE#         214
  C:0719H         LINE#         217
  C:0722H         LINE#         220
  C:072DH         LINE#         223
  C:0736H         LINE#         225
  C:0738H         LINE#         226
  -------         ENDPROC       _GPIO_READ
  -------         PROC          _GPIO_OUT
  D:0007H         SYMBOL        pin
  D:0005H         SYMBOL        value
  C:03E6H         LINE#         232
  C:03E6H         LINE#         234
  C:03F5H         LINE#         235
  C:03F8H         LINE#         237
  C:041AH         LINE#         238
  C:041AH         LINE#         240
  C:0428H         LINE#         243
  C:0436H         LINE#         246
  C:0444H         LINE#         249
  C:0452H         LINE#         252
  C:0460H         LINE#         255
  C:046EH         LINE#         258
  C:047CH         LINE#         261
  C:0489H         LINE#         263
  C:0489H         LINE#         264
  -------         ENDPROC       _GPIO_OUT
  -------         PROC          _GPIO_IN
  D:0007H         SYMBOL        pin
  -------         DO            
BL51 BANKED LINKER/LOCATER V6.22.2.0                                                  11/20/2022  19:13:51  PAGE 9


  D:0006H         SYMBOL        value
  -------         ENDDO         
  C:068AH         LINE#         270
  C:068AH         LINE#         273
  C:0699H         LINE#         274
  C:069CH         LINE#         277
  C:06A5H         LINE#         280
  C:06ADH         LINE#         283
  C:06B5H         LINE#         286
  C:06BDH         LINE#         289
  C:06C5H         LINE#         292
  C:06CDH         LINE#         295
  C:06D5H         LINE#         298
  C:06DDH         LINE#         300
  C:06E7H         LINE#         301
  -------         ENDPROC       _GPIO_IN
  -------         PROC          _GPIO_TOGGLE
  D:0007H         SYMBOL        pin
  C:0629H         LINE#         307
  C:0629H         LINE#         309
  C:0635H         LINE#         310
  C:0638H         LINE#         313
  C:0643H         LINE#         316
  C:064DH         LINE#         319
  C:0657H         LINE#         322
  C:0661H         LINE#         325
  C:066BH         LINE#         328
  C:0675H         LINE#         331
  C:067FH         LINE#         334
  C:0689H         LINE#         336
  -------         ENDPROC       _GPIO_TOGGLE
  -------         PROC          _GPIO_TOGGLE_FAST
  D:0007H         SYMBOL        port
  D:0005H         SYMBOL        pin
  C:07D3H         LINE#         344
  C:07D3H         LINE#         346
  C:07DCH         LINE#         349
  C:07E5H         LINE#         352
  C:07EDH         LINE#         355
  C:07F8H         LINE#         358
  C:0801H         LINE#         361
  C:0809H         LINE#         364
  C:0814H         LINE#         367
  C:081DH         LINE#         369
  -------         ENDPROC       _GPIO_TOGGLE_FAST
  -------         PROC          _GPIO_OUT_FAST
  D:0007H         SYMBOL        port
  D:0005H         SYMBOL        pin
  D:0003H         SYMBOL        val
  C:05A3H         LINE#         375
  C:05A3H         LINE#         377
  C:05B2H         LINE#         380
  C:05C3H         LINE#         383
  C:05D4H         LINE#         386
  C:05E5H         LINE#         389
  C:05F6H         LINE#         392
  C:0607H         LINE#         395
BL51 BANKED LINKER/LOCATER V6.22.2.0                                                  11/20/2022  19:13:51  PAGE 10


  C:0618H         LINE#         398
  C:0628H         LINE#         400
  -------         ENDPROC       _GPIO_OUT_FAST
  -------         PROC          _GPIO_IN_FAST
  D:0007H         SYMBOL        port
  D:0005H         SYMBOL        pin
  -------         DO            
  D:0006H         SYMBOL        val
  -------         ENDDO         
  C:0787H         LINE#         406
  C:0787H         LINE#         407
  C:0789H         LINE#         409
  C:0791H         LINE#         412
  C:0799H         LINE#         415
  C:07A1H         LINE#         418
  C:07A9H         LINE#         421
  C:07B1H         LINE#         424
  C:07B9H         LINE#         427
  C:07C1H         LINE#         430
  C:07C9H         LINE#         432
  C:07D2H         LINE#         433
  -------         ENDPROC       _GPIO_IN_FAST
  -------         ENDMOD        GPIO

  -------         MODULE        POWER
  C:0000H         SYMBOL        _ICE_DUMMY_
  D:0080H         PUBLIC        P0
  D:0090H         PUBLIC        P1
  D:00A0H         PUBLIC        P2
  D:00B0H         PUBLIC        P3
  D:00C0H         PUBLIC        P4
  D:00C8H         PUBLIC        P5
  D:00E8H         PUBLIC        P6
  D:00F8H         PUBLIC        P7
  D:00A8H         PUBLIC        IE
  D:00B8H         PUBLIC        IP
  D:00D8H         PUBLIC        CCON
  D:0098H         PUBLIC        SCON
  D:0088H         PUBLIC        TCON
  D:00D0H         PUBLIC        PSW
  -------         ENDMOD        POWER

  -------         MODULE        UART
  C:0000H         SYMBOL        _ICE_DUMMY_
  D:0080H         PUBLIC        P0
  D:0090H         PUBLIC        P1
  D:00A0H         PUBLIC        P2
  D:00B0H         PUBLIC        P3
  D:00C0H         PUBLIC        P4
  D:00C8H         PUBLIC        P5
  D:00E8H         PUBLIC        P6
  D:00F8H         PUBLIC        P7
  D:00A2H         PUBLIC        P_SW1
  D:00A8H         PUBLIC        IE
  B:0020H.0       PUBLIC        uart1_busy
  B:00A8H.4       PUBLIC        ES
  D:00B8H         PUBLIC        IP
BL51 BANKED LINKER/LOCATER V6.22.2.0                                                  11/20/2022  19:13:51  PAGE 11


  B:0098H.0       PUBLIC        RI
  B:0098H.1       PUBLIC        TI
  D:00D8H         PUBLIC        CCON
  C:0739H         PUBLIC        _uart_set_io
  C:081EH         PUBLIC        uart1_it
  D:0099H         PUBLIC        SBUF
  D:0098H         PUBLIC        SCON
  D:0089H         PUBLIC        TMOD
  D:0088H         PUBLIC        TCON
  C:08AAH         PUBLIC        _uart_string
  C:09BFH         PUBLIC        _uart_char
  D:008EH         PUBLIC        AUXR
  C:09E0H         PUBLIC        uart1_io_map
  B:00A8H.3       PUBLIC        ET1
  B:0088H.7       PUBLIC        TF1
  D:008DH         PUBLIC        TH1
  B:0098H.3       PUBLIC        TB8
  D:008BH         PUBLIC        TL1
  C:0911H         PUBLIC        uart_init
  B:0088H.6       PUBLIC        TR1
  C:0987H         PUBLIC        _uart_char_9
  C:08E1H         PUBLIC        _uart_set_baud
  D:00D0H         PUBLIC        PSW
  -------         PROC          UART_INIT
  C:0911H         LINE#         143
  C:0911H         LINE#         145
  C:0914H         LINE#         146
  C:0917H         LINE#         147
  C:091EH         LINE#         148
  C:092DH         LINE#         150
  C:0930H         LINE#         151
  C:0933H         LINE#         152
  C:0935H         LINE#         153
  C:0939H         LINE#         159
  C:093BH         LINE#         160
  C:093DH         LINE#         207
  -------         ENDPROC       UART_INIT
  -------         PROC          _UART_SET_IO
  D:0007H         SYMBOL        id
  X:0006H         SYMBOL        io
  C:0739H         LINE#         211
  C:073EH         LINE#         212
  C:0742H         LINE#         214
  C:0742H         LINE#         215
  C:0751H         LINE#         216
  C:076AH         LINE#         217
  C:0786H         LINE#         218
  C:0786H         LINE#         241
  C:0786H         LINE#         242
  -------         ENDPROC       _UART_SET_IO
  -------         PROC          _UART_SET_BAUD
  X:0006H         SYMBOL        id
  X:0007H         SYMBOL        baud
  -------         DO            
  D:0006H         SYMBOL        res
  -------         ENDDO         
  C:08E1H         LINE#         246
BL51 BANKED LINKER/LOCATER V6.22.2.0                                                  11/20/2022  19:13:51  PAGE 12


  C:08E6H         LINE#         248
  C:0904H         LINE#         249
  C:090BH         LINE#         251
  C:090BH         LINE#         253
  C:0910H         LINE#         257
  C:0910H         LINE#         282
  C:0910H         LINE#         283
  -------         ENDPROC       _UART_SET_BAUD
  -------         PROC          _UART_CHAR
  D:0007H         SYMBOL        id
  D:0005H         SYMBOL        ch
  C:09BFH         LINE#         287
  C:09BFH         LINE#         288
  C:09C3H         LINE#         290
  C:09C3H         LINE#         308
  C:09C7H         LINE#         309
  C:09C9H         LINE#         310
  C:09CCH         LINE#         311
  C:09CCH         LINE#         385
  C:09CCH         LINE#         386
  -------         ENDPROC       _UART_CHAR
  -------         PROC          _UART_CHAR_9
  D:0007H         SYMBOL        id
  D:0005H         SYMBOL        ch
  D:0003H         SYMBOL        bit9
  C:0987H         LINE#         390
  C:0987H         LINE#         391
  C:098BH         LINE#         393
  C:098BH         LINE#         394
  C:098EH         LINE#         395
  C:0992H         LINE#         396
  C:0994H         LINE#         397
  C:0998H         LINE#         398
  C:0998H         LINE#         399
  C:099CH         LINE#         400
  C:099EH         LINE#         401
  C:09A1H         LINE#         402
  C:09A1H         LINE#         440
  C:09A1H         LINE#         441
  -------         ENDPROC       _UART_CHAR_9
  -------         PROC          _UART_STRING
  D:0006H         SYMBOL        id
  X:000BH         SYMBOL        str
  C:08AAH         LINE#         445
  C:08B7H         LINE#         446
  C:08C7H         LINE#         447
  C:08DEH         LINE#         448
  C:08E0H         LINE#         449
  -------         ENDPROC       _UART_STRING
  -------         PROC          UART1_IT
  C:081EH         LINE#         468
  C:083BH         LINE#         469
  C:083EH         LINE#         470
  C:0840H         LINE#         475
  C:0843H         LINE#         477
  C:0843H         LINE#         478
  C:0846H         LINE#         479
BL51 BANKED LINKER/LOCATER V6.22.2.0                                                  11/20/2022  19:13:51  PAGE 13


  C:0848H         LINE#         480
  C:084AH         LINE#         484
  C:084AH         LINE#         485
  -------         ENDPROC       UART1_IT
  -------         ENDMOD        UART

  -------         MODULE        EXTI
  C:0000H         SYMBOL        _ICE_DUMMY_
  D:0080H         PUBLIC        P0
  D:0090H         PUBLIC        P1
  D:00A0H         PUBLIC        P2
  D:00B0H         PUBLIC        P3
  D:00C0H         PUBLIC        P4
  D:00C8H         PUBLIC        P5
  D:00E8H         PUBLIC        P6
  D:00F8H         PUBLIC        P7
  D:00A8H         PUBLIC        IE
  D:00B8H         PUBLIC        IP
  D:00D8H         PUBLIC        CCON
  D:0098H         PUBLIC        SCON
  D:0088H         PUBLIC        TCON
  D:00D0H         PUBLIC        PSW
  -------         ENDMOD        EXTI

  -------         MODULE        TIMER
  C:0000H         SYMBOL        _ICE_DUMMY_
  D:0080H         PUBLIC        P0
  D:0090H         PUBLIC        P1
  D:00A0H         PUBLIC        P2
  D:00B0H         PUBLIC        P3
  D:00C0H         PUBLIC        P4
  D:00C8H         PUBLIC        P5
  D:00E8H         PUBLIC        P6
  D:00F8H         PUBLIC        P7
  D:00A8H         PUBLIC        IE
  D:00B8H         PUBLIC        IP
  D:00D8H         PUBLIC        CCON
  D:0098H         PUBLIC        SCON
  D:0088H         PUBLIC        TCON
  D:00D0H         PUBLIC        PSW
  -------         ENDMOD        TIMER

  -------         MODULE        EEPROM
  C:0000H         SYMBOL        _ICE_DUMMY_
  D:0080H         PUBLIC        P0
  D:0090H         PUBLIC        P1
  D:00A0H         PUBLIC        P2
  D:00B0H         PUBLIC        P3
  D:00C0H         PUBLIC        P4
  D:00C8H         PUBLIC        P5
  D:00E8H         PUBLIC        P6
  D:00F8H         PUBLIC        P7
  D:00A8H         PUBLIC        IE
  D:00B8H         PUBLIC        IP
  D:00D8H         PUBLIC        CCON
  D:0098H         PUBLIC        SCON
  D:0088H         PUBLIC        TCON
BL51 BANKED LINKER/LOCATER V6.22.2.0                                                  11/20/2022  19:13:51  PAGE 14


  D:00D0H         PUBLIC        PSW
  -------         ENDMOD        EEPROM

  -------         MODULE        SPI
  C:0000H         SYMBOL        _ICE_DUMMY_
  D:0080H         PUBLIC        P0
  D:0090H         PUBLIC        P1
  D:00A0H         PUBLIC        P2
  D:00B0H         PUBLIC        P3
  D:00C0H         PUBLIC        P4
  D:00C8H         PUBLIC        P5
  D:00E8H         PUBLIC        P6
  D:00F8H         PUBLIC        P7
  D:00A8H         PUBLIC        IE
  D:00B8H         PUBLIC        IP
  D:00D8H         PUBLIC        CCON
  D:0098H         PUBLIC        SCON
  D:0088H         PUBLIC        TCON
  D:00D0H         PUBLIC        PSW
  -------         ENDMOD        SPI

  -------         MODULE        SOFT_SPI
  C:0000H         SYMBOL        _ICE_DUMMY_
  D:0080H         PUBLIC        P0
  D:0090H         PUBLIC        P1
  D:00A0H         PUBLIC        P2
  D:00B0H         PUBLIC        P3
  D:00C0H         PUBLIC        P4
  D:00C8H         PUBLIC        P5
  D:00E8H         PUBLIC        P6
  D:00F8H         PUBLIC        P7
  D:00A8H         PUBLIC        IE
  D:00B8H         PUBLIC        IP
  D:00D8H         PUBLIC        CCON
  D:0098H         PUBLIC        SCON
  D:0088H         PUBLIC        TCON
  D:00D0H         PUBLIC        PSW
  -------         ENDMOD        SOFT_SPI

  -------         MODULE        IIC
  C:0000H         SYMBOL        _ICE_DUMMY_
  D:0080H         PUBLIC        P0
  D:0090H         PUBLIC        P1
  D:00A0H         PUBLIC        P2
  D:00B0H         PUBLIC        P3
  D:00C0H         PUBLIC        P4
  D:00C8H         PUBLIC        P5
  D:00E8H         PUBLIC        P6
  D:00F8H         PUBLIC        P7
  D:00A8H         PUBLIC        IE
  D:00B8H         PUBLIC        IP
  D:00D8H         PUBLIC        CCON
  D:0098H         PUBLIC        SCON
  D:0088H         PUBLIC        TCON
  D:00D0H         PUBLIC        PSW
  -------         ENDMOD        IIC

BL51 BANKED LINKER/LOCATER V6.22.2.0                                                  11/20/2022  19:13:51  PAGE 15


  -------         MODULE        SOFT_IIC
  C:0000H         SYMBOL        _ICE_DUMMY_
  D:0080H         PUBLIC        P0
  D:0090H         PUBLIC        P1
  D:00A0H         PUBLIC        P2
  D:00B0H         PUBLIC        P3
  D:00C0H         PUBLIC        P4
  D:00C8H         PUBLIC        P5
  D:00E8H         PUBLIC        P6
  D:00F8H         PUBLIC        P7
  D:00A8H         PUBLIC        IE
  D:00B8H         PUBLIC        IP
  D:00D8H         PUBLIC        CCON
  D:0098H         PUBLIC        SCON
  D:0088H         PUBLIC        TCON
  D:00D0H         PUBLIC        PSW
  -------         ENDMOD        SOFT_IIC

  -------         MODULE        ADC
  C:0000H         SYMBOL        _ICE_DUMMY_
  D:0080H         PUBLIC        P0
  D:0090H         PUBLIC        P1
  D:00A0H         PUBLIC        P2
  D:00B0H         PUBLIC        P3
  D:00C0H         PUBLIC        P4
  D:00C8H         PUBLIC        P5
  D:00E8H         PUBLIC        P6
  D:00F8H         PUBLIC        P7
  D:00A8H         PUBLIC        IE
  D:00B8H         PUBLIC        IP
  D:00D8H         PUBLIC        CCON
  D:0098H         PUBLIC        SCON
  D:0088H         PUBLIC        TCON
  D:00D0H         PUBLIC        PSW
  -------         ENDMOD        ADC

  -------         MODULE        CMP
  C:0000H         SYMBOL        _ICE_DUMMY_
  D:0080H         PUBLIC        P0
  D:0090H         PUBLIC        P1
  D:00A0H         PUBLIC        P2
  D:00B0H         PUBLIC        P3
  D:00C0H         PUBLIC        P4
  D:00C8H         PUBLIC        P5
  D:00E8H         PUBLIC        P6
  D:00F8H         PUBLIC        P7
  D:00A8H         PUBLIC        IE
  D:00B8H         PUBLIC        IP
  D:00D8H         PUBLIC        CCON
  D:0098H         PUBLIC        SCON
  D:0088H         PUBLIC        TCON
  D:00D0H         PUBLIC        PSW
  -------         ENDMOD        CMP

  -------         MODULE        MDU16
  C:0000H         SYMBOL        _ICE_DUMMY_
  D:0080H         PUBLIC        P0
BL51 BANKED LINKER/LOCATER V6.22.2.0                                                  11/20/2022  19:13:51  PAGE 16


  D:0090H         PUBLIC        P1
  D:00A0H         PUBLIC        P2
  D:00B0H         PUBLIC        P3
  D:00C0H         PUBLIC        P4
  D:00C8H         PUBLIC        P5
  D:00E8H         PUBLIC        P6
  D:00F8H         PUBLIC        P7
  D:00A8H         PUBLIC        IE
  D:00B8H         PUBLIC        IP
  D:00D8H         PUBLIC        CCON
  D:0098H         PUBLIC        SCON
  D:0088H         PUBLIC        TCON
  D:00D0H         PUBLIC        PSW
  -------         ENDMOD        MDU16

  -------         MODULE        PCA
  C:0000H         SYMBOL        _ICE_DUMMY_
  D:0080H         PUBLIC        P0
  D:0090H         PUBLIC        P1
  D:00A0H         PUBLIC        P2
  D:00B0H         PUBLIC        P3
  D:00C0H         PUBLIC        P4
  D:00C8H         PUBLIC        P5
  D:00E8H         PUBLIC        P6
  D:00F8H         PUBLIC        P7
  D:00A8H         PUBLIC        IE
  D:00B8H         PUBLIC        IP
  D:00D8H         PUBLIC        CCON
  D:0098H         PUBLIC        SCON
  D:0088H         PUBLIC        TCON
  D:00D0H         PUBLIC        PSW
  -------         ENDMOD        PCA

  -------         MODULE        PWM
  C:0000H         SYMBOL        _ICE_DUMMY_
  D:0080H         PUBLIC        P0
  D:0090H         PUBLIC        P1
  D:00A0H         PUBLIC        P2
  D:00B0H         PUBLIC        P3
  D:00C0H         PUBLIC        P4
  D:00C8H         PUBLIC        P5
  D:00E8H         PUBLIC        P6
  D:00F8H         PUBLIC        P7
  D:00A8H         PUBLIC        IE
  D:00B8H         PUBLIC        IP
  D:00D8H         PUBLIC        CCON
  D:0098H         PUBLIC        SCON
  D:0088H         PUBLIC        TCON
  D:00D0H         PUBLIC        PSW
  -------         ENDMOD        PWM

  -------         MODULE        LCM
  C:0000H         SYMBOL        _ICE_DUMMY_
  D:0080H         PUBLIC        P0
  D:0090H         PUBLIC        P1
  D:00A0H         PUBLIC        P2
  D:00B0H         PUBLIC        P3
BL51 BANKED LINKER/LOCATER V6.22.2.0                                                  11/20/2022  19:13:51  PAGE 17


  D:00C0H         PUBLIC        P4
  D:00C8H         PUBLIC        P5
  D:00E8H         PUBLIC        P6
  D:00F8H         PUBLIC        P7
  D:00A8H         PUBLIC        IE
  D:00B8H         PUBLIC        IP
  D:00D8H         PUBLIC        CCON
  D:0098H         PUBLIC        SCON
  D:0088H         PUBLIC        TCON
  D:00D0H         PUBLIC        PSW
  -------         ENDMOD        LCM

  -------         MODULE        ?C?CLDPTR
  C:0230H         PUBLIC        ?C?CLDPTR
  -------         ENDMOD        ?C?CLDPTR

  -------         MODULE        ?C?ILDIX
  C:0249H         PUBLIC        ?C?ILDIX
  -------         ENDMOD        ?C?ILDIX

  -------         MODULE        ?C?LMUL
  C:025FH         PUBLIC        ?C?LMUL
  -------         ENDMOD        ?C?LMUL

  -------         MODULE        ?C?ULDIV
  C:02EAH         PUBLIC        ?C?ULDIV
  -------         ENDMOD        ?C?ULDIV

  -------         MODULE        ?C?LSTXDATA
  C:037CH         PUBLIC        ?C?LSTXDATA
  -------         ENDMOD        ?C?LSTXDATA

  -------         MODULE        ?C?LSTKXDATA
  C:0388H         PUBLIC        ?C?LSTKXDATA
  -------         ENDMOD        ?C?LSTKXDATA

  -------         MODULE        ?C?LIMUL
  C:03B9H         PUBLIC        ?C?LIMUL
  -------         ENDMOD        ?C?LIMUL

Program Size: data=13.1 xdata=14 code=2546
LINK/LOCATE RUN COMPLETE.  0 WARNING(S),  0 ERROR(S)
