:03000000020BBD33
:0C0BBD00787FE4F6D8FD758121020C045D
:1013540048656C6C6F2041726475696E6F2D5354CF
:09136400432E000D0A00000000F8
:100EE5006054000000000000000000FF000000004A
:100EF50000000000000000FF000000FF00000000EF
:100F050000000000000000FF000000FF00000000DE
:100F1500000000FF000000FF0000000000000000CE
:100F2500000000FF000000FF0000000000000000BE
:080F3500000000FF00000000B5
:0B0E2700900084EBF0A3EAF0A3E9F0D8
:100E32009000EF7401F0A37400F0A37487F09000A7
:100E420084E0F9A3E0FAA3E090012EC9F0A3EAF04E
:100E5200A3E9F09000EFE0F9A3E0FAA3E0900131FA
:100E6200C9F0A3EAF0A3E9F07B017A0079AF12118D
:100E7200219000EFE4F0A3F0A3F07B017A0079AFB8
:050E82007F01021235A2
:0100220022BB
:0B13AA0012138E1211F412136D80FB61
:0B0E8700900122EBF0A3EAF0A3E9F0D9
:100E9200E4FFEFC39403748094805046900122E0F3
:100EA200FBA3E0FAA3E0F98F8275830012049AFE95
:100EB2007D08ED602AEE30E714D2CD00000000007C
:100EC200000000000025E0FE1DC2CD80E5D2CD006D
:100ED2000000000000C2CD00EE25E0FE1D80D30F11
:020EE20080B0DE
:010EE40022EB
:0913C000007F027E8CDEFEDFFCE2
:0113C9002201
:0E0D580090011AEBF0A3EAF0A3E9F0A3EDF08E
:100D6600781F7C017D017BFF7A13796A7E007F0301
:100D760012045B1213C0E490011EF090011EE0FF06
:100D8600C3941074809480503490011DE0FEEFC32C
:100D96009E5019A3E075F003A4FF90011AE0FBA38F
:100DA600E0FAA3E02FF9EA35F0FA80067B017A0132
:100DB600791F120E8790011EE004F080BE0213C058
:1008E800ED75F00684900122F0E0FEEF8EF084FDB5
:1008F800A3F08EF0A4FEC3EF9EA3F0ED75F00CA458
:100908002400F582E43400F583E0F8A3E0F9A3E0DD
:10091800FAA3E0FB900123E075F00CA4240CF58207
:10092800E43400F583E0FCA3E0FDA3E0FEA3E0C30C
:100938009BFFEE9AFEED99FDEC98FCC00790012212
:10094800E0FBE4FAF9F8D0071211B0A804A905AA47
:1009580006AB07900124E0FFE4FCFDFE1204FFABA8
:1009680007900123E0FA75F00CA42400F582E43422
:1009780000F583A3A3A3E02B900125F0EA75F00C02
:10098800A42404F582E43400F583E0F8A3E0F9A395
:10099800E0FAA3E0FB900123E075F00CA42410F525
:1009A80082E43400F583E0FCA3E0FDA3E0FEA3E0CD
:1009B800C39BFFEE9AFEED99FDEC98FCC0079001F1
:1009C80022E0FBE4FAF9F8D0071211B0A804A9054F
:1009D800AA06AB07900124E0FFE4FCFDFE1204FF29
:1009E800AB07900123E0FA75F00CA42404F582E427
:1009F8003400F583A3A3A3E02B900126F0EA75F059
:100A08000CA42408F582E43400F583E0F8A3E0F9A7
:100A1800A3E0FAA3E0FB900123E075F00CA42414F2
:100A2800F582E43400F583E0FCA3E0FDA3E0FEA337
:100A3800E0C39BFFEE9AFEED99FDEC98FCC0079091
:100A48000122E0FBE4FAF9F8D0071211B0A804A9D2
:100A580005AA06AB07900124E0FFE4FCFDFE1204A2
:100A6800FFAB07900123E075F00CA42408F582E49D
:100A78003400F583A3A3A3E02B900127F07B017A30
:030A8800017925CC
:010A8B002248
:0E0C490090011AEBF0A3EAF0A3E9F0A3EDF09E
:100C5700E4A3F090011DE075F003A4FFA3E0C39F98
:0A0C6700E5F06480F8748098506096
:100C7100E075F00384FF7D121208E8781F7C017D86
:100C8100017E007F0312045B90011FE0FF90011AB7
:100C9100E0FBA3E0FAA3E0F990011EE0FEF5827506
:100CA1008300EF1204C7900120E0FFEEF582758307
:100CB10000A3EF1204C7900121E0FFEEF5827583D6
:070CC10000A3A3EF1204C71A
:090CC80090011EE02403F0808974
:010CD1002200
:1011F4007D037F551206DE12129C90011B120628F5
:101204000001C2007F0112126C7F4C7E04120003A5
:101214007BFF7A1379547F011212357BFF7A13799D
:10122400677F011212357B017A0079547D10020C1C
:011234004970
:10136D007B017A0079547D10120D587FE87E0302BF
:02137D0000036B
:050F3D004201280960DB
:10000300EF4E601A900128E0FCA3E0FDED1D7001A6
:0E0013001C144C70F7EF1F70011E144E70E6A7
:0100210022BC
:0A13B500EF1FAC0670011E4C70F62D
:0113BF00220B
:1012F000900128E0FCA3E0FD120659E47B83FAF993
:10130000F81204FF90012A12061C90012AE0C31370
:06131000FEA3E013FF2222
:10131600E50E6599600885990EE4F50D8002050DC8
:10132600AF0DC3EF94E97480948040060075C760E2
:0313360000002292
:0E138E0043BA80E4F50EF50D12129CD2AF2288
:0813CA0001020408102040801C
:0F137F00EF54F0F50FEF540F9013CA93F51022AF
:100B3000EF540FD39407748094804003020BBC12CF
:100B4000137FE50F24F0602424F0602A24F0603045
:100B500024F0603624F0603C24F0604224F06048C9
:100B600024707058ED90FE1060498042ED90FE11A7
:100B70006002803A803DED90FE126002803080334A
:100B8000ED90FE13600280268029ED90FE14600235
:100B9000801C801FED90FE15600280128015ED9084
:100BA000FE1660028008800BED90FE176005E045A0
:0D0BB00010F022E0FFE510F4FEEF5EF022F1
:1006DE00EF540FD394077480948040030208E712FE
:1006EE00137FED706EAF0FFEEF7007E510F45293AF
:1006FE005294EF64104E7007E510F452915292E549
:10070E000F64207007E510F452955296AF0F7E00DD
:10071E00EF64307007E510F452B152B2EF64404E00
:10072E007007E510F452B352B4E50F64507007E54C
:10073E0010F452C952CAAF0F7E00EF64607007E525
:10074E0010F452CB52CCEF64704E7007E510F45299
:10075E00E152E2ED640160030207E7AF0FFEEF70B6
:10076E0009E5104293E510F45294EF64104E7009AF
:10077E00E5104291E510F45292E50F64207009E500
:10078E00104295E510F45296AF0F7E00EF64307074
:10079E0009E51042B1E510F452B2EF64404E700913
:1007AE00E51042B3E510F452B4E50F64507009E55C
:1007BE001042C9E510F452CAAF0F7E00EF646070AC
:1007CE0009E51042CBE510F452CCEF64704E70097F
:1007DE00E51042E1E510F452E2EDFF7E0064027096
:1007EE0071E50FFB7A007008E5104293E510429414
:1007FE00EB64104A7008E5104291E5104292EB64EA
:10080E00204A7008E5104295E5104296EB64304A96
:10081E007008E51042B1E51042B2EB64404A700830
:10082E00E51042B3E51042B4EB64504A7008E5108F
:10083E0042C9E51042CAEB64604A7008E51042CB2B
:10084E00E51042CCEB64704A7008E51042E1E51009
:10085E0042E2EF64034E60030208E7AF0FFEEF7053
:10086E0009E510F45293E5104294EF64104E7009AE
:10087E00E510F45291E5104292E50F64207009E5FF
:10088E0010F45295E5104296AF0F7E00EF64307073
:10089E0009E510F452B1E51042B2EF64404E700912
:1008AE00E510F452B3E51042B4E50F64507009E55B
:1008BE0010F452C9E51042CAAF0F7E00EF646070AB
:1008CE0009E510F452CBE51042CCEF64704E70097E
:0A08DE00E510F452E1E51042E222B9
:10116B00EFFB7A0070028D80EB64014A70028D9068
:10117B00EF640270028DA0EFFB7A00640370028DA6
:10118B00B0EB64044A70028DC0EF640570028DC829
:10119B00EFFB7A00640670028DE8EB64074A70047B
:0511AB00AF058FF822E2
:100FA100EFFD7C007003AF8022ED64014C7003AF54
:100FB1009022EFFD7C0064027003AFA022ED640378
:100FC1004C7003AFB022EFFD7C0064047003AFC02E
:100FD10022ED64054C7003AFC822EFFD7C0064066E
:100FE1007003AFE822ED64074C7003AFF8227FFF76
:010FF10022DD
:100A8C00EF540FD39407748094804003020B2F1201
:100A9C00137FE50F24F0602A24F0603424F0603ECC
:100AAC0024F0604824F0605224F0605C24F060660E
:100ABC002470706FED6005E510428022E510F45251
:100ACC008022ED6005E510429022E510F452902250
:100ADC00ED6005E51042A022E510F452A022ED6075
:100AEC0005E51042B022E510F452B022ED6005E5A8
:100AFC001042C022E510F452C022ED6005E5104210
:100B0C00C822E510F452C822ED6005E51042E82237
:100B1C00E510F452E822ED6005E51042F822E510EC
:040B2C00F452F82265
:100F4300EF540FD394077480948040037F012212DF
:100F5300137FE50FFD7C007002AE80ED64104C70D2
:100F630002AE90ED64204C7002AEA0ED64304C7084
:100F730002AEB0ED64404C7002AEC0ED64504C70F4
:100F830002AEC8ED64604C7002AEE8ED64704C7064
:0D0F930002AEF8E5105E60037F01227F00D2
:010FA000222E
:100DC600EF540FD3940774809480505412137FAF5E
:100DD6000F7E00EF7004E5106280EF64104E700421
:100DE600E5106290EF64204E7004E51062A0EF6497
:100DF600304E7004E51062B0EF64404E7004E510AA
:100E060062C0EF64504E7004E51062C8EF64604E35
:100E16007004E51062E8EF64704E7004E51062F845
:010E260022A9
:10108C00EFFB7A007003ED6280EB64014A7003EDB4
:10109C006290EF64027003ED62A0EFFB7A006403D0
:1010AC007003ED62B0EB64044A7003ED62C0EF6450
:1010BC00057003ED62C8EFFB7A0064067003ED6205
:0B10CC00E8EB64074A7003ED62F822B5
:100CD200EF700CEB6005ED42808004EDF45280EF82
:100CE2006401700CEB6005ED42908004EDF45290CB
:100CF200EF6402700CEB6005ED42A08004EDF4524B
:100D0200A0EF6403700CEB6005ED42B08004EDF4DB
:100D120052B0EF6404700CEB6005ED42C08004ED4C
:100D2200F452C0EF6405700CEB6005ED42C880041C
:100D3200EDF452C8EF6406700CEB6005ED42E880FA
:100D420004EDF452E8EF6407700BEB6004ED42F837
:060D520022EDF452F8222C
:101040007EFFEFFB7A007002AE80EB64014A700213
:10105000AE90EB64024A7002AEA0EB64034A7002E9
:10106000AEB0EB64044A7002AEC0EB64054A700295
:10107000AEC8EB64064A7002AEE8EB64074A700241
:0B108000AEF8EE5D60037F01227F00F0
:01108B002242
:0813D200303136371617434491
:10129C00759850538EDEE4FD7F01120FF290011B06
:1012AC001206280001C2007F0112126C438E4053BB
:0D12BC00890FC2ABC28FD28EC209D2AC2204
:100FF20090011AEDF0EF14704490011AE0FF54C012
:10100200FEE5A2543F4EF5A2EFC41313540325E0AC
:1010120024D2F582E43413F583E493FFE4FD12064F
:10102200DE90011AE0C41313540325E024D3F582A1
:0E103200E43413F583E493FF7D031206DE22FF
:05126C0090011AEFF0F3
:10127100A3E0F8A3E0F9A3E0FAA3E0FB7F807E8D71
:101281007D5B7C0012058AC3E49FFFE49EFE900112
:0A1291001AE01470058F8BEEF58D46
:01129B002230
:0E139C00EF147009AF058F99D2092009FD22C8
:10133900EF147016EB6006D29BD29B8004C29BC24D
:0B1349009BAF058F99D2092009FD22FF
:1012350090011AEBF0A3EAF0A3E9F0AE0790011ACA
:10124500E0FBA3E0FAA3E0F91204816019AF069070
:10125500011AA3E475F0011204E9A9F0FA12048158
:07126500FD12139C80D7224B
:030023000210D7F1
:1010D700C0E0C0F0C083C082C0D075D000C000C0DF
:1010E70001C002C003C004C005C006C0073098088D
:1010F700C298120022121316309904C299C209D05D
:1011070007D006D005D004D003D002D001D000D03C
:0A111700D0D082D083D0F0D0E032B7
:100BC9000213AAE493A3F8E493A34003F68001F285
:100BD90008DFF48029E493A3F85407240CC8C3332D
:100BE900C4540F4420C8834004F456800146F6DFFC
:100BF900E4800B0102040810204080900EE5E47E99
:100C0900019360BCA3FF543F30E509541FFEE493F0
:100C1900A360010ECF54C025E060A840B8E493A3B7
:100C2900FAE493A3F8E493A3C8C582C8CAC583CAE2
:100C3900F0A3C8C582C8CAC583CADFE9DEE780BE9A
:010F420000AE
:10038B00E709F608DFFA8046E709F208DFFA803E54
:10039B0088828C83E709F0A3DFFA8032E309F60841
:1003AB00DFFA8078E309F208DFFA807088828C83A9
:1003BB00E309F0A3DFFA806489828A83E0A3F6085D
:1003CB00DFFA805889828A83E0A3F208DFFA804C37
:1003DB0080D280FA80C680D4806980F2803380100E
:1003EB0080A680EA809A80A880DA80E280CA803377
:1003FB0089828A83ECFAE493A3C8C582C8CCC583EF
:10040B00CCF0A3C8C582C8CCC583CCDFE9DEE780BE
:10041B000D89828A83E493A3F608DFF9ECFAA9F03D
:10042B00EDFB2289828A83ECFAE0A3C8C582C8CC93
:10043B00C583CCF0A3C8C582C8CCC583CCDFEADEAC
:10044B00E880DB89828A83E493A3F208DFF980CC0E
:10045B0088F0EF60010E4E60C388F0ED2402B40407
:10046B000050B9F582EB2402B4040050AF232345AE
:06047B0082239003DB73F5
:10048100BB010689828A83E0225002E722BBFE0279
:09049100E32289828A83E49322AC
:10049A00BB010CE58229F582E5833AF583E0225017
:1004AA0006E92582F8E622BBFE06E92582F8E22261
:0D04BA00E58229F582E5833AF583E493227B
:1004C700F8BB010DE58229F582E5833AF583E8F06B
:1004D700225006E92582C8F622BBFE05E92582C817
:0204E700F222FF
:1004E900A3F8E0C5F025F0F0E582158270021583C6
:0604F900E0C838F0E82223
:1004FF00E88FF0A4CC8BF0A42CFCE98EF0A42CFC9C
:10050F008AF0EDA42CFCEA8EF0A4CDA8F08BF0A419
:10051F002DCC3825F0FDE98FF0A42CCD35F0FCEB78
:10052F008EF0A4FEA9F0EB8FF0A4CFC5F02ECD393D
:0F053F00FEE43CFCEAA42DCE35F0FDE43CFC22AA
:10054E0075F008758200EF2FFFEE33FECD33CDCC64
:10055E0033CCC58233C5829BED9AEC99E5829840E7
:10056E000CF582EE9BFEED9AFDEC99FC0FD5F0D6C4
:10057E00E4CEFBE4CDFAE4CCF9A88222B800C1B9EE
:10058E000059BA002DEC8BF084CFCECDFCE5F0CB2C
:10059E00F97818EF2FFFEE33FEED33FDEC33FCEB65
:1005AE0033FB10D703994004EB99FB0FD8E5E4F920
:1005BE00FA227818EF2FFFEE33FEED33FDEC33FC0D
:1005CE00C933C910D7059BE99A4007EC9BFCE99A01
:1005DE00F90FD8E0E4C9FAE4CCFB2275F010EF2F46
:1005EE00FFEE33FEED33FDCC33CCC833C810D70746
:1005FE009BEC9AE899400AED9BFDEC9AFCE899F881
:0E060E000FD5F0DAE4CDFBE4CCFAE4C8F92213
:1011B000C2D5E830E70FB2D5E4C39BFBE49AFAE46A
:1011C00099F9E498F8EC30E717B2D51211E6120558
:1011D0008AE4C39BFBE49AFAE499F9E498F8800363
:1011E00012058A30D50DE4C39FFFE49EFEE49DFD09
:0411F000E49CFC225D
:0C061C00ECF0A3EDF0A3EEF0A3EFF02251
:10062800A8828583F0D083D08212063F12063F123B
:10063800063F12063FE473E493A3C583C5F0C58360
:10064800C8C582C8F0A3C583C5F0C583C8C582C81C
:01065800227F
:10065900EC8EF0A4CCC5F0CCCDF8EFA4CEC5F02D2E
:10066900FDE43CFCE8A42EC8C5F03DFDE43CFCEFEC
:0D067900A4FFE5F028FEE43DFDE43CFC227A
:1011210090012EE0FFA3E0FEA3E0CF9000F5F0A335
:10113100EEF0A3EFF0900131E0CBF0A3E0CAF0A311
:10114100E0C9F07F229000F8AD82AC831204818D5A
:10115100828C83F0A309E970010ADFEC900131E090
:0A116100FBA3E0FAA3E0F902008B03
:10002600E50824F5F582E43400F583E0050822901E
:1000360000F23007039000F5E475F001120698020D
:1000460004812000E97F2ED2008018EF540F2490FF
:10005600D43440D4FF30040BEF24BFB41A0050034D
:100066002461FFE50960021509050CE50C7002051F
:100076000B30070E9000F2E475F001120698EF02BD
:1000860006860212C97403D2078003E4C207F50884
:100096009000F21206AFE4F509F50BF50CE50960E0
:1000A600077F2012006980F5750AFFC201C200C2EF
:1000B60002C203C205C206C208120035FF700D3027
:1000C60007057F0012007AAF0CAE0B22B4255FC283
:1000D600D5C204120035FF24D0B40A00501A75F0B8
:1000E6000A780930D50508B6FF0106C6A426F6200B
:1000F600D5047002D20380D924CFB41A00EF50047D
:10010600C2E5D20402027BD20180C6D20080C0D2F0
:100116000280BCD2D580BAD20580B47F2012006995
:100126002002077401B5090040F1120026FF1200F3
:10013600690200A3D208D2068095120026FB12009F
:1001460026FA120026F94A4B7006794C7A037BFF91
:1001560020022EE509602A7E008E82758300120435
:100166009A60060EEE650A70F0C2D5EBC0E0EAC0F2
:10017600E0E9C0E0EE1202C2D0E0F9D0E0FAD0E049
:10018600FB120481FF60AAEBC0E0EAC0E0E9C0E030
:10019600120069D0E02401F9D0E03400FAD0E0FB87
:1001A600E50A0460DCD50AD980877BFF7A0279BE2E
:1001B600D202809C791080027908C206C2088008A3
:1001C600D2D5790A8004790AC2D5E50A047002F507
:1001D6000AE4FAFDFEFF120026FC7B08200113123A
:1001E6000026FD7B1030000A120026FE120026FFB4
:1001F6007B20EC3382D592D55013C3E43000069FA2
:10020600FFE49EFEE42001039DFDE49CFCE4CBF8A4
:10021600C201EC700CCFCECDCCE824F8F870F38098
:1002260017C3EF33FFEE33FEED33FDEC33FCEB3358
:10023600FB994002FB0FD8E9EB300105F8D0E0C48A
:1002460048B201C0E00AEC4D4E4F78207B0070C2E8
:10025600EAB50A0040BCC0E01202C4D0F0D0E020EB
:100266000104C4C0E0C4B201C0F0120052D0F0D5FF
:10027600F0EB0200A31206B801405301BA5801116F
:100286004C010D4201BE4F01C64401C64901264339
:0802960001CC5501B04601B096
:10029E004501B047036C5001152D01192E013C2B61
:1002AE00011D23013A2003552A00D54800000134D0
:1002BE003F3F3F00790AA2D5200314300509B9103B
:1002CE00020404B9080104A2D5200602500104203C
:1002DE0002689202B509005034C0E07F2030031945
:1002EE007F30A20272067205500F12031BC202C2A9
:1002FE0006C205C2087F30800F300503E9C0E01248
:10030E000069300503D0E0F9D0E0B509CC3005170F
:10031E007F30B9100C1200697F583004077F788047
:10032E0003B908031200693002057F2D0200697FB0
:10033E00202008F87F2B2006F322920280CF286E11
:10034E00756C6C2900D2011200263001F8C20178BA
:10035E000930D50108F60200D52D50434958120038
:10036E00262403B405004001E49003679312005A5B
:0D037E00743A12005AD2037509040201BA44
:10068600BB010689828A83F0225002F722BBFE0153
:02069600F3224D
:10069800F8E0FBA3A3E0F925F0F0E58215827002EB
:0706A8001583E0FA38F0228F
:0906AF00EBF0A3EAF0A3E9F0224C
:1006B800D083D082F8E4937012740193700DA3A3D1
:1006C80093F8740193F5828883E4737402936860E5
:0606D800EFA3A3A380DFE5
:1012C900EFB40A07740D1212D4740A309811A89950
:1012D900B8130CC2983098FDA899C298B811F63085
:0712E90099FDC299F599225D
:00000001FF
