:0300000002079E56
:0C079E00787FE4F6D8FD7581200207E5A5
:1000030048656C6C6F2041726475696E6F2D535433
:10001300432E000D0A000D0A4368697049443A00F3
:010D100022C0
:0B0CE400120CC8120BDA120B3480FB5C
:0D04AB00900003EDF0900001EEF0A3EFF0E3
:1004B800E4900004F0A3EEF0A3EFF07B017A00795A
:1004C80027900028EBF0A3EAF0A3E9F0E412003F3C
:1004D800900001E0FEA3E0FFD39400EE64809480D6
:1004E8004002800F900001E0FEA3E0FFC3E49FFFFD
:1004F800E49EFE900001EEF0A3EFF0A3E0C39402A7
:09050800748094805003740AF021
:10051100900003E0FB900001E0FEA3E0FFAD037C4F
:100521000012006390002BEDF0900001E0FEA3E0CB
:10053100FFAD037C00120063900001EEF0A3EFF029
:1005410090002BE0FFFD3395E0FCC3ED940AEC64D1
:100551008094805006EF2430FF800790002BE02428
:1005610037FF900028E0FBA374FFF5F0120099A972
:0C057100F0FAEF12003F900004E004F0EC
:10057D00900001E07002A3E0708A900003E0641027
:10058D00701DA3E0540164017015900028E0FBA3D9
:10059D0074FFF5F0120099A9F0FA743012003F9033
:1005AD000003E0640A7020C3900005E0648094802D
:1005BD005015900028E0FBA374FFF5F0120099A9E7
:1005CD00F0FA742D12003F900028E0FBA3E0FAA38F
:0205DD00E0F943
:0105DF0022F9
:10068400E4900032F0A3F0A3F0120026B42D0890F9
:1006940000347401F08053120026FF3395E0FEC34A
:1006A400EF9430EE648094804047D3EF9439EE6445
:1006B400809480503C900032E0FEA3E0FF7C007DFB
:1006C4000A120051900032EEF0A3EFF0120026FF60
:1006D4003395E0FEEF24D0FFEE34FFFE900033E0CC
:1006E4002FF0900032E03EF0740129F9E43AFA80E8
:1006F400A6900034E0900032600DE0FEA3E0FFC35A
:0C070400E49FFFE49EFE22E0FEA3E0FF65
:0107100022C6
:100BDA00120C099000011201EE0001C2007F0112FD
:100BEA000BAA7FDC7E05120C7F7BFF7A0079037FDC
:0F0BFA0001120B737BFF7A0079167F01020B73D8
:100B34007BFF7A0079197F01120B73E4900000F0B7
:100B4400900000E0FFC3940774809480501AEF90E3
:100B54001FF993FF7E007D101204AB7F01120B730B
:0F0B6400900000E004F080D87FE87E03020C7F51
:050D0A0042002C09600D
:100C7F00EF4E601A90002CE0FCA3E0FDED1D70011B
:0E0C8F001C144C70F7EF1F70011E144E70E61F
:010C9D002234
:0A0CEF00EF1FAC0670011E4C70F6FA
:010CF90022D8
:100C360090002CE0FCA3E0FD12021FE47B83FAF98E
:100C4600F81200C590002E1201E290002EE0C313A8
:060C5600FEA3E013FF22E3
:100C5C00E50965996008859909E4F508800205089D
:100C6C00AF08C3EF94E97480948040060075C760A8
:030C7C0000002253
:0E0CC80043BA80E4F509F508120C09D2AF22F8
:080CFA000102040810204080F3
:0F0CB900EF54F0F50AEF540F900CFA93F50B225D
:10071100EF540FD3940774809480400302079D1215
:100721000CB9E50A24F0602424F0602A24F060303A
:1007310024F0603624F0603C24F0604224F06048EC
:1007410024707058ED90FE1060498042ED90FE11CA
:100751006002803A803DED90FE126002803080336D
:10076100ED90FE13600280268029ED90FE14600258
:10077100801C801FED90FE15600280128015ED90A7
:10078100FE1660028008800BED90FE176005E045C3
:0D0791000BF022E0FFE50BF4FEEF5EF0221E
:1002A100EF540FD394077480948040030204AA1280
:1002B1000CB9ED706EAF0AFEEF7007E50BF45293C7
:1002C1005294EF64104E7007E50BF452915292E58F
:1002D1000A64207007E50BF452955296AF0A7E002E
:1002E100EF64307007E50BF452B152B2EF64404E47
:1002F1007007E50BF452B352B4E50A64507007E598
:100301000BF452C952CAAF0A7E00EF64607007E570
:100311000BF452CB52CCEF64704E7007E50BF452E4
:10032100E152E2ED640160030203AAAF0AFEEF703D
:1003310009E50B4293E50BF45294EF64104E7009FA
:10034100E50B4291E50BF45292E50A64207009E550
:100351000B4295E50BF45296AF0A7E00EF643070C4
:1003610009E50B42B1E50BF452B2EF64404E70095E
:10037100E50B42B3E50BF452B4E50A64507009E5AC
:100381000B42C9E50BF452CAAF0A7E00EF646070FC
:1003910009E50B42CBE50BF452CCEF64704E7009CA
:1003A100E50B42E1E50BF452E2EDFF7E00640270E1
:1003B10071E50AFB7A007008E50B4293E50B429464
:1003C100EB64104A7008E50B4291E50B4292EB6435
:1003D100204A7008E50B4295E50B4296EB64304AE2
:1003E1007008E50B42B1E50B42B2EB64404A70087C
:1003F100E50B42B3E50B42B4EB64504A7008E50BE0
:1004010042C9E50B42CAEB64604A7008E50B42CB76
:10041100E50B42CCEB64704A7008E50B42E1E50B59
:1004210042E2EF64034E60030204AAAF0AFEEF70DA
:1004310009E50BF45293E50B4294EF64104E7009F9
:10044100E50BF45291E50B4292E50A64207009E54F
:100451000BF45295E50B4296AF0A7E00EF643070C3
:1004610009E50BF452B1E50B42B2EF64404E70095D
:10047100E50BF452B3E50B42B4E50A64507009E5AB
:100481000BF452C9E50B42CAAF0A7E00EF646070FB
:1004910009E50BF452CBE50B42CCEF64704E7009C9
:0A04A100E50BF452E1E50B42E22204
:100AEF00EFFB7A0070028D80EB64014A70028D90EB
:100AFF00EF640270028DA0EFFB7A00640370028D29
:100B0F00B0EB64044A70028DC0EF640570028DC8AB
:100B1F00EFFB7A00640670028DE8EB64074A7004FD
:050B2F00AF058FF82264
:10096F00EFFD7C007003AF8022ED64014C7003AF8C
:10097F009022EFFD7C0064027003AFA022ED6403B0
:10098F004C7003AFB022EFFD7C0064047003AFC066
:10099F0022ED64054C7003AFC822EFFD7C006406A6
:1009AF007003AFE822ED64074C7003AFF8227FFFAE
:0109BF002215
:1005E000EF540FD394077480948040030206831263
:1005F0000CB9E50A24F0602A24F0603424F0603E4F
:1006000024F0604824F0605224F0605C24F06066BE
:100610002470706FED6005E50B428022E50BF4520B
:100620008022ED6005E50B429022E50BF45290220A
:10063000ED6005E50B42A022E50BF452A022ED602F
:1006400005E50B42B022E50BF452B022ED6005E562
:100650000B42C022E50BF452C022ED6005E50B42CF
:10066000C822E50BF452C822ED6005E50B42E822F2
:10067000E50BF452E822ED6005E50B42F822E50BAC
:04068000F452F82216
:10091100EF540FD394077480948040037F01221217
:100921000CB9E50AFD7C007002AE80ED64104C70DC
:1009310002AE90ED64204C7002AEA0ED64304C70BC
:1009410002AEB0ED64404C7002AEC0ED64504C702C
:1009510002AEC8ED64604C7002AEE8ED64704C709C
:0D09610002AEF8E50B5E60037F01227F000F
:01096E002266
:1008B000EF540FD39407748094805054120CB9AF46
:1008C0000A7E00EF7004E50B6280EF64104E700446
:1008D000E50B6290EF64204E7004E50B62A0EF64BC
:1008E000304E7004E50B62B0EF64404E7004E50BCF
:1008F00062C0EF64504E7004E50B62C8EF64604E56
:100900007004E50B62E8EF64704E7004E50B62F86A
:0109100022C4
:100A5A00EFFB7A007003ED6280EB64014A7003EDEC
:100A6A006290EF64027003ED62A0EFFB7A00640308
:100A7A007003ED62B0EB64044A7003ED62C0EF6488
:100A8A00057003ED62C8EFFB7A0064067003ED623D
:0B0A9A00E8EB64074A7003ED62F822ED
:10082A00EF700CEB6005ED42808004EDF45280EF2E
:10083A006401700CEB6005ED42908004EDF4529077
:10084A00EF6402700CEB6005ED42A08004EDF452F7
:10085A00A0EF6403700CEB6005ED42B08004EDF488
:10086A0052B0EF6404700CEB6005ED42C08004EDF9
:10087A00F452C0EF6405700CEB6005ED42C88004C9
:10088A00EDF452C8EF6406700CEB6005ED42E880A7
:10089A0004EDF452E8EF6407700BEB6004ED42F8E4
:0608AA0022EDF452F822D9
:100A0E007EFFEFFB7A007002AE80EB64014A70024B
:100A1E00AE90EB64024A7002AEA0EB64034A700221
:100A2E00AEB0EB64044A7002AEC0EB64054A7002CD
:100A3E00AEC8EB64064A7002AEE8EB64074A700279
:0B0A4E00AEF8EE5D60037F01227F0028
:010A5900227A
:080D0200303136371617434467
:100C0900759850538EDEE4FD7F011209C0900001F2
:100C19001201EE0001C2007F01120BAA438E40535C
:0D0C2900890FC2ABC28FD28EC200D2AC22A6
:1009C000900000EDF0EF147044900000E0FF54C080
:1009D000FEE5A2543F4EF5A2EFC41313540325E0E5
:1009E0002402F582E4340DF583E493FFE4FD120262
:1009F000A1900000E0C41313540325E02403F58202
:0E0A0000E4340DF583E493FF7D031202A1227E
:050BAA00900000EFF0D7
:100BAF00A3E0F8A3E0F9A3E0FAA3E0FB7F807E8D3A
:100BBF007D5B7C00120150C3E49FFFE49EFE90001A
:0A0BCF0000E01470058F8BEEF58D29
:010BD90022F9
:0E0CD600EF147009AF058F99D2002000FD22A7
:100C9E00EF147016EB6006D29BD29B8004C29BC2EF
:0B0CAE009BAF058F99D2002000FD22B3
:100B7300900001EBF0A3EAF0A3E9F0AE07900001C7
:100B8300E0FBA3E0FAA3E0F91200266019AF069098
:100B93000001A3E475F0011200AFA9F0FA120026D8
:070BA300FD120CD680D722E1
:03002300020AA529
:100AA500C0E0C0F0C083C082C0D075D000C000C017
:100AB50001C002C003C004C005C006C007309808C5
:100AC500C298120D10120C5C309904C299C200D064
:100AD50007D006D005D004D003D002D001D000D075
:0A0AE500D0D082D083D0F0D0E032F0
:1007AA00020CE4E493A3F8E493A34003F68001F275
:1007BA0008DFF48029E493A3F85407240CC8C33350
:1007CA00C4540F4420C8834004F456800146F6DF1F
:1007DA00E4800B0102040810204080900D0AE47E98
:1007EA00019360BCA3FF543F30E509541FFEE49314
:1007FA00A360010ECF54C025E060A840B8E493A3DB
:10080A00FAE493A3F8E493A3C8C582C8CAC583CA05
:10081A00F0A3C8C582C8CAC583CADFE9DEE780BEBD
:010D0F0000E3
:10002600BB010689828A83E0225002E722BBFE02D8
:09003600E32289828A83E493220B
:10003F00BB010689828A83F0225002F722BBFE01A0
:02004F00F3229A
:10005100EF8DF0A4A8F0CF8CF0A428CE8DF0A42EC3
:02006100FE227D
:10006300C2D5EC30E709B2D5E4C39DFDE49CFCEEB8
:1000730030E715B2D5E4C39FFFE49EFE12024CC3E2
:10008300E49DFDE49CFC800312024C30D507C3E4DD
:060093009FFFE49EFE2227
:10009900C5F0F8A3E028F0C5F0F8E58215827002F2
:0600A9001583E038F0228F
:1000AF00A3F8E0C5F025F0F0E58215827002158304
:0600BF00E0C838F0E82261
:1000C500E88FF0A4CC8BF0A42CFCE98EF0A42CFCDA
:1000D5008AF0EDA42CFCEA8EF0A4CDA8F08BF0A458
:1000E5002DCC3825F0FDE98FF0A42CCD35F0FCEBB7
:1000F5008EF0A4FEA9F0EB8FF0A4CFC5F02ECD397C
:0F010500FEE43CFCEAA42DCE35F0FDE43CFC22E8
:1001140075F008758200EF2FFFEE33FECD33CDCCA2
:1001240033CCC58233C5829BED9AEC99E582984025
:100134000CF582EE9BFEED9AFDEC99FC0FD5F0D602
:10014400E4CEFBE4CDFAE4CCF9A88222B800C1B92C
:100154000059BA002DEC8BF084CFCECDFCE5F0CB6A
:10016400F97818EF2FFFEE33FEED33FDEC33FCEBA3
:1001740033FB10D703994004EB99FB0FD8E5E4F95E
:10018400FA227818EF2FFFEE33FEED33FDEC33FC4B
:10019400C933C910D7059BE99A4007EC9BFCE99A3F
:1001A400F90FD8E0E4C9FAE4CCFB2275F010EF2F84
:1001B400FFEE33FEED33FDCC33CCC833C810D70784
:1001C4009BEC9AE899400AED9BFDEC9AFCE899F8BF
:0E01D4000FD5F0DAE4CDFBE4CCFAE4C8F92252
:0C01E200ECF0A3EDF0A3EEF0A3EFF02290
:1001EE00A8828583F0D083D08212020512020512F6
:1001FE000205120205E473E493A3C583C5F0C5831B
:10020E00C8C582C8F0A3C583C5F0C583C8C582C85A
:01021E0022BD
:10021F00EC8EF0A4CCC5F0CCCDF8EFA4CEC5F02D6C
:10022F00FDE43CFCE8A42EC8C5F03DFDE43CFCEF2A
:0D023F00A4FFE5F028FEE43DFDE43CFC22B8
:10024C00BC000BBE0029EF8DF084FFADF022E4CC96
:10025C00F875F008EF2FFFEE33FEEC33FCEE9DEC5F
:10026C00984005FCEE9DFE0FD5F0E9E4CEFD22EDA5
:10027C00F8F5F0EE8420D21CFEADF075F008EF2FEF
:10028C00FFED33FD4007985006D5F0F222C398FDE0
:05029C000FD5F0EA227D
:00000001FF
