:03000000020F05E7
:0C0F0500787FE4F6D8FD758121020F4CC6
:10152B0048656C6C6F2041726475696E6F2D5354F6
:10153B00432E000D0A0050312E303D2575202C56C0
:0C154B006F6C746167653D25660D0A0039
:0B10DE00900000EBF0A3EAF0A3E9F0A3
:1010E90090006B7401F0A37400F0A37403F09000F6
:1010F90000E0F9A3E0FAA3E090006EC9F0A3EAF0DA
:10110900A3E9F090006BE0F9A3E0FAA3E090007185
:10111900C9F0A3EAF0A3E9F07B017A00792B121355
:101129006790006BE4F0A3F0A3F07B017A00792BC0
:051139007F01021438E3
:0100220022BB
:0E1643001216511215571214CF12128780FB87
:1014CF001214FE9000011206A30001C2007F011248
:1014DF00146F7FDC7E051200037BFF7A15792B7F5B
:0F14EF00011214387BFF7A15793E7F0102143801
:101287007F1012149FC007C0067F1012149FAC0670
:10129700AD07E41201D1E4FBFA79A07840120026E9
:1012A7007B007AC0797F784412012F9000051206DF
:1012B70097900003D0E0F0A3D0E0F07BFF7A157998
:0B12C700411210DE7FE87E03020003EE
:0516880042011309609E
:10000300EF4E601A900113E0FCA3E0FDED1D7001BB
:0E0013001C144C70F7EF1F70011E144E70E6A7
:0100210022BC
:0A166D00EF1FAC0670011E4C70F672
:011677002250
:1015AA00900113E0FCA3E0FD12071AE47B83FAF929
:1015BA00F812056C900115120697900115E0C313F5
:0615CA00FEA3E013FF2266
:1015F600E50E6599600885990EE4F50D8002050DE6
:10160600AF0DC3EF94E97480948040060075C760FF
:03161600000022AF
:0E16510043BA80E4F50EF50D1214FED2AF225E
:0816780001020408102040806B
:0F163400EF54F0F50FEF540F90167893F5102246
:100E7800EF540FD39407748094804003020F041238
:100E88001634E50F24F0602424F0602A24F0603042
:100E980024F0603624F0603C24F0604224F060487E
:100EA80024707058ED90FE1060498042ED90FE115C
:100EB8006002803A803DED90FE12600280308033FF
:100EC800ED90FE13600280268029ED90FE146002EA
:100ED800801C801FED90FE15600280128015ED9039
:100EE800FE1660028008800BED90FE176005E04555
:0D0EF80010F022E0FFE510F4FEEF5EF022A6
:100BCA00EF540FD39407748094804003020DD3121C
:100BDA001634ED706EAF0FFEEF7007E510F4529306
:100BEA005294EF64104E7007E510F452915292E558
:100BFA000F64207007E510F452955296AF0F7E00ED
:100C0A00EF64307007E510F452B152B2EF64404E0F
:100C1A007007E510F452B352B4E50F64507007E55B
:100C2A0010F452C952CAAF0F7E00EF64607007E534
:100C3A0010F452CB52CCEF64704E7007E510F452A8
:100C4A00E152E2ED64016003020CD3AF0FFEEF70D4
:100C5A0009E5104293E510F45294EF64104E7009BE
:100C6A00E5104291E510F45292E50F64207009E50F
:100C7A00104295E510F45296AF0F7E00EF64307083
:100C8A0009E51042B1E510F452B2EF64404E700922
:100C9A00E51042B3E510F452B4E50F64507009E56B
:100CAA001042C9E510F452CAAF0F7E00EF646070BB
:100CBA0009E51042CBE510F452CCEF64704E70098E
:100CCA00E51042E1E510F452E2EDFF7E00640270A5
:100CDA0071E50FFB7A007008E5104293E510429423
:100CEA00EB64104A7008E5104291E5104292EB64F9
:100CFA00204A7008E5104295E5104296EB64304AA6
:100D0A007008E51042B1E51042B2EB64404A70083F
:100D1A00E51042B3E51042B4EB64504A7008E5109E
:100D2A0042C9E51042CAEB64604A7008E51042CB3A
:100D3A00E51042CCEB64704A7008E51042E1E51018
:100D4A0042E2EF64034E6003020DD3AF0FFEEF7071
:100D5A0009E510F45293E5104294EF64104E7009BD
:100D6A00E510F45291E5104292E50F64207009E50E
:100D7A0010F45295E5104296AF0F7E00EF64307082
:100D8A0009E510F452B1E51042B2EF64404E700921
:100D9A00E510F452B3E51042B4E50F64507009E56A
:100DAA0010F452C9E51042CAAF0F7E00EF646070BA
:100DBA0009E510F452CBE51042CCEF64704E70098D
:0A0DCA00E510F452E1E51042E222C8
:1013B100EFFB7A0070028D80EB64014A70028D9020
:1013C100EF640270028DA0EFFB7A00640370028D5E
:1013D100B0EB64044A70028DC0EF640570028DC8E1
:1013E100EFFB7A00640670028DE8EB64074A700433
:0513F100AF058FF8229A
:10119C00EFFD7C007003AF8022ED64014C7003AF57
:1011AC009022EFFD7C0064027003AFA022ED64037B
:1011BC004C7003AFB022EFFD7C0064047003AFC031
:1011CC0022ED64054C7003AFC822EFFD7C00640671
:1011DC007003AFE822ED64074C7003AFF8227FFF79
:0111EC0022E0
:100DD400EF540FD39407748094804003020E77126B
:100DE4001634E50F24F0602A24F0603424F0603EC9
:100DF40024F0604824F0605224F0605C24F06066C3
:100E04002470706FED6005E510428022E510F45205
:100E14008022ED6005E510429022E510F452902204
:100E2400ED6005E51042A022E510F452A022ED6029
:100E340005E51042B022E510F452B022ED6005E55C
:100E44001042C022E510F452C022ED6005E51042C4
:100E5400C822E510F452C822ED6005E51042E822EC
:100E6400E510F452E822ED6005E51042F822E510A1
:040E7400F452F8221A
:10113E00EF540FD394077480948040037F012212E2
:10114E001634E50FFD7C007002AE80ED64104C701D
:10115E0002AE90ED64204C7002AEA0ED64304C7087
:10116E0002AEB0ED64404C7002AEC0ED64504C70F7
:10117E0002AEC8ED64604C7002AEE8ED64704C7067
:0D118E0002AEF8E5105E60037F01227F00D5
:01119B002231
:10107D00EF540FD39407748094805054121634AFEC
:10108D000F7E00EF7004E5106280EF64104E700467
:10109D00E5106290EF64204E7004E51062A0EF64DD
:1010AD00304E7004E51062B0EF64404E7004E510F0
:1010BD0062C0EF64504E7004E51062C8EF64604E7C
:1010CD007004E51062E8EF64704E7004E51062F88C
:0110DD0022F0
:1012D200EFFB7A007003ED6280EB64014A7003ED6C
:1012E2006290EF64027003ED62A0EFFB7A00640388
:1012F2007003ED62B0EB64044A7003ED62C0EF6408
:10130200057003ED62C8EFFB7A0064067003ED62BC
:0B131200E8EB64074A7003ED62F8226C
:100F9100EF700CEB6005ED42808004EDF45280EFC0
:100FA1006401700CEB6005ED42908004EDF4529009
:100FB100EF6402700CEB6005ED42A08004EDF45289
:100FC100A0EF6403700CEB6005ED42B08004EDF41A
:100FD10052B0EF6404700CEB6005ED42C08004ED8B
:100FE100F452C0EF6405700CEB6005ED42C880045B
:100FF100EDF452C8EF6406700CEB6005ED42E88039
:1010010004EDF452E8EF6407700BEB6004ED42F875
:0610110022EDF452F8226A
:10123B007EFFEFFB7A007002AE80EB64014A700216
:10124B00AE90EB64024A7002AEA0EB64034A7002EC
:10125B00AEB0EB64044A7002AEC0EB64054A700298
:10126B00AEC8EB64064A7002AEE8EB64074A700244
:0B127B00AEF8EE5D60037F01227F00F3
:011286002245
:081680003031363716174344E0
:1014FE00759850538EDEE4FD7F011211ED900001C0
:10150E001206A30001C2007F0112146F438E4053D6
:0D151E00890FC2ABC28FD28EC209D2AC229F
:1011ED00900000EDF0EF147044900000E0FF54C04B
:1011FD00FEE5A2543F4EF5A2EFC41313540325E0B0
:10120D002480F582E43416F583E493FFE4FD120B9C
:10121D00CA900000E0C41313540325E02481F58225
:0E122D00E43416F583E493FF7D03120BCA220E
:05146F00900000EFF009
:10147400A3E0F8A3E0F9A3E0FAA3E0FB7F807E8D6C
:101484007D5B7C001205F7C3E49FFFE49EFE9000A1
:0A14940000E01470058F8BEEF58D5B
:01149E00222B
:0E165F00EF147009AF058F99D2092009FD2202
:10161900EF147016EB6006D29BD29B8004C29BC26A
:0B1629009BAF058F99D2092009FD221C
:1014380090006EEBF0A3EAF0A3E9F0AE0790006E1F
:10144800E0FBA3E0FAA3E0F91204FE6019AF0690EE
:10145800006EA3E475F001120556A9F0FA1204FE15
:07146800FD12165F80D72280
:0E1017009000A4EFF0A3EBF0A3EAF0A3E9F041
:101025009001107401F0A37400F0A374A8F090006F
:10103500A5E0F9A3E0FAA3E090006EC9F0A3EAF0F9
:10104500A3E9F0900110E0F9A3E0FAA3E0900071A4
:10105500C9F0A3EAF0A3E9F07B017A0079D0121375
:1010650067900110E4F0A3F0A3F09000A4E0FF7BEB
:08107500017A0079D002143861
:0300230002131DA8
:10131D00C0E0C0F0C083C082C0D075D000C000C096
:10132D0001C002C003C004C005C006C00730980844
:10133D00C2981200221215F6309904C299C209D032
:10134D0007D006D005D004D003D002D001D000D0F4
:0A135D00D0D082D083D0F0D0E0326F
:1015570075DE0F43DE2078EFE6FC08E6FDE41201B6
:10156700D1E4FBFA797A784412012F90011E120612
:0C157700977D017F10120BCA43BC80223C
:10149F007DC07C12EF540FFFE5BC54F04FF5BC43F9
:1014AF00BC400000E5BC20E50BED4C6007ED1D7066
:0F14BF00F31C80F053BCDFAFBDEFFEADBEEDFF01
:0114CE0022FB
:1015D00012149FAD07AC06E41201D190011AE0F895
:1015E000A3E0F9A3E0FAA3E0FB120026E4FBFA79FA
:0615F00080784402012F87
:1013F6007F0F12149FEF4E7005FFFEFDFC22AD0716
:10140600AC06E41201D1C004C005C006C007E4FF63
:10141600FE7D807C4490011EE0F8A3E0F9A3E0FA8B
:10142600A3E0FB120026D003D002D001D0001201A7
:011436002F86
:011437002292
:10002600EC4D6011E8497017ED33EC3304600DE4D4
:10003600FCFFFEFD22E933E8330470F802023F12AA
:10004600020A58046009E4CC2481500628500902AB
:100056000249284003020246C0E0EB4A7044B980D8
:1000660006D0E0FB020235EF4E701CBD8008EBFFA8
:10007600EAFEE9FD80EBE98DF0A4FEE5F002010F52
:10008600E9CDF9EAFEEBFFEF89F0A4FCE5F0CE89B5
:10009600F0A42EFFE435F0CD89F0A42DFEE435F072
:1000A6008067EF4E7005BD80D780C3EF8BF0A4ACA0
:1000B600F0EE8BF0A42CFCE435F0F8EF8AF0A42CDB
:1000C600E5F038FCE433CB8DF0A42CFCE5F03BF8EE
:1000D600EE8AF0A42CFCE5F038F8E433CF89F0A4DE
:1000E6002CFCE5F038CF3400CE89F0A42FFFE5F0E4
:1000F6003EFEE433C98DF0A42EFEE5F039CD8AF03C
:10010600A42FFFE5F03EFEE43DFD33D0E0FB5007B3
:100116000BBB000F020249EC2CFCEF33FFEE33FE63
:06012600ED33FD02022191
:10012C00020249EC5D046005E85904700302023FC9
:10013C0012020A580460F6EC4860F2EC7004FDFE02
:10014C00FF22C860DB2481C85009C39860025006A6
:10015C000202469850CAF582E9294B4A7005AB82D7
:10016C0002023575F0007C1A7880C3EF9BEE9AED95
:10017C0099400DC3EF9BFFEE9AFEED99FDE842F01E
:10018C00DC23ACF0D0E0FFD0E0FED0E0FDAB822071
:10019C00E7101BEB60BAEC2CFCEF33FFEE33FEEDFB
:1001AC0033FD020221E803F830E705C0F075F000DA
:1001BC00EF2FFFEE33FEED33FD40B830E7C280AADF
:1001CC0075F020800E75F010800575F0087D007EAE
:1001DC00007F003392D530D503120689EC334010E2
:1001EC00EF33FFEE33FEED33FDEC33FCD5F0ED22B7
:0E01FC00E5F0247EA2D513CC92E7CDCEFF22F3
:1013670090006EE0FFA3E0FEA3E0CF900077F0A32C
:10137700EEF0A3EFF0900071E0CBF0A3E0CAF0A38A
:10138700E0C9F07F2290007AAD82AC831204FE8D13
:10139700828C83F0A309E970010ADFEC900071E009
:0A13A700FBA3E0FAA3E0F90207AC93
:10020A00E9D2E7C933E833F892D5EDD2E7CD33EC3A
:07021A0033FC5002B2D522B3
:10022100EC30E7100FBF000C0EBE00080DBD00043E
:100231000BEB6014A2D5EB13FCED92E7FD2274FFEA
:10024100FCFDFEFF22E480F8A2D574FF13FC7D8043
:03025100E480EF57
:10074700E5082477F582E43400F583E00508229074
:100757000074300703900077E475F0011206D402A5
:1007670004FE2000E97F2ED2008018EF540F24905A
:10077700D43440D4FF30040BEF24BFB41A00500325
:100787002461FFE50960021509050CE50C700205F7
:100797000B30070E900074E475F0011206D4EF02D7
:1007A70005440215837403D2078003E4C207F508E2
:1007B7009000741206EBE4F509F50BF50CE50960FA
:1007C700077F2012078A80F5750AFFC201C200C29F
:1007D70002C203C205C206C208120756FF700D30D7
:1007E70007057F0012079BAF0CAE0B22B4255FC233
:1007F700D5C204120756FF24D0B40A00501A75F068
:100807000A780930D50508B6FF0106C6A426F620E2
:10081700D5047002D20380D924CFB41A00EF500454
:10082700C2E5D204020A8DD20180C6D20080C0D2AE
:100837000280BCD2D580BAD20580B47F2012078A45
:100847002002077401B5090040F1120747FF12079C
:100857008A0207C4D208D2068095120747FB1207FF
:1008670047FA120747F94A4B7006798B7A0B7BFFD9
:1008770020022EE509602A7E008E8275830012050C
:100887001760060EEE650A70F0C2D5EBC0E0EAC04D
:10089700E0E9C0E0EE120AEED0E0F9D0E0FAD0E0ED
:1008A700FB1204FEFF60AAEBC0E0EAC0E0E9C0E08B
:1008B70012078AD0E02401F9D0E03400FAD0E0FB37
:1008C700E50A0460DCD50AD98087D20280A2120A21
:1008D700D060F7E50A700104120254A90A600DE519
:1008E7000A600914F50A120B78EF60F3EA30E702A1
:1008F700F404C3995079EAF4250A0430E701E404C3
:10090700F50A800D120AD060C1EA050A250A12020B
:1009170054EA9000A3F030E701E4250A04D50A045D
:1009270020050114120AEEE4C0E0120B789000A330
:10093700E0601320E70714F0120772802204F0D05A
:10094700E014C0E07F00120772E50A60071207692A
:10095700150A800B300503120769D0E00207C4D0DF
:10096700E00480C4120AD0609EE50A041202549083
:1009770000A3EAF0E50A2005026001042404120A34
:01098700EE81
:1009880074FF04C0E0120B78120772E50A20050212
:100998006003120769D0E0B50AE87F4512077C902A
:1009A80000A3E07F2B30E7047F2DF404C0E012079A
:1009B8008AD0E075F00A84C0F0120773D0E01207FD
:1009C800730207C4791080027908C206C208800839
:1009D800D2D5790A8004790AC2D5E50A047002F5ED
:1009E8000AE4FAFDFEFF120747FC7B0820011312F8
:1009F8000747FD7B1030000A120747FE120747FF22
:100A08007B20EC3382D592D55013C3E43000069F87
:100A1800FFE49EFEE42001039DFDE49CFCE4CBF88A
:100A2800C201EC700CCFCECDCCE824F8F870F3807E
:100A380017C3EF33FFEE33FEED33FDEC33FCEB333E
:100A4800FB994002FB0FD8E9EB300105F8D0E0C470
:100A580048B201C0E00AEC4D4E4F78207B0070C2CE
:100A6800EAB50A0040BCC0E0120AF0D0F0D0E0209D
:100A78000104C4C0E0C4B201C0F0120773D0F0D5BD
:100A8800F0EB0207C41206F408615309CC58083287
:100A98004C082E4209D04F09D84409D84908474381
:100AA80009DE55090B46096B4508D5470BAB5008BD
:100AB800362D083A2E085D2B083E23085B200B9440
:100AC8002A07F64800000855E50AB4FF03750A0628
:100AD800120747FC120747FD120747FE120747FF98
:100AE80090009C020291790AA2D5200314300509CE
:100AF800B910020404B9080104A2D5200602500165
:100B0800042002689202B509005034C0E07F20300A
:100B180003197F30A20272067205500F120B47C2EA
:100B280002C206C205C2087F30800F300503E9C043
:100B3800E012078A300503D0E0F9D0E0B509CC30DF
:100B480005177F30B9100C12078A7F583004077FC9
:100B5800788003B9080312078A3002057F2D02073F
:100B68008A7F202008F87F2B2006F322920280CF6C
:100B78007F00B40700500B249CF582E43400F58311
:100B8800E0FF22286E756C6C2900D20112074730ED
:100B980001F8C201780930D50108F60207F62D5090
:100BA8004349581207472403B405004001E4900B59
:100BB800A69312077B743A12077BD20375090402C5
:020BC80009CC56
:10025400F920E73624F950037907E4F42402FBE596
:1002640082158270021583DBF6E024FB501BE960E3
:1002740014E4F0E582158270021583E004F0B40AF8
:0D02840008E4F0D9EE7401F00A22C2D52280
:10029100ED33EC3392D5FA602AB4FF33EDC2E77B3C
:1002A100FF60067A0279B6E4227A0279BF20D5048A
:1002B1007A0279BA224E614E002B494E46002D49F1
:1002C1004E4600E47A08F0A3DAFC7B00740722C0F2
:1002D10083C082ECC0E0EDC0E0EEC0E0EFC0E0EA38
:1002E10075F010A4CAABF075F04DA42BFBE435F00A
:1002F100FCEA2410FAEB34C5FBEC34D9FCEDC2E77F
:10030100FF75F056A4F42411C5F0F434C58FF0A4A0
:100311002AE5F03BE43CF020E7141204BED0E0FFF4
:10032100D0E0FED0E0FDD0E0FC12012F8014F404F7
:100331001204BED0E0FFD0E0FED0E0FDD0E0FC1220
:100341000026D082D083E0FAEDD2E7CD33EC33241E
:1003510082FBE4C3CF33CFCE33CECD33CD33DBF30A
:100361007B0775F00A846004F0A31B0AE5F0F0A393
:100371008FF0740AA4FFACF08EF0740AA42CFEACCA
:10038100F050010C8DF0740AA42CFDE435F0F0A3BB
:05039100DBDE74072211
:1003960002023FE86480F8E933E83360110460F054
:1003A600ED33EC337009E8FCE9FDEAFEEBFF2204CD
:1003B60060DED3EB9FEA9EE99DE8C2E78CF0C2F7C8
:1003C60095F0400CE8CCF8E9CDF9EACEFAEBCFFB94
:1003D60012020A85D0F05804700320D5B3E80470E1
:1003E600075002B2D502024992D5EC0460F7E4CC7C
:1003F600C0E0C398F8603B94186008400DD0E0FB5D
:10040600020221E4FBFAC9FC8028E830E406E4C9CC
:10041600FBE4CAFCE830E305E4C9CACBFCE85407B0
:100426006010F8C3E913F9EA13FAEB13FBEC13FCBB
:10043600D8F130F52FC3E49CFCEF9BFFEE9AFEED5E
:1004460099FDD0E0FBEF4E4D4C701222DB03020209
:1004560046EC2CFCEF33FFEE33FEED33FDED30E7DB
:10046600EB020221EF2BFFEE3AFEED39FDD0E0FB69
:1004760050130BBB0003020249ED13FDEE13FEEF12
:0804860013FFEC13FC0202213C
:10048E003F8000004120000042C80000447A000076
:10049E00461C400047C35000497424004B189680F8
:1004AE004CBEBC205A0E1BCA6753C21C749DC5AEEF
:1004BE00FB60065407601C23231204ECEB543860D7
:1004CE00091204D81204E7120026ECF8EDF9EEFA40
:1004DE00EFCB22EB1204E780F1543803241C900476
:1004EE008EFE93FC0EEE93FD0EEE930ECE93FF2238
:100F1100021643E493A3F8E493A34003F68001F29D
:100F210008DFF48029E493A3F85407240CC8C333E1
:100F3100C4540F4420C8834004F456800146F6DFB0
:100F4100E4800B0102040810204080901688E47EA2
:100F5100019360BCA3FF543F30E509541FFEE493A5
:100F6100A360010ECF54C025E060A840B8E493A36C
:100F7100FAE493A3F8E493A3C8C582C8CAC583CA97
:100F8100F0A3C8C582C8CAC583CADFE9DEE780BE4F
:01168D00005C
:1004FE00BB010689828A83E0225002E722BBFE02FC
:09050E00E32289828A83E493222E
:10051700BB010CE58229F582E5833AF583E0225099
:1005270006E92582F8E622BBFE06E92582F8E222E3
:0D053700E58229F582E5833AF583E49322FD
:10054400BB010689828A83F0225002F722BBFE0196
:02055400F32290
:10055600A3F8E0C5F025F0F0E58215827002158358
:06056600E0C838F0E822B5
:10056C00E88FF0A4CC8BF0A42CFCE98EF0A42CFC2E
:10057C008AF0EDA42CFCEA8EF0A4CDA8F08BF0A4AC
:10058C002DCC3825F0FDE98FF0A42CCD35F0FCEB0B
:10059C008EF0A4FEA9F0EB8FF0A4CFC5F02ECD39D0
:0F05AC00FEE43CFCEAA42DCE35F0FDE43CFC223D
:1005BB0075F008758200EF2FFFEE33FECD33CDCCF7
:1005CB0033CCC58233C5829BED9AEC99E58298407A
:1005DB000CF582EE9BFEED9AFDEC99FC0FD5F0D657
:1005EB00E4CEFBE4CDFAE4CCF9A88222B800C1B981
:1005FB000059BA002DEC8BF084CFCECDFCE5F0CBBF
:10060B00F97818EF2FFFEE33FEED33FDEC33FCEBF7
:10061B0033FB10D703994004EB99FB0FD8E5E4F9B2
:10062B00FA227818EF2FFFEE33FEED33FDEC33FC9F
:10063B00C933C910D7059BE99A4007EC9BFCE99A93
:10064B00F90FD8E0E4C9FAE4CCFB2275F010EF2FD8
:10065B00FFEE33FEED33FDCC33CCC833C810D707D8
:10066B009BEC9AE899400AED9BFDEC9AFCE899F813
:0E067B000FD5F0DAE4CDFBE4CCFAE4C8F922A6
:0E068900C3E49FFFE49EFEE49DFDE49CFC2282
:0C069700ECF0A3EDF0A3EEF0A3EFF022D6
:1006A300A8828583F0D083D0821206BA1206BA12CA
:1006B30006BA1206BAE473E493A3C583C5F0C583EF
:1006C300C8C582C8F0A3C583C5F0C583C8C582C8A1
:0106D3002204
:1006D400F8E0FBA3A3E0F925F0F0E58215827002AF
:0706E4001583E0FA38F02253
:0906EB00EBF0A3EAF0A3E9F02210
:1006F400D083D082F8E4937012740193700DA3A395
:1007040093F8740193F5828883E4737402936860A8
:06071400EFA3A3A380DFA8
:10071A00EC8EF0A4CCC5F0CCCDF8EFA4CEC5F02D6C
:10072A00FDE43CFCE8A42EC8C5F03DFDE43CFCEF2A
:0D073A00A4FFE5F028FEE43DFDE43CFC22B8
:10158300EFB40A07740D12158E740A309811A899D6
:10159300B8130CC2983098FDA899C298B811F630C8
:0715A30099FDC299F59922A0
:00000001FF
