:03000000020BA050
:0C0BA000787FE4F6D8FD758121020BE798
:100DD10048656C6C6F2041726475696E6F2D535458
:100DE100432E000D0A0054656D7065726174757251
:100DF100653A256275432C2048756D69646974797B
:100E01003A25627525250D0A004552524F523A6F17
:100E110066666C696E65210D0A004552524F523A61
:0B0E210074696D656F7574210D0A0087
:0B0D1300900000EBF0A3EAF0A3E9F071
:100D1E0090006B7401F0A37400F0A37403F09000C4
:100D2E0000E0F9A3E0FAA3E090006EC9F0A3EAF0A8
:100D3E00A3E9F090006BE0F9A3E0FAA3E090007154
:100D4E00C9F0A3EAF0A3E9F07B017A00792B120F28
:100D5E00AC90006BE4F0A3F0A3F07B017A00792B4A
:050D6E007F010210FCF2
:0100220022BB
:0B12460012122A1210C2120FF680FBD9
:1010C2001211639000011207C10001C2007F0112D8
:1010D20011337FDC7E051200037BFF7A0D79D17F0D
:1010E200011210FC7BFF7A0D79E47F011210FC7B68
:0A10F200017A0079A27D1702108434
:100FF6007FE87E031200037B017A0079A212038B3D
:101006009000A6EFF014601F146024240270297B60
:10101600FF7A0D79E79000A4E0900003F09000A518
:10102600E0900004F0800E7BFF7A0E790A80067B42
:09103600FF7A0E791B120D132242
:05126C0042009C096036
:10000300EF4E601A90009CE0FCA3E0FDED1D700133
:0E0013001C144C70F7EF1F70011E144E70E6A7
:0100210022BC
:0A125100EF1FAC0670011E4C70F692
:01125B002270
:1011B70090009CE0FCA3E0FD1207F2E47B83FAF9C0
:1011C700F812069890009E1207B590009EE0C31390
:0611D700FEA3E013FF225D
:1011DD00E50E6599600885990EE4F50D8002050D03
:1011ED00AF0DC3EF94E97480948040060075C7601D
:0311FD00000022CD
:0E122A0043BA80E4F50EF50D121163D2AF2227
:08125C0001020408102040808B
:0F121B00EF54F0F50FEF540F90125C93F5102283
:100B1300EF540FD39407748094804003020B9F1209
:100B2300121BE50F24F0602424F0602A24F06030C7
:100B330024F0603624F0603C24F0604224F06048E6
:100B430024707058ED90FE1060498042ED90FE11C4
:100B53006002803A803DED90FE1260028030803367
:100B6300ED90FE13600280268029ED90FE14600252
:100B7300801C801FED90FE15600280128015ED90A1
:100B8300FE1660028008800BED90FE176005E045BD
:0D0B930010F022E0FFE510F4FEEF5EF0220E
:10086500EF540FD39407748094804003020A6E12EC
:10087500121BED706EAF0FFEEF7007E510F452938B
:100885005294EF64104E7007E510F452915292E5C0
:100895000F64207007E510F452955296AF0F7E0055
:1008A500EF64307007E510F452B152B2EF64404E78
:1008B5007007E510F452B352B4E50F64507007E5C4
:1008C50010F452C952CAAF0F7E00EF64607007E59D
:1008D50010F452CB52CCEF64704E7007E510F45211
:1008E500E152E2ED6401600302096EAF0FFEEF70A5
:1008F50009E5104293E510F45294EF64104E700927
:10090500E5104291E510F45292E50F64207009E577
:10091500104295E510F45296AF0F7E00EF643070EB
:1009250009E51042B1E510F452B2EF64404E70098A
:10093500E51042B3E510F452B4E50F64507009E5D3
:100945001042C9E510F452CAAF0F7E00EF64607023
:1009550009E51042CBE510F452CCEF64704E7009F6
:10096500E51042E1E510F452E2EDFF7E006402700D
:1009750071E50FFB7A007008E5104293E51042948B
:10098500EB64104A7008E5104291E5104292EB6461
:10099500204A7008E5104295E5104296EB64304A0E
:1009A5007008E51042B1E51042B2EB64404A7008A8
:1009B500E51042B3E51042B4EB64504A7008E51007
:1009C50042C9E51042CAEB64604A7008E51042CBA3
:1009D500E51042CCEB64704A7008E51042E1E51081
:1009E50042E2EF64034E6003020A6EAF0FFEEF7042
:1009F50009E510F45293E5104294EF64104E700926
:100A0500E510F45291E5104292E50F64207009E576
:100A150010F45295E5104296AF0F7E00EF643070EA
:100A250009E510F452B1E51042B2EF64404E700989
:100A3500E510F452B3E51042B4E50F64507009E5D2
:100A450010F452C9E51042CAAF0F7E00EF64607022
:100A550009E510F452CBE51042CCEF64704E7009F5
:0A0A6500E510F452E1E51042E22230
:10103F00EFFB7A0070028D80EB64014A70028D9095
:10104F00EF640270028DA0EFFB7A00640370028DD3
:10105F00B0EB64044A70028DC0EF640570028DC856
:10106F00EFFB7A00640670028DE8EB64074A7004A8
:05107F00AF058FF8220F
:100E2C00EFFD7C007003AF8022ED64014C7003AFCA
:100E3C009022EFFD7C0064027003AFA022ED6403EE
:100E4C004C7003AFB022EFFD7C0064047003AFC0A4
:100E5C0022ED64054C7003AFC822EFFD7C006406E4
:100E6C007003AFE822ED64074C7003AFF8227FFFEC
:010E7C002253
:100A6F00EF540FD39407748094804003020B12123B
:100A7F00121BE50F24F0602A24F0603424F0603E4E
:100A8F0024F0604824F0605224F0605C24F060662B
:100A9F002470706FED6005E510428022E510F4526E
:100AAF008022ED6005E510429022E510F45290226D
:100ABF00ED6005E51042A022E510F452A022ED6092
:100ACF0005E51042B022E510F452B022ED6005E5C5
:100ADF001042C022E510F452C022ED6005E510422D
:100AEF00C822E510F452C822ED6005E51042E82255
:100AFF00E510F452E822ED6005E51042F822E5100A
:040B0F00F452F82282
:100D7300EF540FD394077480948040037F012212B1
:100D8300121BE50FFD7C007002AE80ED64104C7009
:100D930002AE90ED64204C7002AEA0ED64304C7056
:100DA30002AEB0ED64404C7002AEC0ED64504C70C6
:100DB30002AEC8ED64604C7002AEE8ED64704C7036
:0D0DC30002AEF8E5105E60037F01227F00A4
:010DD0002200
:100CB200EF540FD3940774809480505412121BAFD8
:100CC2000F7E00EF7004E5106280EF64104E700436
:100CD200E5106290EF64204E7004E51062A0EF64AC
:100CE200304E7004E51062B0EF64404E7004E510BF
:100CF20062C0EF64504E7004E51062C8EF64604E4B
:100D02007004E51062E8EF64704E7004E51062F85A
:010D120022BE
:100F1700EFFB7A007003ED6280EB64014A7003ED2A
:100F27006290EF64027003ED62A0EFFB7A00640346
:100F37007003ED62B0EB64044A7003ED62C0EF64C6
:100F4700057003ED62C8EFFB7A0064067003ED627B
:0B0F5700E8EB64074A7003ED62F8222B
:100C2C00EF700CEB6005ED42808004EDF45280EF28
:100C3C006401700CEB6005ED42908004EDF4529071
:100C4C00EF6402700CEB6005ED42A08004EDF452F1
:100C5C00A0EF6403700CEB6005ED42B08004EDF482
:100C6C0052B0EF6404700CEB6005ED42C08004EDF3
:100C7C00F452C0EF6405700CEB6005ED42C88004C3
:100C8C00EDF452C8EF6406700CEB6005ED42E880A1
:100C9C0004EDF452E8EF6407700BEB6004ED42F8DE
:060CAC0022EDF452F822D3
:100ECB007EFFEFFB7A007002AE80EB64014A70028A
:100EDB00AE90EB64024A7002AEA0EB64034A700260
:100EEB00AEB0EB64044A7002AEC0EB64054A70020C
:100EFB00AEC8EB64064A7002AEE8EB64074A7002B8
:0B0F0B00AEF8EE5D60037F01227F0066
:010F160022B8
:08126400303136371617434400
:10116300759850538EDEE4FD7F01120E7D900001D1
:101173001207C10001C2007F01121133438E405395
:0D118300890FC2ABC28FD28EC209D2AC223E
:100E7D00900000EDF0EF147044900000E0FF54C0BE
:100E8D00FEE5A2543F4EF5A2EFC41313540325E023
:100E9D002464F582E43412F583E493FFE4FD120833
:100EAD0065900000E0C41313540325E02465F5821A
:0E0EBD00E43412F583E493FF7D0312086522EE
:05113300900000EFF048
:10113800A3E0F8A3E0F9A3E0FAA3E0FB7F807E8DAB
:101148007D5B7C00120723C3E49FFFE49EFE9000B2
:0A11580000E01470058F8BEEF58D9A
:01116200226A
:0E123800EF147009AF058F99D2092009FD222D
:10120000EF147016EB6006D29BD29B8004C29BC287
:0B1210009BAF058F99D2092009FD2239
:1010FC0090006EEBF0A3EAF0A3E9F0AE0790006E5F
:10110C00E0FBA3E0FAA3E0F91206086019AF069021
:10111C00006EA3E475F001120682A9F0FA1206081B
:07112C00FD12123880D722EA
:03002300020F6267
:100F6200C0E0C0F0C083C082C0D075D000C000C055
:100F720001C002C003C004C005C006C00730980803
:100F8200C2981200221211DD309904C299C209D00E
:100F920007D006D005D004D003D002D001D000D0B3
:0A0FA200D0D082D083D0F0D0E0322E
:10108400900000EDF0FFE0C4540F12064EEF540F31
:10109400FEF87401088002C333D8FC9000011206E4
:1010A40060900002E4120660900003E4120660E41B
:0E10B400FD120865900000E0FF7D01020A6F4A
:0B038B00900000EBF0A3EAF0A3E9F003
:100396007F057E001211B790000CEEF0A3EFF07F00
:1003A6000A7E001211B790000EEEF0A3EFF07F1E4A
:1003B6007E001211B7900010EEF0A3EFF09000004F
:1003C600E0FBA3E0FAA3E0F9120608FF9000011291
:1003D6000621FDE4FB120C2C7F137E001200039015
:1003E6000000E0FBA3E0FAA3E0F9120608FF900084
:1003F60001120621FD7B01120C2C900010E0FEA3D9
:10040600E0FF121251900000E0FBA3E0FAA3E0F92E
:10041600120608FF900001120621FD120ECBEF60B6
:10042600030206059000037402F0900000E0FBA3AF
:10043600E0FAA3E0F9120608FF900001120621FD7A
:10044600120ECBEF7017900003E0FF04F0EF600D83
:1004560090000EE0FEA3E0FF12125180CD90000343
:10046600E0640170037F02229000037402F09000A2
:1004760000E0FBA3E0FAA3E0F9120608FF900001F2
:10048600120621FD120ECBEF64017017900003E0F7
:10049600FF04F0EF600D90000EE0FEA3E0FF1212E5
:1004A6005180CB900003E0640170037F0222E49048
:1004B6000006F0900006E0C3940574809480400323
:1004C6000205C7E4900005F0900004F0900004E0F7
:1004D600C394087480948040030205AC90000374B2
:1004E60002F0900000E0FBA3E0FAA3E0F912060890
:1004F600FF900001120621FD120ECBEF701790003F
:1005060003E0FF04F0EF600D90000CE0FEA3E0FFB7
:1005160012125180CD900003E0640170037F022225
:10052600900010E0FEA3E0FF121251900005E025B6
:10053600E0F0900000E0FBA3E0FAA3E0F912060861
:10054600FF900001120621FD120ECBEF6401700729
:10055600900005E04401F09000037402F090000062
:10056600E0FBA3E0FAA3E0F9120608FF90000112EF
:100576000621FD120ECBEF64017017900003E0FF19
:1005860004F0EF600D90000CE0FEA3E0FF121251A4
:1005960080CB900003E0640170037F022290000488
:1005A600E004F00204D2900005E0FFA3E02407F582
:1005B60082E43400F583EFF0900006E004F00204D4
:1005C600B9900008E0FF900007E0FE2FFF900009B9
:1005D600E0FD2FFFA3E02FFF900005F090000BE059
:1005E600B5071C900000E0FBA3E0FAA3E0F9900039
:1005F60002ED120660900003EE1206607F00227F75
:0106060001F2
:0106070022D0
:100BAC00021246E493A3F8E493A34003F68001F207
:100BBC0008DFF48029E493A3F85407240CC8C3334A
:100BCC00C4540F4420C8834004F456800146F6DF19
:100BDC00E4800B010204081020408090126CE47E2B
:100BEC00019360BCA3FF543F30E509541FFEE4930E
:100BFC00A360010ECF54C025E060A840B8E493A3D5
:100C0C00FAE493A3F8E493A3C8C582C8CAC583CAFF
:100C1C00F0A3C8C582C8CAC583CADFE9DEE780BEB7
:01127100007C
:10060800BB010689828A83E0225002E722BBFE02F0
:09061800E32289828A83E4932223
:10062100BB010CE58229F582E5833AF583E022508E
:1006310006E92582F8E622BBFE06E92582F8E222D8
:0D064100E58229F582E5833AF583E49322F2
:10064E00BB010689828A83F0225002F722BBFE018B
:02065E00F32285
:10066000F8BB010DE58229F582E5833AF583E8F0D0
:10067000225006E92582C8F622BBFE05E92582C87C
:02068000F22264
:10068200A3F8E0C5F025F0F0E5821582700215832B
:06069200E0C838F0E82288
:10069800E88FF0A4CC8BF0A42CFCE98EF0A42CFC01
:1006A8008AF0EDA42CFCEA8EF0A4CDA8F08BF0A47F
:1006B8002DCC3825F0FDE98FF0A42CCD35F0FCEBDE
:1006C8008EF0A4FEA9F0EB8FF0A4CFC5F02ECD39A3
:0F06D800FEE43CFCEAA42DCE35F0FDE43CFC2210
:1006E70075F008758200EF2FFFEE33FECD33CDCCCA
:1006F70033CCC58233C5829BED9AEC99E58298404D
:100707000CF582EE9BFEED9AFDEC99FC0FD5F0D629
:10071700E4CEFBE4CDFAE4CCF9A88222B800C1B953
:100727000059BA002DEC8BF084CFCECDFCE5F0CB91
:10073700F97818EF2FFFEE33FEED33FDEC33FCEBCA
:1007470033FB10D703994004EB99FB0FD8E5E4F985
:10075700FA227818EF2FFFEE33FEED33FDEC33FC72
:10076700C933C910D7059BE99A4007EC9BFCE99A66
:10077700F90FD8E0E4C9FAE4CCFB2275F010EF2FAB
:10078700FFEE33FEED33FDCC33CCC833C810D707AB
:100797009BEC9AE899400AED9BFDEC9AFCE899F8E6
:0E07A7000FD5F0DAE4CDFBE4CCFAE4C8F92279
:0C07B500ECF0A3EDF0A3EEF0A3EFF022B7
:1007C100A8828583F0D083D0821207D81207D8126D
:1007D10007D81207D8E473E493A3C583C5F0C58392
:1007E100C8C582C8F0A3C583C5F0C583C8C582C882
:0107F10022E5
:1007F200EC8EF0A4CCC5F0CCCDF8EFA4CEC5F02D94
:10080200FDE43CFCE8A42EC8C5F03DFDE43CFCEF51
:0D081200A4FFE5F028FEE43DFDE43CFC22DF
:100FAC0090006EE0FFA3E0FEA3E0CF900077F0A3EB
:100FBC00EEF0A3EFF0900071E0CBF0A3E0CAF0A349
:100FCC00E0C9F07F2290007AAD82AC831206088DC6
:100FDC00828C83F0A309E970010ADFEC900071E0C8
:0A0FEC00FBA3E0FAA3E0F902008B7A
:10002600E5082477F582E43400F583E0050822909C
:100036000074300703900077E475F00112081F0280
:1000460006082000E97F2ED2008018EF540F249076
:10005600D43440D4FF30040BEF24BFB41A0050034D
:100066002461FFE50960021509050CE50C7002051F
:100076000B30070E900074E475F00112081FEF02B2
:10008600064E0211907403D2078003E4C207F508F6
:10009600900074120836E4F509F50BF50CE50960D5
:1000A600077F2012006980F5750AFFC201C200C2EF
:1000B60002C203C205C206C208120035FF700D3027
:1000C60007057F0012007AAF0CAE0B22B4255FC283
:1000D600D5C204120035FF24D0B40A00501A75F0B8
:1000E6000A780930D50508B6FF0106C6A426F6200B
:1000F600D5047002D20380D924CFB41A00EF50047D
:10010600C2E5D20402027BD20180C6D20080C0D2F0
:100116000280BCD2D580BAD20580B47F2012006995
:100126002002077401B5090040F1120026FF1200F3
:10013600690200A3D208D2068095120026FB12009F
:1001460026FA120026F94A4B7006794C7A037BFF91
:1001560020022EE509602A7E008E82758300120633
:100166002160060EEE650A70F0C2D5EBC0E0EAC06B
:10017600E0E9C0E0EE1202C2D0E0F9D0E0FAD0E049
:10018600FB120608FF60AAEBC0E0EAC0E0E9C0E0A7
:10019600120069D0E02401F9D0E03400FAD0E0FB87
:1001A600E50A0460DCD50AD980877BFF7A0279BE2E
:1001B600D202809C791080027908C206C2088008A3
:1001C600D2D5790A8004790AC2D5E50A047002F507
:1001D6000AE4FAFDFEFF120026FC7B08200113123A
:1001E6000026FD7B1030000A120026FE120026FFB4
:1001F6007B20EC3382D592D55013C3E43000069FA2
:10020600FFE49EFEE42001039DFDE49CFCE4CBF8A4
:10021600C201EC700CCFCECDCCE824F8F870F38098
:1002260017C3EF33FFEE33FEED33FDEC33FCEB3358
:10023600FB994002FB0FD8E9EB300105F8D0E0C48A
:1002460048B201C0E00AEC4D4E4F78207B0070C2E8
:10025600EAB50A0040BCC0E01202C4D0F0D0E020EB
:100266000104C4C0E0C4B201C0F0120052D0F0D5FF
:10027600F0EB0200A312083F01405301BA580111E6
:100286004C010D4201BE4F01C64401C64901264339
:0802960001CC5501B04601B096
:10029E004501B047036C5001152D01192E013C2B61
:1002AE00011D23013A2003552A00D54800000134D0
:1002BE003F3F3F00790AA2D5200314300509B9103B
:1002CE00020404B9080104A2D5200602500104203C
:1002DE0002689202B509005034C0E07F2030031945
:1002EE007F30A20272067205500F12031BC202C2A9
:1002FE0006C205C2087F30800F300503E9C0E01248
:10030E000069300503D0E0F9D0E0B509CC3005170F
:10031E007F30B9100C1200697F583004077F788047
:10032E0003B908031200693002057F2D0200697FB0
:10033E00202008F87F2B2006F322920280CF286E11
:10034E00756C6C2900D2011200263001F8C20178BA
:10035E000930D50108F60200D52D50434958120038
:10036E00262403B405004001E49003679312005A5B
:0D037E00743A12005AD2037509040201BA44
:10081F00F8E0FBA3A3E0F925F0F0E5821582700262
:07082F001583E0FA38F02206
:09083600EBF0A3EAF0A3E9F022C3
:10083F00D083D082F8E4937012740193700DA3A348
:10084F0093F8740193F5828883E47374029368605C
:06085F00EFA3A3A380DF5C
:10119000EFB40A07740D12119B740A309811A899C4
:1011A000B8130CC2983098FDA899C298B811F630BF
:0711B00099FDC299F5992297
:00000001FF
