:0300000002056195
:0C056100787FE4F6D8FD7581200205A823
:100A060050726F746F7468726561642031207275FC
:100A16006E6E696E672E000D0A0050726F746F74E9
:100A2600687265616420322072756E6E696E672E1B
:100A36000048656C6C6F2041726475696E6F2D534A
:040A460054432E00E7
:0100220022BB
:0B0BBA00120B9E120A4A120B7D80FBFA
:0B067500900008EBF0A3EAF0A3E9F00E
:10068000A37401F012025FFFE5F07055EF24EB60F8
:10069000162415704C900008E0FBA3E0FAA3E0F9E3
:1006A000E475F01512028A900006E07002A3E06083
:1006B00003D38001C34004E4FEFF227BFF7A0A7962
:1006C000067F01120A857BFF7A0A791D7F01120AD3
:1006D00085E4900006F0A3F0900004F0A304F080FD
:1006E000B4E490000BF0900008E0FBA3E0FAA3E074
:0B06F000F9E4F5F012028A7E007F02A0
:0106FB0022DC
:0B05ED00900008EBF0A3EAF0A3E9F097
:1005F800A37401F012025FFFE5F07056EF24DD608E
:100608001E2423704D900006E4F0A304F090000827
:10061800E0FBA3E0FAA3E0F9E475F02312028A9064
:100628000004E07002A3E06003D38001C34004E447
:10063800FEFF227BFF7A0A79207F01120A857BFF61
:100648007A0A791D7F01120A85E4900004F0A3F06C
:1006580080B3E490000BF0900008E0FBA3E0FAA35D
:0C066800E0F9E4F5F012028A7E007F0247
:010674002263
:100A4A007D037F55120026120AEC9000091203D288
:100A5A000001C2007F01120ABC7BFF7A0A79377F44
:100A6A0001120A857BFF7A0A791D7F01120A85E441
:0B0A7A00900000F0A3F0A3F0A3F02216
:100B7D007B017A0079001206757B017A00790202F9
:020B8D0005ED74
:050BE00042000F096056
:10000300EF4E601A90000FE0FCA3E0FDED1D7001C0
:0E0013001C144C70F7EF1F70011E144E70E6A7
:0100210022BC
:0A0BC500EF1FAC0670011E4C70F625
:010BCF002203
:100B190090000FE0FCA3E0FD120403E47B83FAF9E3
:100B2900F81202A99000111203C6900011E0C31334
:060B3900FEA3E013FF2201
:100B3F00E50965996008859909E4F50880020508BB
:100B4F00AF08C3EF94E97480948040060075C760C6
:030B5F0000002271
:0E0B9E0043BA80E4F509F508120AECD2AF2242
:080BD00001020408102040801E
:0F0B8F00EF54F0F50AEF540F900BD093F50B22B3
:1004D400EF540FD394077480948040030205601294
:1004E4000B8FE50A24F0602424F0602A24F06030A5
:1004F40024F0603624F0603C24F0604224F060482C
:1005040024707058ED90FE1060498042ED90FE1109
:100514006002803A803DED90FE12600280308033AC
:10052400ED90FE13600280268029ED90FE14600297
:10053400801C801FED90FE15600280128015ED90E6
:10054400FE1660028008800BED90FE176005E04502
:0D0554000BF022E0FFE50BF4FEEF5EF0225D
:10002600EF540FD3940774809480400302022F127A
:100036000B8FED706EAF0AFEEF7007E50BF452936F
:100046005294EF64104E7007E50BF452915292E50C
:100056000A64207007E50BF452955296AF0A7E00AB
:10006600EF64307007E50BF452B152B2EF64404EC4
:100076007007E50BF452B352B4E50A64507007E515
:100086000BF452C952CAAF0A7E00EF64607007E5EE
:100096000BF452CB52CCEF64704E7007E50BF45262
:1000A600E152E2ED6401600302012FAF0AFEEF7038
:1000B60009E50B4293E50BF45294EF64104E700978
:1000C600E50B4291E50BF45292E50A64207009E5CE
:1000D6000B4295E50BF45296AF0A7E00EF64307042
:1000E60009E50B42B1E50BF452B2EF64404E7009DC
:1000F600E50B42B3E50BF452B4E50A64507009E52A
:100106000B42C9E50BF452CAAF0A7E00EF64607079
:1001160009E50B42CBE50BF452CCEF64704E700947
:10012600E50B42E1E50BF452E2EDFF7E006402705E
:1001360071E50AFB7A007008E50B4293E50B4294E1
:10014600EB64104A7008E50B4291E50B4292EB64B2
:10015600204A7008E50B4295E50B4296EB64304A5F
:100166007008E50B42B1E50B42B2EB64404A7008F9
:10017600E50B42B3E50B42B4EB64504A7008E50B5D
:1001860042C9E50B42CAEB64604A7008E50B42CBF4
:10019600E50B42CCEB64704A7008E50B42E1E50BD7
:1001A60042E2EF64034E600302022FAF0AFEEF70D5
:1001B60009E50BF45293E50B4294EF64104E700977
:1001C600E50BF45291E50B4292E50A64207009E5CD
:1001D6000BF45295E50B4296AF0A7E00EF64307041
:1001E60009E50BF452B1E50B42B2EF64404E7009DB
:1001F600E50BF452B3E50B42B4E50A64507009E529
:100206000BF452C9E50B42CAAF0A7E00EF64607078
:1002160009E50BF452CBE50B42CCEF64704E700946
:0A022600E50BF452E1E50B42E22281
:1009C100EFFB7A0070028D80EB64014A70028D901A
:1009D100EF640270028DA0EFFB7A00640370028D58
:1009E100B0EB64044A70028DC0EF640570028DC8DB
:1009F100EFFB7A00640670028DE8EB64074A70042D
:050A0100AF058FF82293
:10084100EFFD7C007003AF8022ED64014C7003AFBB
:100851009022EFFD7C0064027003AFA022ED6403DF
:100861004C7003AFB022EFFD7C0064047003AFC095
:1008710022ED64054C7003AFC822EFFD7C006406D5
:100881007003AFE822ED64074C7003AFF8227FFFDD
:010891002244
:10043000EF540FD394077480948040030204D312C6
:100440000B8FE50A24F0602A24F0603424F0603E2B
:1004500024F0604824F0605224F0605C24F0606670
:100460002470706FED6005E50B428022E50BF452BD
:100470008022ED6005E50B429022E50BF4529022BC
:10048000ED6005E50B42A022E50BF452A022ED60E1
:1004900005E50B42B022E50BF452B022ED6005E514
:1004A0000B42C022E50BF452C022ED6005E50B4281
:1004B000C822E50BF452C822ED6005E50B42E822A4
:1004C000E50BF452E822ED6005E50B42F822E50B5E
:0404D000F452F822C8
:1007E300EF540FD394077480948040037F01221247
:1007F3000B8FE50AFD7C007002AE80ED64104C7037
:1008030002AE90ED64204C7002AEA0ED64304C70EB
:1008130002AEB0ED64404C7002AEC0ED64504C705B
:1008230002AEC8ED64604C7002AEE8ED64704C70CB
:0D08330002AEF8E50B5E60037F01227F003E
:010840002295
:10078200EF540FD39407748094805054120B8FAFA0
:100792000A7E00EF7004E50B6280EF64104E700475
:1007A200E50B6290EF64204E7004E50B62A0EF64EB
:1007B200304E7004E50B62B0EF64404E7004E50BFE
:1007C20062C0EF64504E7004E50B62C8EF64604E85
:1007D2007004E50B62E8EF64704E7004E50B62F89A
:0107E20022F4
:10092C00EFFB7A007003ED6280EB64014A7003ED1B
:10093C006290EF64027003ED62A0EFFB7A00640337
:10094C007003ED62B0EB64044A7003ED62C0EF64B7
:10095C00057003ED62C8EFFB7A0064067003ED626C
:0B096C00E8EB64074A7003ED62F8221C
:1006FC00EF700CEB6005ED42808004EDF45280EF5E
:10070C006401700CEB6005ED42908004EDF45290A6
:10071C00EF6402700CEB6005ED42A08004EDF45226
:10072C00A0EF6403700CEB6005ED42B08004EDF4B7
:10073C0052B0EF6404700CEB6005ED42C08004ED28
:10074C00F452C0EF6405700CEB6005ED42C88004F8
:10075C00EDF452C8EF6406700CEB6005ED42E880D6
:10076C0004EDF452E8EF6407700BEB6004ED42F813
:06077C0022EDF452F82208
:1008E0007EFFEFFB7A007002AE80EB64014A70027B
:1008F000AE90EB64024A7002AEA0EB64034A700251
:10090000AEB0EB64044A7002AEC0EB64054A7002FC
:10091000AEC8EB64064A7002AEE8EB64074A7002A8
:0B092000AEF8EE5D60037F01227F0057
:01092B0022A9
:080BD800303136371617434493
:100AEC00759850538EDEE4FD7F0112089290000938
:100AFC001203D20001C2007F01120ABC438E405384
:0D0B0C00890FC2ABC28FD28EC200D2AC22C4
:10089200900008EDF0EF147044900008E0FF54C09F
:1008A200FEE5A2543F4EF5A2EFC41313540325E014
:1008B20024D8F582E4340BF583E493FFE4FD1200BF
:1008C20026900008E0C41313540325E024D9F582CE
:0E08D200E4340BF583E493FF7D03120026222D
:050ABC00900008EFF0BE
:100AC100A3E0F8A3E0F9A3E0FAA3E0FB7F807E8D29
:100AD1007D5B7C00120334C3E49FFFE49EFE900023
:0A0AE10008E01470058F8BEEF58D10
:010AEB0022E8
:0E0BAC00EF147009AF058F99D2002000FD22D2
:100B6200EF147016EB6006D29BD29B8004C29BC22C
:0B0B72009BAF058F99D2002000FD22F0
:100A850090000CEBF0A3EAF0A3E9F0AE0790000CA0
:100A9500E0FBA3E0FAA3E0F91202306019AF06907B
:100AA500000CA3E475F001120249A9F0FA12023014
:070AB500FD120BAC80D722FB
:0300230002097758
:10097700C0E0C0F0C083C082C0D075D000C000C046
:1009870001C002C003C004C005C006C007309808F4
:10099700C298120022120B3F309904C299C200D0AC
:1009A70007D006D005D004D003D002D001D000D0A4
:0A09B700D0D082D083D0F0D0E0321F
:10056D00020BBAE493A3F8E493A34003F68001F2DF
:10057D0008DFF48029E493A3F85407240CC8C3338F
:10058D00C4540F4420C8834004F456800146F6DF5E
:10059D00E4800B0102040810204080900BE0E47E03
:1005AD00019360BCA3FF543F30E509541FFEE49353
:1005BD00A360010ECF54C025E060A840B8E493A31A
:1005CD00FAE493A3F8E493A3C8C582C8CAC583CA45
:1005DD00F0A3C8C582C8CAC583CADFE9DEE780BEFD
:010BE500000F
:10023000BB010689828A83E0225002E722BBFE02CC
:09024000E32289828A83E49322FF
:10024900A3F8E0C5F025F0F0E58215827002158368
:06025900E0C838F0E822C5
:10025F00BB010A89828A83E0F5F0A3E0225006876A
:10026F00F009E71922BBFE07E3F5F009E31922892C
:0B027F00828A83E493F5F0740193225F
:10028A00BB010A89828A83F0E5F0A3F0225006F7BF
:0F029A0009A7F01922BBFE06F3E5F009F31922BC
:1002A900E88FF0A4CC8BF0A42CFCE98EF0A42CFCF4
:1002B9008AF0EDA42CFCEA8EF0A4CDA8F08BF0A472
:1002C9002DCC3825F0FDE98FF0A42CCD35F0FCEBD1
:1002D9008EF0A4FEA9F0EB8FF0A4CFC5F02ECD3996
:0F02E900FEE43CFCEAA42DCE35F0FDE43CFC2203
:1002F80075F008758200EF2FFFEE33FECD33CDCCBD
:1003080033CCC58233C5829BED9AEC99E58298403F
:100318000CF582EE9BFEED9AFDEC99FC0FD5F0D61C
:10032800E4CEFBE4CDFAE4CCF9A88222B800C1B946
:100338000059BA002DEC8BF084CFCECDFCE5F0CB84
:10034800F97818EF2FFFEE33FEED33FDEC33FCEBBD
:1003580033FB10D703994004EB99FB0FD8E5E4F978
:10036800FA227818EF2FFFEE33FEED33FDEC33FC65
:10037800C933C910D7059BE99A4007EC9BFCE99A59
:10038800F90FD8E0E4C9FAE4CCFB2275F010EF2F9E
:10039800FFEE33FEED33FDCC33CCC833C810D7079E
:1003A8009BEC9AE899400AED9BFDEC9AFCE899F8D9
:0E03B8000FD5F0DAE4CDFBE4CCFAE4C8F9226C
:0C03C600ECF0A3EDF0A3EEF0A3EFF022AA
:1003D200A8828583F0D083D0821203E91203E91246
:1003E20003E91203E9E473E493A3C583C5F0C5836B
:1003F200C8C582C8F0A3C583C5F0C583C8C582C875
:0104020022D7
:10040300EC8EF0A4CCC5F0CCCDF8EFA4CEC5F02D86
:10041300FDE43CFCE8A42EC8C5F03DFDE43CFCEF44
:0D042300A4FFE5F028FEE43DFDE43CFC22D2
:00000001FF
