:0300000002139A4E
:0C139A00787FE4F6D8FD7581210213E194
:101B9E0048656C6C6F2041726475696E6F2D53547D
:091BAE00432E000D0A00000000A6
:101639006054000000000000000000FF00000000EE
:1016490000000000000000FF000000FF0000000093
:1016590000000000000000FF000000FF0000000083
:10166900000000FF000000FF000000000000000073
:10167900000000FF000000FF000000000000000063
:08168900000000FF000000005A
:0B157B00900084EBF0A3EAF0A3E9F07D
:101586009000EF7401F0A37400F0A37487F090004C
:1015960084E0F9A3E0FAA3E0900137C9F0A3EAF0EA
:1015A600A3E9F09000EFE0F9A3E0FAA3E090013A96
:1015B600C9F0A3EAF0A3E9F07B017A0079AF12182B
:1015C600C39000EFE4F0A3F0A3F07B017A0079AFBB
:0515D6007F010219D89D
:0100220022BB
:0E1BC600121BD4121A9C121746121B3B80FBF6
:0B15DB0090012AEBF0A3EAF0A3E9F076
:1015E600E4FFEFC3940374809480504690012AE090
:1015F600FBA3E0FAA3E0F98F82758300120644FE8E
:101606007D08ED602AEE30E714D2CD000000000020
:10161600000000000025E0FE1DC2CD80E5D2CD0011
:101626000000000000C2CD00EE25E0FE1D80D30FB5
:0216360080B082
:01163800228F
:091BFB00007F027E8CDEFEDFFC9F
:011C040022BD
:0E14AC00900122EBF0A3EAF0A3E9F0A3EDF02B
:1014BA0078277C017D017BFF7A1B79B47E007F034C
:1014CA00120605121BFBE4900126F0900126E0FFAC
:1014DA00C39410748094805034900125E0FEEFC3C9
:1014EA009E5019A3E075F003A4FF900122E0FBA32C
:1014FA00E0FAA3E02FF9EA35F0FA80067B017A01D7
:10150A0079271215DB900126E004F080BE021BFB4E
:100F8A00ED75F0068490012BF0E0FEEF8EF084FD03
:100F9A00A3F08EF0A4FEC3EF9EA3F0ED75F00CA4AF
:100FAA002400F582E43400F583E0F8A3E0F9A3E035
:100FBA00FAA3E0FB90012CE075F00CA4240CF58256
:100FCA00E43400F583E0FCA3E0FDA3E0FEA3E0C364
:100FDA009BFFEE9AFEED99FDEC98FCC00790012B61
:100FEA00E0FBE4FAF9F8D007121952A804A905AAF5
:100FFA0006AB0790012DE0FFE4FCFDFE120722ABD1
:10100A000790012CE0FA75F00CA42400F582E43470
:10101A0000F583A3A3A3E02B90012EF0EA75F00C50
:10102A00A42404F582E43400F583E0F8A3E0F9A3EC
:10103A00E0FAA3E0FB90012CE075F00CA42410F573
:10104A0082E43400F583E0FCA3E0FDA3E0FEA3E024
:10105A00C39BFFEE9AFEED99FDEC98FCC007900148
:10106A002BE0FBE4FAF9F8D007121952A804A905F3
:10107A00AA06AB0790012DE0FFE4FCFDFE12072251
:10108A00AB0790012CE0FA75F00CA42404F582E475
:10109A003400F583A3A3A3E02B90012FF0EA75F0A7
:1010AA000CA42408F582E43400F583E0F8A3E0F9FF
:1010BA00A3E0FAA3E0FB90012CE075F00CA4241441
:1010CA00F582E43400F583E0FCA3E0FDA3E0FEA38F
:1010DA00E0C39BFFEE9AFEED99FDEC98FCC00790E9
:1010EA00012BE0FBE4FAF9F8D007121952A804A977
:1010FA0005AA06AB0790012DE0FFE4FCFDFE1207EE
:10110A0022AB0790012CE075F00CA42408F582E4C8
:10111A003400F583A3A3A3E02B900130F07B017A7E
:03112A0001792E1A
:01112D00229F
:0E112E00900122EBF0A3EAF0A3E9F0A3EDF0AC
:10113C00E4900127F0900125E075F003A4FF9001E5
:10114C0027E0FDC39FE5F06480F8748098400302AB
:02115C00126817
:10115E00ED75F00384FF7D12120F8A78287C017DD5
:10116E00017E007F03120605900126E0FCE41201C9
:10117E00D6E4FBFA797F784312012FC004C005C074
:10118E0006C007900128E0FCE41201D6D003D0027D
:10119E00D001D00012002612020A900122E0FBA319
:1011AE00E0FAA3E0F9900127E0F582758300EF12D3
:1011BE000683900126E0FCE41201D6E4FBFA797F67
:1011CE00784312012FC004C005C006C00790012944
:1011DE00E0FCE41201D6D003D002D001D000120000
:1011EE002612020A900127E02401FDE433FC90014F
:1011FE0022E0FBA3E0FAA3E0F98D828C83EF1206C6
:10120E0083900126E0FCE41201D6E4FBFA797F78A4
:10121E004312012FC004C005C006C00790012AE08A
:10122E00FCE41201D6D003D002D001D00012002669
:10123E0012020A900127E02402FDE433FC90012201
:10124E00E0FBA3E0FAA3E0F98D828C83EF12068314
:0A125E00900127E02403F002114183
:011268002263
:101746007D017F11120D807D037F55120D80121AC7
:101756006F9001231208590001C2007F01121A0F6F
:101766007F4C7E041200037BFF7A1B799E7F011259
:1017760019D87BFF7A1B79B17F011219D87B017AC0
:0E1786000079549001267401F07D1002112E9E
:101B3B007F11121A3F7C007D191206A57C027D2BAA
:101B4B001206B77B017A007954AD071214AC7F0AE9
:051B5B007E0002000302
:05169100420131096077
:10000300EF4E601A900131E0FCA3E0FDED1D70019D
:0E0013001C144C70F7EF1F70011E144E70E6A7
:0100210022BC
:0A1BF000EF1FAC0670011E4C70F6EA
:011BFA0022C8
:101AEF00900131E0FCA3E0FD1208D0E47B83FAF90A
:101AFF00F812072290013312084D900133E0C313FF
:061B0F00FEA3E013FF221B
:101B6000E50E6599600885990EE4F50D8002050D76
:101B7000AF0DC3EF94E97480948040060075C76090
:031B800000002240
:0E1BD40043BA80E4F50EF50D121A6FD2AF225F
:081C05000102040810204080D8
:0F1BB700EF54F0F50FEF540F901C0593F510222B
:10130D00EF540FD394077480948040030213991205
:10131D001BB7E50F24F0602424F0602A24F0603020
:10132D0024F0603624F0603C24F0604224F06048E4
:10133D0024707058ED90FE1060498042ED90FE11C2
:10134D006002803A803DED90FE1260028030803365
:10135D00ED90FE13600280268029ED90FE14600250
:10136D00801C801FED90FE15600280128015ED909F
:10137D00FE1660028008800BED90FE176005E045BB
:0D138D0010F022E0FFE510F4FEEF5EF0220C
:100D8000EF540FD39407748094804003020F8912AC
:100D90001BB7ED706EAF0FFEEF7007E510F45293C6
:100DA0005294EF64104E7007E510F452915292E5A0
:100DB0000F64207007E510F452955296AF0F7E0035
:100DC000EF64307007E510F452B152B2EF64404E58
:100DD0007007E510F452B352B4E50F64507007E5A4
:100DE00010F452C952CAAF0F7E00EF64607007E57D
:100DF00010F452CB52CCEF64704E7007E510F452F1
:100E0000E152E2ED64016003020E89AF0FFEEF7064
:100E100009E5104293E510F45294EF64104E700906
:100E2000E5104291E510F45292E50F64207009E557
:100E3000104295E510F45296AF0F7E00EF643070CB
:100E400009E51042B1E510F452B2EF64404E70096A
:100E5000E51042B3E510F452B4E50F64507009E5B3
:100E60001042C9E510F452CAAF0F7E00EF64607003
:100E700009E51042CBE510F452CCEF64704E7009D6
:100E8000E51042E1E510F452E2EDFF7E00640270ED
:100E900071E50FFB7A007008E5104293E51042946B
:100EA000EB64104A7008E5104291E5104292EB6441
:100EB000204A7008E5104295E5104296EB64304AEE
:100EC0007008E51042B1E51042B2EB64404A700888
:100ED000E51042B3E51042B4EB64504A7008E510E7
:100EE00042C9E51042CAEB64604A7008E51042CB83
:100EF000E51042CCEB64704A7008E51042E1E51061
:100F000042E2EF64034E6003020F89AF0FFEEF7001
:100F100009E510F45293E5104294EF64104E700905
:100F2000E510F45291E5104292E50F64207009E556
:100F300010F45295E5104296AF0F7E00EF643070CA
:100F400009E510F452B1E51042B2EF64404E700969
:100F5000E510F452B3E51042B4E50F64507009E5B2
:100F600010F452C9E51042CAAF0F7E00EF64607002
:100F700009E510F452CBE51042CCEF64704E7009D5
:0A0F8000E510F452E1E51042E22210
:10190D00EFFB7A0070028D80EB64014A70028D90BE
:10191D00EF640270028DA0EFFB7A00640370028DFC
:10192D00B0EB64044A70028DC0EF640570028DC87F
:10193D00EFFB7A00640670028DE8EB64074A7004D1
:05194D00AF058FF82238
:1016F500EFFD7C007003AF8022ED64014C7003AFF9
:101705009022EFFD7C0064027003AFA022ED64031C
:101715004C7003AFB022EFFD7C0064047003AFC0D2
:1017250022ED64054C7003AFC822EFFD7C00640612
:101735007003AFE822ED64074C7003AFF8227FFF1A
:011745002281
:10126900EF540FD3940774809480400302130C1237
:101279001BB7E50F24F0602A24F0603424F0603EA7
:1012890024F0604824F0605224F0605C24F0606629
:101299002470706FED6005E510428022E510F4526C
:1012A9008022ED6005E510429022E510F45290226B
:1012B900ED6005E51042A022E510F452A022ED6090
:1012C90005E51042B022E510F452B022ED6005E5C3
:1012D9001042C022E510F452C022ED6005E510422B
:1012E900C822E510F452C822ED6005E51042E82253
:1012F900E510F452E822ED6005E51042F822E51008
:04130900F452F82280
:10169700EF540FD394077480948040037F01221284
:1016A7001BB7E50FFD7C007002AE80ED64104C7037
:1016B70002AE90ED64204C7002AEA0ED64304C7029
:1016C70002AEB0ED64404C7002AEC0ED64504C7099
:1016D70002AEC8ED64604C7002AEE8ED64704C7009
:0D16E70002AEF8E5105E60037F01227F0077
:0116F40022D3
:10151A00EF540FD39407748094805054121BB7AFC2
:10152A000F7E00EF7004E5106280EF64104E7004C5
:10153A00E5106290EF64204E7004E51062A0EF643B
:10154A00304E7004E51062B0EF64404E7004E5104E
:10155A0062C0EF64504E7004E51062C8EF64604EDA
:10156A007004E51062E8EF64704E7004E51062F8EA
:01157A00224E
:10182E00EFFB7A007003ED6280EB64014A7003ED0A
:10183E006290EF64027003ED62A0EFFB7A00640326
:10184E007003ED62B0EB64044A7003ED62C0EF64A6
:10185E00057003ED62C8EFFB7A0064067003ED625B
:0B186E00E8EB64074A7003ED62F8220B
:10142600EF700CEB6005ED42808004EDF45280EF26
:101436006401700CEB6005ED42908004EDF452906F
:10144600EF6402700CEB6005ED42A08004EDF452EF
:10145600A0EF6403700CEB6005ED42B08004EDF480
:1014660052B0EF6404700CEB6005ED42C08004EDF1
:10147600F452C0EF6405700CEB6005ED42C88004C1
:10148600EDF452C8EF6406700CEB6005ED42E8809F
:1014960004EDF452E8EF6407700BEB6004ED42F8DC
:0614A60022EDF452F822D1
:1017E2007EFFEFFB7A007002AE80EB64014A70026A
:1017F200AE90EB64024A7002AEA0EB64034A700240
:10180200AEB0EB64044A7002AEC0EB64054A7002EB
:10181200AEC8EB64064A7002AEE8EB64074A700297
:0B182200AEF8EE5D60037F01227F0046
:01182D002298
:081C0D0030313637161743444D
:101A6F00759850538EDEE4FD7F0112179490012379
:101A7F001208590001C2007F01121A0F438E405302
:0D1A8F00890FC2ABC28FD28EC209D2AC2229
:10179400900122EDF0EF147044900122E0FF54C058
:1017A400FEE5A2543F4EF5A2EFC41313540325E003
:1017B400240DF582E4341CF583E493FFE4FD120D5B
:1017C40080900122E0C41313540325E0240EF58213
:0E17D400E4341CF583E493FF7D03120D8022A4
:051A0F00900122EFF040
:101A1400A3E0F8A3E0F9A3E0FAA3E0FB7F807E8DC6
:101A24007D5B7C001207ADC3E49FFFE49EFE900142
:0A1A340022E01470058F8BEEF58D93
:011A3E002285
:0E1BE200EF147009AF058F99D2092009FD227A
:101B8300EF147016EB6006D29BD29B8004C29BC2FB
:0B1B93009BAF058F99D2092009FD22AD
:1019D800900122EBF0A3EAF0A3E9F0AE0790012210
:1019E800E0FBA3E0FAA3E0F912062B6019AF06901A
:1019F8000122A3E475F00112070CA9F0FA12062BD4
:071A0800FD121BE280D72252
:0300230002187947
:10187900C0E0C0F0C083C082C0D075D000C000C035
:1018890001C002C003C004C005C006C007309808E3
:10189900C298120022121B60309904C299C209D061
:1018A90007D006D005D004D003D002D001D000D093
:0A18B900D0D082D083D0F0D0E0320E
:101A9C0075DE0F43DE2078EFE6FC08E6FDE412016C
:101AAC00D1E4FBFA797A784412012F9001421208A2
:0C1ABC004D7D017F10120D8043BC802284
:101A3F007DC07C12EF540FFFE5BC54F04FF5BC4353
:101A4F00BC400000E5BC20E50BED4C6007ED1D70C0
:0F1A5F00F31C80F053BCDFAFBDEFFEADBEEDFF5B
:011A6E002255
:101B1500121A3FAD07AC06E41201D190013EE0F880
:101B2500A3E0F9A3E0FAA3E0FB120026E4FBFA79AF
:061B350080784402012F3C
:101996007F0F121A3FEF4E7005FFFEFDFC22AD07CA
:1019A600AC06E41201D1C004C005C006C007E4FFBE
:1019B600FE7D807C44900142E0F8A3E0F9A3E0FAC2
:1019C600A3E0FB120026D003D002D001D000120102
:0119D6002FE1
:0119D70022ED
:10002600EC4D6011E8497017ED33EC3304600DE4D4
:10003600FCFFFEFD22E933E8330470F80202761273
:10004600024158046009E4CC248150062850090274
:10005600028028400302027DC0E0EB4A7044B9806A
:1000660006D0E0FB02026CEF4E701CBD8008EBFF71
:10007600EAFEE9FD80EBE98DF0A4FEE5F002010F52
:10008600E9CDF9EAFEEBFFEF89F0A4FCE5F0CE89B5
:10009600F0A42EFFE435F0CD89F0A42DFEE435F072
:1000A6008067EF4E7005BD80D780C3EF8BF0A4ACA0
:1000B600F0EE8BF0A42CFCE435F0F8EF8AF0A42CDB
:1000C600E5F038FCE433CB8DF0A42CFCE5F03BF8EE
:1000D600EE8AF0A42CFCE5F038F8E433CF89F0A4DE
:1000E6002CFCE5F038CF3400CE89F0A42FFFE5F0E4
:1000F6003EFEE433C98DF0A42EFEE5F039CD8AF03C
:10010600A42FFFE5F03EFEE43DFD33D0E0FB5007B3
:100116000BBB000F020280EC2CFCEF33FFEE33FE2C
:06012600ED33FD0202585A
:10012C00020280EC5D046005E8590470030202765B
:10013C00120241580460F6EC4860F2EC7004FDFECB
:10014C00FF22C860DB2481C85009C39860025006A6
:10015C0002027D9850CAF582E9294B4A7005AB82A0
:10016C0002026C75F0007C1A7880C3EF9BEE9AED5E
:10017C0099400DC3EF9BFFEE9AFEED99FDE842F01E
:10018C00DC23ACF0D0E0FFD0E0FED0E0FDAB822071
:10019C00E7101BEB60BAEC2CFCEF33FFEE33FEEDFB
:1001AC0033FD020258E803F830E705C0F075F000A3
:1001BC00EF2FFFEE33FEED33FD40B830E7C280AADF
:1001CC0075F020800E75F010800575F0087D007EAE
:1001DC00007F003392D530D50312083FEC3340102A
:1001EC00EF33FFEE33FEED33FDEC33FCD5F0ED22B7
:0E01FC00E5F0247EA2D513CC92E7CDCEFF22F3
:10020A00EDD2E7CD33EC3392D524814006E4FFFEEC
:10021A00FDFC22FCE4CFCECDCC24E0501174FF804B
:10022A00EDC3CC13CCCD13CDCE13CECF13CF0470E8
:07023A00F030D5DE02083FA1
:1018C300900137E0FFA3E0FEA3E0CF9000F5F0A383
:1018D300EEF0A3EFF090013AE0CBF0A3E0CAF0A35F
:1018E300E0C9F07F229000F8AD82AC8312062B8D05
:1018F300828C83F0A309E970010ADFEC90013AE0DE
:0A190300FBA3E0FAA3E0F902096279
:10024100E9D2E7C933E833F892D5EDD2E7CD33EC03
:0702510033FC5002B2D5227C
:10025800EC30E7100FBF000C0EBE00080DBD000407
:100268000BEB6014A2D5EB13FCED92E7FD2274FFB3
:10027800FCFDFEFF22E480F8A2D574FF13FC7D800C
:03028800E480EF20
:1008FD00E50824F5F582E43400F583E0050822903F
:10090D0000F23007039000F5E475F00112088A0239
:10091D00062B2000E97F2ED2008018EF540F249073
:10092D00D43440D4FF30040BEF24BFB41A0050036D
:10093D002461FFE50960021509050CE50C7002053F
:10094D000B30070E9000F2E475F00112088AEF02E9
:10095D000671021AC87403D2078003E4C207F508B2
:10096D009000F21208A1E4F509F50BF50CE509600C
:10097D00077F2012094080F5750AFFC201C200C22F
:10098D0002C203C205C206C20812090CFF700D3067
:10099D0007057F00120951AF0CAE0B22B4255FC2C3
:1009AD00D5C20412090CFF24D0B40A00501A75F0F8
:1009BD000A780930D50508B6FF0106C6A426F6202B
:1009CD00D5047002D20380D924CFB41A00EF50049D
:1009DD00C2E5D204020C43D20180C6D20080C0D23F
:1009ED000280BCD2D580BAD20580B47F20120940D6
:1009FD002002077401B5090040F11208FDFF12092C
:100A0D004002097AD208D20680951208FDFB120821
:100A1D00FDFA1208FDF94A4B700679417A0D7BFFFC
:100A2D0020022EE509602A7E008E82758300120653
:100A3D004460060EEE650A70F0C2D5EBC0E0EAC068
:100A4D00E0E9C0E0EE120CA4D0E0F9D0E0FAD0E07D
:100A5D00FB12062BFF60AAEBC0E0EAC0E0E9C0E0A4
:100A6D00120940D0E02401F9D0E03400FAD0E0FBC7
:100A7D00E50A0460DCD50AD98087D20280A2120C67
:100A8D008660F7E50A70010412028BA90A600DE574
:100A9D000A600914F50A120D2EEF60F3EA30E70231
:100AAD00F404C3995079EAF4250A0430E701E4040B
:100ABD00F50A800D120C8660C1EA050A250A12029C
:100ACD008BEA900121F030E701E4250A04D50A04F0
:100ADD0020050114120CA4E4C0E0120D2E9001218A
:100AED00E0601320E70714F0120928802204F0D0EB
:100AFD00E014C0E07F00120928E50A600712091F03
:100B0D00150A800B30050312091FD0E002097AD0B7
:100B1D00E00480C4120C86609EE50A0412028B90DC
:100B2D000121EAF0E50A2005026001042404120CFB
:010B3D00A413
:100B3E0074FF04C0E0120D2E120928E50A200502EA
:100B4E00600312091FD0E0B50AE87F451209329002
:100B5E000121E07F2B30E7047F2DF404C0E0120961
:100B6E0040D0E075F00A84C0F0120929D0E01209D5
:100B7E002902097A791080027908C206C208800813
:100B8E00D2D5790A8004790AC2D5E50A047002F535
:100B9E000AE4FAFDFEFF1208FDFC7B082001131289
:100BAE0008FDFD7B1030000A1208FDFE1208FDFF45
:100BBE007B20EC3382D592D55013C3E43000069FD0
:100BCE00FFE49EFEE42001039DFDE49CFCE4CBF8D3
:100BDE00C201EC700CCFCECDCCE824F8F870F380C7
:100BEE0017C3EF33FFEE33FEED33FDEC33FCEB3387
:100BFE00FB994002FB0FD8E9EB300105F8D0E0C4B9
:100C0E0048B201C0E00AEC4D4E4F78207B0070C216
:100C1E00EAB50A0040BCC0E0120CA6D0F0D0E0202D
:100C2E000104C4C0E0C4B201C0F0120929D0F0D54D
:100C3E00F0EB02097A1208AA0A17530B825809E838
:100C4E004C09E4420B864F0B8E440B8E4909FD4333
:100C5E000B94550AC1460B21450A8B470D6150096D
:100C6E00EC2D09F02E0A132B09F4230A11200D4A3C
:100C7E002A09AC4800000A0BE50AB4FF03750A0600
:100C8E001208FDFC1208FDFD1208FDFE1208FDFF04
:100C9E0090011A0202C8790AA2D520031430050960
:100CAE00B910020404B9080104A2D52006025001AD
:100CBE00042002689202B509005034C0E07F203053
:100CCE0003197F30A20272067205500F120CFDC27C
:100CDE0002C206C205C2087F30800F300503E9C08C
:100CEE00E0120940300503D0E0F9D0E0B509CC3070
:100CFE0005177F30B9100C1209407F583004077F5A
:100D0E00788003B908031209403002057F2D0209CD
:100D1E00407F202008F87F2B2006F322920280CFFE
:100D2E007F00B40700500B241AF582E43401F583DA
:100D3E00E0FF22286E756C6C2900D2011208FD307E
:100D4E0001F8C201780930D50108F60209AC2D5020
:100D5E004349581208FD2403B405004001E4900DE8
:100D6E005C93120931743A120931D20375090402E7
:020D7E000B82E6
:10028B00F920E73624F950037907E4F42402FBE55F
:10029B0082158270021583DBF6E024FB501BE960AC
:1002AB0014E4F0E582158270021583E004F0B40AC1
:0D02BB0008E4F0D9EE7401F00A22C2D52249
:1002C800ED33EC3392D5FA602AB4FF33EDC2E77B05
:1002D800FF60067A0279EDE4227A0279F620D504E5
:1002E8007A0279F1224E614E002B494E46002D4983
:1002F8004E4600E47A08F0A3DAFC7B00740722C0BB
:1003080083C082ECC0E0EDC0E0EEC0E0EFC0E0EA00
:1003180075F010A4CAABF075F04DA42BFBE435F0D2
:10032800FCEA2410FAEB34C5FBEC34D9FCEDC2E747
:10033800FF75F056A4F42411C5F0F434C58FF0A469
:100348002AE5F03BE43CF020E7141204F5D0E0FF86
:10035800D0E0FED0E0FDD0E0FC12012F8014F404C0
:100368001204F5D0E0FFD0E0FED0E0FDD0E0FC12B2
:100378000026D082D083E0FAEDD2E7CD33EC3324E7
:1003880082FBE4C3CF33CFCE33CECD33CD33DBF3D3
:100398007B0775F00A846004F0A31B0AE5F0F0A35C
:1003A8008FF0740AA4FFACF08EF0740AA42CFEAC93
:1003B800F050010C8DF0740AA42CFDE435F0F0A384
:0503C800DBDE740722DA
:1003CD00020276E86480F8E933E83360110460F0E6
:1003DD00ED33EC337009E8FCE9FDEAFEEBFF220496
:1003ED0060DED3EB9FEA9EE99DE8C2E78CF0C2F791
:1003FD0095F0400CE8CCF8E9CDF9EACEFAEBCFFB5D
:10040D0012024185D0F05804700320D5B3E8047072
:10041D00075002B2D502028092D5EC0460F7E4CC0D
:10042D00C0E0C398F8603B94186008400DD0E0FB25
:10043D00020258E4FBFAC9FC8028E830E406E4C95E
:10044D00FBE4CAFCE830E305E4C9CACBFCE8540779
:10045D006010F8C3E913F9EA13FAEB13FBEC13FC84
:10046D00D8F130F52FC3E49CFCEF9BFFEE9AFEED27
:10047D0099FDD0E0FBEF4E4D4C701222DB030202D2
:10048D007DEC2CFCEF33FFEE33FEED33FDED30E76D
:10049D00EB020258EF2BFFEE3AFEED39FDD0E0FBFB
:1004AD0050130BBB0003020280ED13FDEE13FEEFA4
:0804BD0013FFEC13FC020258CE
:1004C5003F8000004120000042C80000447A00003F
:1004D500461C400047C35000497424004B189680C1
:1004E5004CBEBC205A0E1BCA6753C21C749DC5AEB8
:1004F500FB60065407601C2323120523EB54386068
:100505000912050F12051E120026ECF8EDF9EEFA98
:10051500EFCB22EB12051E80F1543803241C900406
:10052500C5FE93FC0EEE93FD0EEE930ECE93FF22C9
:1013A600021BC6E493A3F8E493A34003F68001F27C
:1013B60008DFF48029E493A3F85407240CC8C33348
:1013C600C4540F4420C8834004F456800146F6DF17
:1013D600E4800B0102040810204080901639E47E58
:1013E600019360BCA3FF543F30E509541FFEE4930C
:1013F600A360010ECF54C025E060A840B8E493A3D3
:10140600FAE493A3F8E493A3C8C582C8CAC583CAFD
:10141600F0A3C8C582C8CAC583CADFE9DEE780BEB5
:011696000053
:10053500E709F608DFFA8046E709F208DFFA803EA8
:1005450088828C83E709F0A3DFFA8032E309F60895
:10055500DFFA8078E309F208DFFA807088828C83FD
:10056500E309F0A3DFFA806489828A83E0A3F608B1
:10057500DFFA805889828A83E0A3F208DFFA804C8B
:1005850080D280FA80C680D4806980F28033801062
:1005950080A680EA809A80A880DA80E280CA8033CB
:1005A50089828A83ECFAE493A3C8C582C8CCC58343
:1005B500CCF0A3C8C582C8CCC583CCDFE9DEE78013
:1005C5000D89828A83E493A3F608DFF9ECFAA9F092
:1005D500EDFB2289828A83ECFAE0A3C8C582C8CCE8
:1005E500C583CCF0A3C8C582C8CCC583CCDFEADE01
:1005F500E880DB89828A83E493A3F208DFF980CC63
:1006050088F0EF60010E4E60C388F0ED2402B4045B
:100615000050B9F582EB2402B4040050AF23234502
:060625008223900585739D
:10062B00BB010689828A83E0225002E722BBFE02CD
:09063B00E32289828A83E4932200
:10064400BB010CE58229F582E5833AF583E022506B
:1006540006E92582F8E622BBFE06E92582F8E222B5
:0D066400E58229F582E5833AF583E49322CF
:10067100BB010689828A83F0225002F722BBFE0168
:02068100F32262
:10068300F8BB010DE58229F582E5833AF583E8F0AD
:10069300225006E92582C8F622BBFE05E92582C859
:0206A300F22241
:1006A500EF8DF0A4A8F0CF8CF0A428CE8DF0A42E69
:0206B500FE2223
:1006B700BC000BBE0029EF8DF084FFADF022E4CC27
:1006C700F875F008EF2FFFEE33FEEC33FCEE9DECF0
:1006D700984005FCEE9DFE0FD5F0E9E4CEFD22ED36
:1006E700F8F5F0EE8420D21CFEADF075F008EF2F80
:1006F700FFED33FD4007985006D5F0F222C398FD71
:050707000FD5F0EA220D
:10070C00A3F8E0C5F025F0F0E582158270021583A0
:06071C00E0C838F0E822FD
:10072200E88FF0A4CC8BF0A42CFCE98EF0A42CFC76
:100732008AF0EDA42CFCEA8EF0A4CDA8F08BF0A4F4
:100742002DCC3825F0FDE98FF0A42CCD35F0FCEB53
:100752008EF0A4FEA9F0EB8FF0A4CFC5F02ECD3918
:0F076200FEE43CFCEAA42DCE35F0FDE43CFC2285
:1007710075F008758200EF2FFFEE33FECD33CDCC3F
:1007810033CCC58233C5829BED9AEC99E5829840C2
:100791000CF582EE9BFEED9AFDEC99FC0FD5F0D69F
:1007A100E4CEFBE4CDFAE4CCF9A88222B800C1B9C9
:1007B1000059BA002DEC8BF084CFCECDFCE5F0CB07
:1007C100F97818EF2FFFEE33FEED33FDEC33FCEB40
:1007D10033FB10D703994004EB99FB0FD8E5E4F9FB
:1007E100FA227818EF2FFFEE33FEED33FDEC33FCE8
:1007F100C933C910D7059BE99A4007EC9BFCE99ADC
:10080100F90FD8E0E4C9FAE4CCFB2275F010EF2F20
:10081100FFEE33FEED33FDCC33CCC833C810D70720
:100821009BEC9AE899400AED9BFDEC9AFCE899F85B
:0E0831000FD5F0DAE4CDFBE4CCFAE4C8F922EE
:10195200C2D5E830E70FB2D5E4C39BFBE49AFAE4C0
:1019620099F9E498F8EC30E717B2D5121988120702
:10197200ADE4C39BFBE49AFAE499F9E498F8800396
:101982001207AD30D50DE4C39FFFE49EFEE49DFD3A
:04199200E49CFC22B3
:0E083F00C3E49FFFE49EFEE49DFDE49CFC22CA
:0C084D00ECF0A3EDF0A3EEF0A3EFF0221E
:10085900A8828583F0D083D08212087012087012A2
:100869000870120870E473E493A3C583C5F0C583C7
:10087900C8C582C8F0A3C583C5F0C583C8C582C8E9
:01088900224C
:10088A00F8E0FBA3A3E0F925F0F0E58215827002F7
:07089A001583E0FA38F0229B
:0908A100EBF0A3EAF0A3E9F02258
:1008AA00D083D082F8E4937012740193700DA3A3DD
:1008BA0093F8740193F5828883E4737402936860F1
:0608CA00EFA3A3A380DFF1
:1008D000EC8EF0A4CCC5F0CCCDF8EFA4CEC5F02DB5
:1008E000FDE43CFCE8A42EC8C5F03DFDE43CFCEF73
:0D08F000A4FFE5F028FEE43DFDE43CFC2201
:101AC800EFB40A07740D121AD3740A309811A89942
:101AD800B8130CC2983098FDA899C298B811F6307E
:071AE80099FDC299F5992256
:00000001FF
