:03000000020B30C0
:0C0B3000787FE4F6D8FD758120020B7779
:1010AF0048656C6C6F2041726475696E6F2D535477
:0610BF00432E000D0A00A3
:0711300044000D0000000067
:0100220022BB
:03000B00020E38AA
:100E3800C0E0C0F0C083C082C0D075D000C000C080
:100E480004C005C006C00790000DE0FCA3E0FDA3A8
:100E5800E0FEA3E02401FFE43EFEE43DFDE43CFCAB
:100E680090000D1203F4D007D006D005D004D000AE
:0B0E7800D0D0D082D083D0F0D0E03288
:1010970012000EE4FDFCFF1211487DE87C03E4FF1B
:0810A7001209FFE4FF021159D8
:0F10E80090000DE0FCA3E0FDA3E0FEA3E0FF22DB
:0E110600121114121097120DA01210C580FBCA
:0B083A00900013EBF0A3EAF0A3E9F03C
:10084500A37401F012021AFFE5F06003020940EFFC
:1008550024E6602424FE607324FE700302092C2420
:100865001E6003020940900013E0FBA3E0FAA3E039
:10087500F9E475F01A120245D3900012E094009045
:100885000011E094004003D38001C34002806F90C3
:100895000012E024FFF0900011E034FFF07F5512C4
:1008A5000CA3EF70047D0180027D007F5512095B6A
:1008B5001210E8900013E0FBA3E0FAA3E0F9900022
:1008C500021203A0E475F01C1202451210E8900014
:1008D50013E0FBA3E0FAA3E0F99000021203C4C3FE
:1008E500EF9BFFEE9AFEED99FDEC98FCE47BE87A30
:1008F50003F9F8D312038F50028001C34004E4FECC
:10090500FF22900012E004F07006900011E004F060
:10091500E4900016F0900013E0FBA3E0FAA3E0F9E1
:10092500E475F01E120245900016E0FF3395E0FED7
:10093500EF4E600302086BFE7F0322E4900016F081
:10094500900013E0FBA3E0FAA3E0F9E4F5F012024E
:05095500457E007F0259
:01095A00227A
:0B06B600900013EBF0A3EAF0A3E9F0C2
:1006C100A37401F012021AFFE5F0600302081FEFA4
:1006D10024D7602A14604424FC700302077924FEA5
:1006E10070030207CF2430600302081F900013E05B
:1006F100FBA3E0FAA3E0F9E475F0291202457F5467
:10070100120CA3EF6003020801900013E0FBA3E0C9
:10071100FAA3E0F9E475F02A120245D3900012E041
:100721009400900011E094004003D38001C3400382
:10073100020801900012E024FFF0900011E034FF64
:10074100F0E490000CF090000CE0C39405748094E8
:1007510080400302080E7D017F5512095B1210E8EB
:10076100900013E0FBA3E0FAA3E0F990000212036A
:10077100A0E475F02E1202451210E8900013E0FB80
:10078100A3E0FAA3E0F99000021203C4C3EF9BFFB8
:10079100EE9AFEED99FDEC98FCE47BC8FAF9F8D3EA
:1007A10012038F50028001C340028054E4FD7F5543
:1007B10012095B1210E8900013E0FBA3E0FAA3E03A
:1007C100F99000021203A0E475F0301202451210F4
:1007D100E8900013E0FBA3E0FAA3E0F99000021215
:1007E10003C4C3EF9BFFEE9AFEED99FDEC98FCE488
:1007F1007BC8FAF9F8D312038F50028001C3400479
:10080100E4FEFF2290000CE004F002074790001282
:10081100E004F07006900011E004F00206EDE490AF
:100821000016F0900013E0FBA3E0FAA3E0F9E4F571
:08083100F01202457E007F0277
:01083900229C
:100DA0007D037F551204AC7D017F541204AC120FF9
:100DB000C49000141204000001C2007F01120F94BD
:100DC0007BFF7A1079AF7F01120F5D7BFF7A10797C
:100DD000C27F01120F5D900011E4F0A304F0E490D3
:0C0DE0000000F0A3F0900006F0A3F02249
:1010C5007B017A00790012083A7B017A00790602E1
:0210D50006B65D
:0511370042001C0960EC
:10105D00EF4E601A90001CE0FCA3E0FDED1D700149
:0E106D001C144C70F7EF1F70011E144E70E63D
:01107B002252
:0A113D00EF1FAC0670011E4C70F6A7
:011147002285
:100FF10090001CE0FCA3E0FD120431E47B83FAF9CC
:10100100F812026490001E1203F490001EE0C31354
:06101100FEA3E013FF2224
:10101700E50965996008859909E4F50880020508DE
:10102700AF08C3EF94E97480948040060075C760E9
:0310370000002294
:0E11140043BA80E4F509F508120FC4D2AF22E9
:080003000102040810204080F6
:0F10F700EF54F0F50AEF540F90000393F50B221E
:100AA300EF540FD39407748094804003020B2F12EA
:100AB30010F7E50A24F0602424F0602A24F0603063
:100AC30024F0603624F0603C24F0604224F0604857
:100AD30024707058ED90FE1060498042ED90FE1135
:100AE3006002803A803DED90FE12600280308033D8
:100AF300ED90FE13600280268029ED90FE146002C3
:100B0300801C801FED90FE15600280128015ED9011
:100B1300FE1660028008800BED90FE176005E0452D
:0D0B23000BF022E0FFE50BF4FEEF5EF02288
:1004AC00EF540FD394077480948040030206B51266
:1004BC0010F7ED706EAF0AFEEF7007E50BF4529378
:1004CC005294EF64104E7007E50BF452915292E582
:1004DC000A64207007E50BF452955296AF0A7E0021
:1004EC00EF64307007E50BF452B152B2EF64404E3A
:1004FC007007E50BF452B352B4E50A64507007E58B
:10050C000BF452C952CAAF0A7E00EF64607007E563
:10051C000BF452CB52CCEF64704E7007E50BF452D7
:10052C00E152E2ED640160030205B5AF0AFEEF7023
:10053C0009E50B4293E50BF45294EF64104E7009ED
:10054C00E50B4291E50BF45292E50A64207009E543
:10055C000B4295E50BF45296AF0A7E00EF643070B7
:10056C0009E50B42B1E50BF452B2EF64404E700951
:10057C00E50B42B3E50BF452B4E50A64507009E59F
:10058C000B42C9E50BF452CAAF0A7E00EF646070EF
:10059C0009E50B42CBE50BF452CCEF64704E7009BD
:1005AC00E50B42E1E50BF452E2EDFF7E00640270D4
:1005BC0071E50AFB7A007008E50B4293E50B429457
:1005CC00EB64104A7008E50B4291E50B4292EB6428
:1005DC00204A7008E50B4295E50B4296EB64304AD5
:1005EC007008E50B42B1E50B42B2EB64404A70086F
:1005FC00E50B42B3E50B42B4EB64504A7008E50BD3
:10060C0042C9E50B42CAEB64604A7008E50B42CB69
:10061C00E50B42CCEB64704A7008E50B42E1E50B4C
:10062C0042E2EF64034E60030206B5AF0AFEEF70C0
:10063C0009E50BF45293E50B4294EF64104E7009EC
:10064C00E50BF45291E50B4292E50A64207009E542
:10065C000BF45295E50B4296AF0A7E00EF643070B6
:10066C0009E50BF452B1E50B42B2EF64404E700950
:10067C00E50BF452B3E50B42B4E50A64507009E59E
:10068C000BF452C9E50B42CAAF0A7E00EF646070EE
:10069C0009E50BF452CBE50B42CCEF64704E7009BC
:0A06AC00E50BF452E1E50B42E222F7
:100F1800EFFB7A0070028D80EB64014A70028D90BD
:100F2800EF640270028DA0EFFB7A00640370028DFB
:100F3800B0EB64044A70028DC0EF640570028DC87E
:100F4800EFFB7A00640670028DE8EB64074A7004D0
:050F5800AF058FF82237
:100D0100EFFD7C007003AF8022ED64014C7003AFF6
:100D11009022EFFD7C0064027003AFA022ED64031A
:100D21004C7003AFB022EFFD7C0064047003AFC0D0
:100D310022ED64054C7003AFC822EFFD7C00640610
:100D41007003AFE822ED64074C7003AFF8227FFF18
:010D5100227F
:10095B00EF540FD394077480948040030209FE1266
:10096B0010F7E50A24F0602A24F0603424F0603E8E
:10097B0024F0604824F0605224F0605C24F0606640
:10098B002470706FED6005E50B428022E50BF4528D
:10099B008022ED6005E50B429022E50BF45290228C
:1009AB00ED6005E50B42A022E50BF452A022ED60B1
:1009BB0005E50B42B022E50BF452B022ED6005E5E4
:1009CB000B42C022E50BF452C022ED6005E50B4251
:1009DB00C822E50BF452C822ED6005E50B42E82274
:1009EB00E50BF452E822ED6005E50B42F822E50B2E
:0409FB00F452F82298
:100CA300EF540FD394077480948040037F01221282
:100CB30010F7E50AFD7C007002AE80ED64104C7005
:100CC30002AE90ED64204C7002AEA0ED64304C7027
:100CD30002AEB0ED64404C7002AEC0ED64504C7097
:100CE30002AEC8ED64604C7002AEE8ED64704C7007
:0D0CF30002AEF8E50B5E60037F01227F007A
:010D000022D0
:100C4200EF540FD394077480948050541210F7AF6E
:100C52000A7E00EF7004E50B6280EF64104E7004B0
:100C6200E50B6290EF64204E7004E50B62A0EF6426
:100C7200304E7004E50B62B0EF64404E7004E50B39
:100C820062C0EF64504E7004E50B62C8EF64604EC0
:100C92007004E50B62E8EF64704E7004E50B62F8D5
:010CA200222F
:100E8300EFFB7A007003ED6280EB64014A7003EDBF
:100E93006290EF64027003ED62A0EFFB7A006403DB
:100EA3007003ED62B0EB64044A7003ED62C0EF645B
:100EB300057003ED62C8EFFB7A0064067003ED6210
:0B0EC300E8EB64074A7003ED62F822C0
:100BBC00EF700CEB6005ED42808004EDF45280EF99
:100BCC006401700CEB6005ED42908004EDF45290E2
:100BDC00EF6402700CEB6005ED42A08004EDF45262
:100BEC00A0EF6403700CEB6005ED42B08004EDF4F3
:100BFC0052B0EF6404700CEB6005ED42C08004ED64
:100C0C00F452C0EF6405700CEB6005ED42C8800433
:100C1C00EDF452C8EF6406700CEB6005ED42E88011
:100C2C0004EDF452E8EF6407700BEB6004ED42F84E
:060C3C0022EDF452F82243
:100DEC007EFFEFFB7A007002AE80EB64014A70026A
:100DFC00AE90EB64024A7002AEA0EB64034A700240
:100E0C00AEB0EB64044A7002AEC0EB64054A7002EB
:100E1C00AEC8EB64064A7002AEE8EB64074A700297
:0B0E2C00AEF8EE5D60037F01227F0046
:010E37002298
:08115100303136371617434414
:100FC400759850538EDEE4FD7F01120D529000148B
:100FD4001204000001C2007F01120F94438E40539B
:0D0FE400890FC2ABC28FD28EC200D2AC22E8
:100D5200900013EDF0EF147044900013E0FF54C0C4
:100D6200FEE5A2543F4EF5A2EFC41313540325E04F
:100D72002451F582E43411F583E493FFE4FD120477
:100D8200AC900013E0C41313540325E02452F582FF
:0E0D9200E43411F583E493FF7D031204AC22D8
:050F9400900013EFF0D6
:100F9900A3E0F8A3E0F9A3E0FAA3E0FB7F807E8D4C
:100FA9007D5B7C001202EFC3E49FFFE49EFE90008C
:0A0FB90013E01470058F8BEEF58D28
:010FC300220B
:0E112200EF147009AF058F99D2002000FD2256
:10107C00EF147016EB6006D29BD29B8004C29BC20D
:0B108C009BAF058F99D2002000FD22D1
:100F5D00900013EBF0A3EAF0A3E9F0AE07900013B5
:100F6D00E0FBA3E0FAA3E0F91201EB6019AF0690E4
:100F7D000013A3E475F001120204A9F0FA1201EBBB
:070F8D00FD12112280D722A2
:03002300020ECEFC
:100ECE00C0E0C0F0C083C082C0D075D000C000C0EA
:100EDE0001C002C003C004C005C006C00730980898
:100EEE00C298120022121017309904C299C200D073
:100EFE0007D006D005D004D003D002D001D000D048
:0A0F0E00D0D082D083D0F0D0E032C2
:08115900EF7004C28DD28C225C
:06116100EF7002C28C22B7
:10103A00900022EFF0ED600AE07017438F017D0304
:10104A00800B900022E0700A538FFEE4FD7F351278
:03105A0004AC22C1
:10000E00E58E547F4480F58E5389F0758AF6758C93
:04001E00FFD2A92242
:0B09FF00900013EFF0A3ECF0A3EDF06C
:100A0A004C7003020AA27FAA7E0A900018747FF033
:100A1A00A374FFF0900014E0FCA3E0FDD39FEC9ECA
:100A2A005013A3E4F0A304F0E4120131E4FBFA79D1
:100A3A00C078418027900018E0FEA3E0FF900014E0
:100A4A00E0FCA3E0FDD39FEC9E5024A3E4F0A37442
:100A5A000CF0E4120131E4FBFAF978401200261294
:100A6A00016AC3E49FFFE49E90001AF0A3EFF0909E
:100A7A000013E07023900016E07004A3E064017094
:100A8A0005438E808003538E7F90001AE0FEA3E018
:080A9A00F58AEEF58C5389FB8F
:010AA2002231
:09114800EF70058D8AECF58C2294
:1010D700E4FDFCEF7006AF8CEFAD8AFCAE04AF0504
:0110E70022E6
:10002600EC4D6011E8497017ED33EC3304600DE4D4
:10003600FCFFFEFD22E933E8330470F80201D61214
:1000460001A158046009E4CC248150062850090215
:1000560001E02840030201DDC0E0EB4A7044B980AC
:1000660006D0E0FB0201CCEF4E701CBD8008EBFF12
:10007600EAFEE9FD80EBE98DF0A4FEE5F002010F52
:10008600E9CDF9EAFEEBFFEF89F0A4FCE5F0CE89B5
:10009600F0A42EFFE435F0CD89F0A42DFEE435F072
:1000A6008067EF4E7005BD80D780C3EF8BF0A4ACA0
:1000B600F0EE8BF0A42CFCE435F0F8EF8AF0A42CDB
:1000C600E5F038FCE433CB8DF0A42CFCE5F03BF8EE
:1000D600EE8AF0A42CFCE5F038F8E433CF89F0A4DE
:1000E6002CFCE5F038CF3400CE89F0A42FFFE5F0E4
:1000F6003EFEE433C98DF0A42EFEE5F039CD8AF03C
:10010600A42FFFE5F03EFEE43DFD33D0E0FB5007B3
:100116000BBB000F0201E0EC2CFCEF33FFEE33FECD
:06012600ED33FD0201B8FB
:10012C0075F020800E75F010800575F0087D007E4E
:10013C00007F003392D530D503120381EC3340108D
:10014C00EF33FFEE33FEED33FDEC33FCD5F0ED2257
:0E015C00E5F0247EA2D513CC92E7CDCEFF2293
:10016A00EDD2E7CD33EC3392D524814006E4FFFE8D
:10017A00FDFC22FCE4CFCECDCC24E0501174FF80EC
:10018A00EDC3CC13CCCD13CDCE13CECF13CF047089
:07019A00F030D5DE02038105
:1001A100E9D2E7C933E833F892D5EDD2E7CD33ECA4
:0701B10033FC5002B2D5221D
:1001B800EC30E7100FBF000C0EBE00080DBD0004A8
:1001C8000BEB6014A2D5EB13FCED92E7FD2274FF54
:1001D800FCFDFEFF22E480F8A2D574FF13FC7D80AD
:0301E800E480EFC1
:100B3C00021106E493A3F8E493A34003F68001F2B8
:100B4C0008DFF48029E493A3F85407240CC8C333BA
:100B5C00C4540F4420C8834004F456800146F6DF89
:100B6C00E4800B0102040810204080901130E47ED8
:100B7C00019360BCA3FF543F30E509541FFEE4937E
:100B8C00A360010ECF54C025E060A840B8E493A345
:100B9C00FAE493A3F8E493A3C8C582C8CAC583CA70
:100BAC00F0A3C8C582C8CAC583CADFE9DEE780BE28
:01113C0000B2
:1001EB00BB010689828A83E0225002E722BBFE0212
:0901FB00E32289828A83E4932245
:10020400A3F8E0C5F025F0F0E582158270021583AD
:06021400E0C838F0E8220A
:10021A00BB010A89828A83E0F5F0A3E022500687AF
:10022A00F009E71922BBFE07E3F5F009E319228971
:0B023A00828A83E493F5F074019322A4
:10024500BB010A89828A83F0E5F0A3F0225006F704
:0F02550009A7F01922BBFE06F3E5F009F3192201
:10026400E88FF0A4CC8BF0A42CFCE98EF0A42CFC39
:100274008AF0EDA42CFCEA8EF0A4CDA8F08BF0A4B7
:100284002DCC3825F0FDE98FF0A42CCD35F0FCEB16
:100294008EF0A4FEA9F0EB8FF0A4CFC5F02ECD39DB
:0F02A400FEE43CFCEAA42DCE35F0FDE43CFC2248
:1002B30075F008758200EF2FFFEE33FECD33CDCC02
:1002C30033CCC58233C5829BED9AEC99E582984085
:1002D3000CF582EE9BFEED9AFDEC99FC0FD5F0D662
:1002E300E4CEFBE4CDFAE4CCF9A88222B800C1B98C
:1002F3000059BA002DEC8BF084CFCECDFCE5F0CBCA
:10030300F97818EF2FFFEE33FEED33FDEC33FCEB02
:1003130033FB10D703994004EB99FB0FD8E5E4F9BD
:10032300FA227818EF2FFFEE33FEED33FDEC33FCAA
:10033300C933C910D7059BE99A4007EC9BFCE99A9E
:10034300F90FD8E0E4C9FAE4CCFB2275F010EF2FE3
:10035300FFEE33FEED33FDCC33CCC833C810D707E3
:100363009BEC9AE899400AED9BFDEC9AFCE899F81E
:0E0373000FD5F0DAE4CDFBE4CCFAE4C8F922B1
:0E038100C3E49FFFE49EFEE49DFDE49CFC228D
:10038F00EB9FF5F0EA9E42F0E99D42F0E89C45F0C4
:01039F00223B
:1003A000BB010DE58229F582E5833AF5830203F46A
:1003B0005007E92582F8020494BBFE07E92582F87C
:0403C0000204A02271
:1003C400BB010DE58229F582E5833AF58302046BCE
:1003D4005007E92582F802045EBBFE07E92582F88E
:1003E400020477E58229F582E5833AF583020484E1
:0C03F400ECF0A3EDF0A3EEF0A3EFF0227C
:10040000A8828583F0D083D08212041712041712B9
:100410000417120417E473E493A3C583C5F0C583DE
:10042000C8C582C8F0A3C583C5F0C583C8C582C846
:0104300022A9
:10043100EC8EF0A4CCC5F0CCCDF8EFA4CEC5F02D58
:10044100FDE43CFCE8A42EC8C5F03DFDE43CFCEF16
:0D045100A4FFE5F028FEE43DFDE43CFC22A4
:0D045E00E6FB08E6F908E6FA08E6CBF8220E
:0C046B00E0F8A3E0F9A3E0FAA3E0FB2214
:0D047700E2FB08E2F908E2FA08E2CBF82205
:10048400E493F8740193F9740293FA740393FB22CE
:0C049400ECF608EDF608EEF608EFF62294
:0C04A000ECF208EDF208EEF208EFF22298
:00000001FF
